{
	"data": {
		"bytecode": {
			"linkReferences": {},
			"object": "608060405260016004553480156200001657600080fd5b50338060008073ffffffffffffffffffffffffffffffffffffffff168273ffffffffffffffffffffffffffffffffffffffff16036200008c576040517f08c379a00000000000000000000000000000000000000000000000000000000081526004016200008390620003d3565b60405180910390fd5b81600660006101000a81548173ffffffffffffffffffffffffffffffffffffffff021916908373ffffffffffffffffffffffffffffffffffffffff160217905550600073ffffffffffffffffffffffffffffffffffffffff168173ffffffffffffffffffffffffffffffffffffffff161462000114576200011381620001b960201b60201c565b5b5050506200013c73779877a7b0d9e8603169ddbd7836e478b4624789620002ea60201b60201c565b62000161736090149792daaee9d1d568c9f9a6f6b46aa29efd6200032e60201b60201c565b7f3533663937353539323063643435316138666534366635303837343638333935600881905550600a670de0b6b3a76400006001620001a191906200042e565b620001ad9190620004a8565b60098190555062000552565b3373ffffffffffffffffffffffffffffffffffffffff168173ffffffffffffffffffffffffffffffffffffffff16036200022a576040517f08c379a0000000000000000000000000000000000000000000000000000000008152600401620002219062000530565b60405180910390fd5b80600760006101000a81548173ffffffffffffffffffffffffffffffffffffffff021916908373ffffffffffffffffffffffffffffffffffffffff1602179055508073ffffffffffffffffffffffffffffffffffffffff16600660009054906101000a900473ffffffffffffffffffffffffffffffffffffffff1673ffffffffffffffffffffffffffffffffffffffff167fed8889f560326eb138920d842192f0eb3dd22b4f139c87a2c57538e05bae127860405160405180910390a350565b80600260006101000a81548173ffffffffffffffffffffffffffffffffffffffff021916908373ffffffffffffffffffffffffffffffffffffffff16021790555050565b80600360006101000a81548173ffffffffffffffffffffffffffffffffffffffff021916908373ffffffffffffffffffffffffffffffffffffffff16021790555050565b600082825260208201905092915050565b7f43616e6e6f7420736574206f776e657220746f207a65726f0000000000000000600082015250565b6000620003bb60188362000372565b9150620003c88262000383565b602082019050919050565b60006020820190508181036000830152620003ee81620003ac565b9050919050565b6000819050919050565b7f4e487b7100000000000000000000000000000000000000000000000000000000600052601160045260246000fd5b60006200043b82620003f5565b91506200044883620003f5565b92508282026200045881620003f5565b91508282048414831517620004725762000471620003ff565b5b5092915050565b7f4e487b7100000000000000000000000000000000000000000000000000000000600052601260045260246000fd5b6000620004b582620003f5565b9150620004c283620003f5565b925082620004d557620004d462000479565b5b828204905092915050565b7f43616e6e6f74207472616e7366657220746f2073656c66000000000000000000600082015250565b60006200051860178362000372565b91506200052582620004e0565b602082019050919050565b600060208201905081810360008301526200054b8162000509565b9050919050565b611f3980620005626000396000f3fe608060405234801561001057600080fd5b50600436106100935760003560e01c80638dc654a2116100665780638dc654a2146100e8578063a28d57d8146100f2578063d63a6ccd14610110578063f2fde38b1461012e578063fda4417b1461014a57610093565b80634a3afb47146100985780637439ae59146100a257806379ba5097146100c05780638da5cb5b146100ca575b600080fd5b6100a0610166565b005b6100aa610431565b6040516100b79190611383565b60405180910390f35b6100c8610437565b005b6100d26105ce565b6040516100df91906113df565b60405180910390f35b6100f06105f8565b005b6100fa610745565b6040516101079190611383565b60405180910390f35b61011861074b565b6040516101259190611383565b60405180910390f35b6101486004803603810190610143919061142b565b610751565b005b610164600480360381019061015f91906114ba565b610765565b005b600061017c6008543063fda4417b60e01b6108c2565b90506101e06040518060400160405280600681526020017f75726c42544300000000000000000000000000000000000000000000000000008152506040518060600160405280603f8152602001611e86603f9139836108f39092919063ffffffff16565b61025f6040518060400160405280600781526020017f70617468425443000000000000000000000000000000000000000000000000008152506040518060400160405280600381526020017f4254430000000000000000000000000000000000000000000000000000000000815250836108f39092919063ffffffff16565b6102c16040518060400160405280600681526020017f75726c55534400000000000000000000000000000000000000000000000000008152506040518060600160405280603f8152602001611e47603f9139836108f39092919063ffffffff16565b6103406040518060400160405280600781526020017f70617468555344000000000000000000000000000000000000000000000000008152506040518060400160405280600381526020017f5553440000000000000000000000000000000000000000000000000000000000815250836108f39092919063ffffffff16565b6103a26040518060400160405280600681526020017f75726c45555200000000000000000000000000000000000000000000000000008152506040518060600160405280603f8152602001611ec5603f9139836108f39092919063ffffffff16565b6104216040518060400160405280600781526020017f70617468455552000000000000000000000000000000000000000000000000008152506040518060400160405280600381526020017f4555520000000000000000000000000000000000000000000000000000000000815250836108f39092919063ffffffff16565b61042d81600954610926565b5050565b600c5481565b600760009054906101000a900473ffffffffffffffffffffffffffffffffffffffff1673ffffffffffffffffffffffffffffffffffffffff163373ffffffffffffffffffffffffffffffffffffffff16146104c7576040517f08c379a00000000000000000000000000000000000000000000000000000000081526004016104be9061157e565b60405180910390fd5b6000600660009054906101000a900473ffffffffffffffffffffffffffffffffffffffff16905033600660006101000a81548173ffffffffffffffffffffffffffffffffffffffff021916908373ffffffffffffffffffffffffffffffffffffffff1602179055506000600760006101000a81548173ffffffffffffffffffffffffffffffffffffffff021916908373ffffffffffffffffffffffffffffffffffffffff1602179055503373ffffffffffffffffffffffffffffffffffffffff168173ffffffffffffffffffffffffffffffffffffffff167f8be0079c531659141344cd1fd0a4f28419497f9722a3daafe3b4186f6b6457e060405160405180910390a350565b6000600660009054906101000a900473ffffffffffffffffffffffffffffffffffffffff16905090565b61060061095d565b600061060a6109ef565b90508073ffffffffffffffffffffffffffffffffffffffff1663a9059cbb338373ffffffffffffffffffffffffffffffffffffffff166370a08231306040518263ffffffff1660e01b815260040161066291906113df565b602060405180830381865afa15801561067f573d6000803e3d6000fd5b505050506040513d601f19601f820116820180604052508101906106a391906115b3565b6040518363ffffffff1660e01b81526004016106c09291906115e0565b6020604051808303816000875af11580156106df573d6000803e3d6000fd5b505050506040513d601f19601f820116820180604052508101906107039190611641565b610742576040517f08c379a0000000000000000000000000000000000000000000000000000000008152600401610739906116ba565b60405180910390fd5b50565b600a5481565b600b5481565b61075961095d565b61076281610a19565b50565b836005600082815260200190815260200160002060009054906101000a900473ffffffffffffffffffffffffffffffffffffffff1673ffffffffffffffffffffffffffffffffffffffff163373ffffffffffffffffffffffffffffffffffffffff1614610807576040517f08c379a00000000000000000000000000000000000000000000000000000000081526004016107fe9061174c565b60405180910390fd5b6005600082815260200190815260200160002060006101000a81549073ffffffffffffffffffffffffffffffffffffffff0219169055807f7cc135e0cebb02c3480ae5d74d377283180a2601f8f644edf7987b009316c63a60405160405180910390a2847fd8422588c680817fe4971ef8a5fe6a6b5df0d7cd4537eabef7fb17750e4187a785858560405161089e9392919061176c565b60405180910390a283600a8190555082600b8190555081600c819055505050505050565b6108ca6112e3565b6108d26112e3565b6108e985858584610b47909392919063ffffffff16565b9150509392505050565b61090a828460800151610bf790919063ffffffff16565b610921818460800151610bf790919063ffffffff16565b505050565b6000610955600360009054906101000a900473ffffffffffffffffffffffffffffffffffffffff168484610c1c565b905092915050565b600660009054906101000a900473ffffffffffffffffffffffffffffffffffffffff1673ffffffffffffffffffffffffffffffffffffffff163373ffffffffffffffffffffffffffffffffffffffff16146109ed576040517f08c379a00000000000000000000000000000000000000000000000000000000081526004016109e4906117ef565b60405180910390fd5b565b6000600260009054906101000a900473ffffffffffffffffffffffffffffffffffffffff16905090565b3373ffffffffffffffffffffffffffffffffffffffff168173ffffffffffffffffffffffffffffffffffffffff1603610a87576040517f08c379a0000000000000000000000000000000000000000000000000000000008152600401610a7e9061185b565b60405180910390fd5b80600760006101000a81548173ffffffffffffffffffffffffffffffffffffffff021916908373ffffffffffffffffffffffffffffffffffffffff1602179055508073ffffffffffffffffffffffffffffffffffffffff16600660009054906101000a900473ffffffffffffffffffffffffffffffffffffffff1673ffffffffffffffffffffffffffffffffffffffff167fed8889f560326eb138920d842192f0eb3dd22b4f139c87a2c57538e05bae127860405160405180910390a350565b610b4f6112e3565b610b5f8560800151610100610ce8565b508385600001818152505082856020019073ffffffffffffffffffffffffffffffffffffffff16908173ffffffffffffffffffffffffffffffffffffffff16815250508185604001907bffffffffffffffffffffffffffffffffffffffffffffffffffffffff191690817bffffffffffffffffffffffffffffffffffffffffffffffffffffffff191681525050849050949350505050565b610c048260038351610d52565b610c178183610ed790919063ffffffff16565b505050565b6000806004549050600181610c3191906118aa565b6004819055506000634042994660e01b60008087600001513089604001518760018c6080015160000151604051602401610c729897969594939291906119b8565b604051602081830303815290604052907bffffffffffffffffffffffffffffffffffffffffffffffffffffffff19166020820180517bffffffffffffffffffffffffffffffffffffffffffffffffffffffff83818316178352505050509050610cdd86838684610ef9565b925050509392505050565b610cf0611350565b6000602083610cff9190611a6c565b14610d2b57602082610d119190611a6c565b6020610d1d9190611a9d565b82610d2891906118aa565b91505b81836020018181525050604051808452600081528281016020016040525082905092915050565b60178167ffffffffffffffff1611610d8957610d838160058460ff16901b60ff16178461108e90919063ffffffff16565b50610ed2565b60ff8167ffffffffffffffff1611610ddf57610db8601860058460ff16901b178461108e90919063ffffffff16565b50610dd98167ffffffffffffffff166001856110ae9092919063ffffffff16565b50610ed1565b61ffff8167ffffffffffffffff1611610e3657610e0f601960058460ff16901b178461108e90919063ffffffff16565b50610e308167ffffffffffffffff166002856110ae9092919063ffffffff16565b50610ed0565b63ffffffff8167ffffffffffffffff1611610e8f57610e68601a60058460ff16901b178461108e90919063ffffffff16565b50610e898167ffffffffffffffff166004856110ae9092919063ffffffff16565b50610ecf565b610eac601b60058460ff16901b178461108e90919063ffffffff16565b50610ecd8167ffffffffffffffff166008856110ae9092919063ffffffff16565b505b5b5b5b505050565b610edf611350565b610ef1838460000151518485516110d0565b905092915050565b60003084604051602001610f0e929190611b8a565b604051602081830303815290604052805190602001209050846005600083815260200190815260200160002060006101000a81548173ffffffffffffffffffffffffffffffffffffffff021916908373ffffffffffffffffffffffffffffffffffffffff160217905550807fb5e6e01e79f91267dc17b4e6314d5d4d03593d2ceee0fbb452b750bd70ea5af960405160405180910390a2600260009054906101000a900473ffffffffffffffffffffffffffffffffffffffff1673ffffffffffffffffffffffffffffffffffffffff16634000aea08685856040518463ffffffff1660e01b815260040161100493929190611bb6565b6020604051808303816000875af1158015611023573d6000803e3d6000fd5b505050506040513d601f19601f820116820180604052508101906110479190611641565b611086576040517f08c379a000000000000000000000000000000000000000000000000000000000815260040161107d90611c66565b60405180910390fd5b949350505050565b611096611350565b6110a683846000015151846111bf565b905092915050565b6110b6611350565b6110c7848560000151518585611215565b90509392505050565b6110d8611350565b82518211156110e657600080fd5b846020015182856110f791906118aa565b111561112c5761112b85600261111c8860200151888761111791906118aa565b6112a3565b6111269190611c86565b6112bf565b5b60008086518051876020830101935080888701111561114b5787860182525b60208701925050505b60208410611192578051825260208261116d91906118aa565b915060208161117c91906118aa565b905060208461118b9190611a9d565b9350611154565b60006001856020036101000a03905080198251168184511681811785525050508692505050949350505050565b6111c7611350565b836020015183106111ed576111ec84600286602001516111e79190611c86565b6112bf565b5b83518051602085830101848153818603611208576001820183525b5050508390509392505050565b61121d611350565b8460200151848361122e91906118aa565b111561125657611255856002868561124691906118aa565b6112509190611c86565b6112bf565b5b60006001836101006112689190611dfb565b6112729190611a9d565b905085518386820101858319825116178152815185880111156112955784870182525b505085915050949350505050565b6000818311156112b5578290506112b9565b8190505b92915050565b6000826000015190506112d28383610ce8565b506112dd8382610ed7565b50505050565b6040518060a0016040528060008019168152602001600073ffffffffffffffffffffffffffffffffffffffff16815260200160007bffffffffffffffffffffffffffffffffffffffffffffffffffffffff191681526020016000815260200161134a611350565b81525090565b604051806040016040528060608152602001600081525090565b6000819050919050565b61137d8161136a565b82525050565b60006020820190506113986000830184611374565b92915050565b600073ffffffffffffffffffffffffffffffffffffffff82169050919050565b60006113c98261139e565b9050919050565b6113d9816113be565b82525050565b60006020820190506113f460008301846113d0565b92915050565b600080fd5b611408816113be565b811461141357600080fd5b50565b600081359050611425816113ff565b92915050565b600060208284031215611441576114406113fa565b5b600061144f84828501611416565b91505092915050565b6000819050919050565b61146b81611458565b811461147657600080fd5b50565b60008135905061148881611462565b92915050565b6114978161136a565b81146114a257600080fd5b50565b6000813590506114b48161148e565b92915050565b600080600080608085870312156114d4576114d36113fa565b5b60006114e287828801611479565b94505060206114f3878288016114a5565b9350506040611504878288016114a5565b9250506060611515878288016114a5565b91505092959194509250565b600082825260208201905092915050565b7f4d7573742062652070726f706f736564206f776e657200000000000000000000600082015250565b6000611568601683611521565b915061157382611532565b602082019050919050565b600060208201905081810360008301526115978161155b565b9050919050565b6000815190506115ad8161148e565b92915050565b6000602082840312156115c9576115c86113fa565b5b60006115d78482850161159e565b91505092915050565b60006040820190506115f560008301856113d0565b6116026020830184611374565b9392505050565b60008115159050919050565b61161e81611609565b811461162957600080fd5b50565b60008151905061163b81611615565b92915050565b600060208284031215611657576116566113fa565b5b60006116658482850161162c565b91505092915050565b7f556e61626c6520746f207472616e736665720000000000000000000000000000600082015250565b60006116a4601283611521565b91506116af8261166e565b602082019050919050565b600060208201905081810360008301526116d381611697565b9050919050565b7f536f75726365206d75737420626520746865206f7261636c65206f662074686560008201527f2072657175657374000000000000000000000000000000000000000000000000602082015250565b6000611736602883611521565b9150611741826116da565b604082019050919050565b6000602082019050818103600083015261176581611729565b9050919050565b60006060820190506117816000830186611374565b61178e6020830185611374565b61179b6040830184611374565b949350505050565b7f4f6e6c792063616c6c61626c65206279206f776e657200000000000000000000600082015250565b60006117d9601683611521565b91506117e4826117a3565b602082019050919050565b60006020820190508181036000830152611808816117cc565b9050919050565b7f43616e6e6f74207472616e7366657220746f2073656c66000000000000000000600082015250565b6000611845601783611521565b91506118508261180f565b602082019050919050565b6000602082019050818103600083015261187481611838565b9050919050565b7f4e487b7100000000000000000000000000000000000000000000000000000000600052601160045260246000fd5b60006118b58261136a565b91506118c08361136a565b92508282019050808211156118d8576118d761187b565b5b92915050565b6118e781611458565b82525050565b60007fffffffff0000000000000000000000000000000000000000000000000000000082169050919050565b611922816118ed565b82525050565b600081519050919050565b600082825260208201905092915050565b60005b83811015611962578082015181840152602081019050611947565b60008484015250505050565b6000601f19601f8301169050919050565b600061198a82611928565b6119948185611933565b93506119a4818560208601611944565b6119ad8161196e565b840191505092915050565b6000610100820190506119ce600083018b6113d0565b6119db602083018a611374565b6119e860408301896118de565b6119f560608301886113d0565b611a026080830187611919565b611a0f60a0830186611374565b611a1c60c0830185611374565b81810360e0830152611a2e818461197f565b90509998505050505050505050565b7f4e487b7100000000000000000000000000000000000000000000000000000000600052601260045260246000fd5b6000611a778261136a565b9150611a828361136a565b925082611a9257611a91611a3d565b5b828206905092915050565b6000611aa88261136a565b9150611ab38361136a565b9250828203905081811115611acb57611aca61187b565b5b92915050565b6000819050919050565b6000611af6611af1611aec8461139e565b611ad1565b61139e565b9050919050565b6000611b0882611adb565b9050919050565b6000611b1a82611afd565b9050919050565b60008160601b9050919050565b6000611b3982611b21565b9050919050565b6000611b4b82611b2e565b9050919050565b611b63611b5e82611b0f565b611b40565b82525050565b6000819050919050565b611b84611b7f8261136a565b611b69565b82525050565b6000611b968285611b52565b601482019150611ba68284611b73565b6020820191508190509392505050565b6000606082019050611bcb60008301866113d0565b611bd86020830185611374565b8181036040830152611bea818461197f565b9050949350505050565b7f756e61626c6520746f207472616e73666572416e6443616c6c20746f206f726160008201527f636c650000000000000000000000000000000000000000000000000000000000602082015250565b6000611c50602383611521565b9150611c5b82611bf4565b604082019050919050565b60006020820190508181036000830152611c7f81611c43565b9050919050565b6000611c918261136a565b9150611c9c8361136a565b9250828202611caa8161136a565b91508282048414831517611cc157611cc061187b565b5b5092915050565b60008160011c9050919050565b6000808291508390505b6001851115611d1f57808604811115611cfb57611cfa61187b565b5b6001851615611d0a5780820291505b8081029050611d1885611cc8565b9450611cdf565b94509492505050565b600082611d385760019050611df4565b81611d465760009050611df4565b8160018114611d5c5760028114611d6657611d95565b6001915050611df4565b60ff841115611d7857611d7761187b565b5b8360020a915084821115611d8f57611d8e61187b565b5b50611df4565b5060208310610133831016604e8410600b8410161715611dca5782820a905083811115611dc557611dc461187b565b5b611df4565b611dd78484846001611cd5565b92509050818404811115611dee57611ded61187b565b5b81810290505b9392505050565b6000611e068261136a565b9150611e118361136a565b9250611e3e7fffffffffffffffffffffffffffffffffffffffffffffffffffffffffffffffff8484611d28565b90509291505056fe68747470733a2f2f6d696e2d6170692e63727970746f636f6d706172652e636f6d2f646174612f70726963653f6673796d3d455448267473796d733d55534468747470733a2f2f6d696e2d6170692e63727970746f636f6d706172652e636f6d2f646174612f70726963653f6673796d3d455448267473796d733d42544368747470733a2f2f6d696e2d6170692e63727970746f636f6d706172652e636f6d2f646174612f70726963653f6673796d3d455448267473796d733d455552a26469706673582212203d447d9090e8042e7a60bc62e10326d773a4fbd9518f1fa9103aad886370ee1164736f6c63430008120033",
			"opcodes": "PUSH1 0x80 PUSH1 0x40 MSTORE PUSH1 0x1 PUSH1 0x4 SSTORE CALLVALUE DUP1 ISZERO PUSH3 0x16 JUMPI PUSH1 0x0 DUP1 REVERT JUMPDEST POP CALLER DUP1 PUSH1 0x0 DUP1 PUSH20 0xFFFFFFFFFFFFFFFFFFFFFFFFFFFFFFFFFFFFFFFF AND DUP3 PUSH20 0xFFFFFFFFFFFFFFFFFFFFFFFFFFFFFFFFFFFFFFFF AND SUB PUSH3 0x8C JUMPI PUSH1 0x40 MLOAD PUSH32 0x8C379A000000000000000000000000000000000000000000000000000000000 DUP2 MSTORE PUSH1 0x4 ADD PUSH3 0x83 SWAP1 PUSH3 0x3D3 JUMP JUMPDEST PUSH1 0x40 MLOAD DUP1 SWAP2 SUB SWAP1 REVERT JUMPDEST DUP2 PUSH1 0x6 PUSH1 0x0 PUSH2 0x100 EXP DUP2 SLOAD DUP2 PUSH20 0xFFFFFFFFFFFFFFFFFFFFFFFFFFFFFFFFFFFFFFFF MUL NOT AND SWAP1 DUP4 PUSH20 0xFFFFFFFFFFFFFFFFFFFFFFFFFFFFFFFFFFFFFFFF AND MUL OR SWAP1 SSTORE POP PUSH1 0x0 PUSH20 0xFFFFFFFFFFFFFFFFFFFFFFFFFFFFFFFFFFFFFFFF AND DUP2 PUSH20 0xFFFFFFFFFFFFFFFFFFFFFFFFFFFFFFFFFFFFFFFF AND EQ PUSH3 0x114 JUMPI PUSH3 0x113 DUP2 PUSH3 0x1B9 PUSH1 0x20 SHL PUSH1 0x20 SHR JUMP JUMPDEST JUMPDEST POP POP POP PUSH3 0x13C PUSH20 0x779877A7B0D9E8603169DDBD7836E478B4624789 PUSH3 0x2EA PUSH1 0x20 SHL PUSH1 0x20 SHR JUMP JUMPDEST PUSH3 0x161 PUSH20 0x6090149792DAAEE9D1D568C9F9A6F6B46AA29EFD PUSH3 0x32E PUSH1 0x20 SHL PUSH1 0x20 SHR JUMP JUMPDEST PUSH32 0x3533663937353539323063643435316138666534366635303837343638333935 PUSH1 0x8 DUP2 SWAP1 SSTORE POP PUSH1 0xA PUSH8 0xDE0B6B3A7640000 PUSH1 0x1 PUSH3 0x1A1 SWAP2 SWAP1 PUSH3 0x42E JUMP JUMPDEST PUSH3 0x1AD SWAP2 SWAP1 PUSH3 0x4A8 JUMP JUMPDEST PUSH1 0x9 DUP2 SWAP1 SSTORE POP PUSH3 0x552 JUMP JUMPDEST CALLER PUSH20 0xFFFFFFFFFFFFFFFFFFFFFFFFFFFFFFFFFFFFFFFF AND DUP2 PUSH20 0xFFFFFFFFFFFFFFFFFFFFFFFFFFFFFFFFFFFFFFFF AND SUB PUSH3 0x22A JUMPI PUSH1 0x40 MLOAD PUSH32 0x8C379A000000000000000000000000000000000000000000000000000000000 DUP2 MSTORE PUSH1 0x4 ADD PUSH3 0x221 SWAP1 PUSH3 0x530 JUMP JUMPDEST PUSH1 0x40 MLOAD DUP1 SWAP2 SUB SWAP1 REVERT JUMPDEST DUP1 PUSH1 0x7 PUSH1 0x0 PUSH2 0x100 EXP DUP2 SLOAD DUP2 PUSH20 0xFFFFFFFFFFFFFFFFFFFFFFFFFFFFFFFFFFFFFFFF MUL NOT AND SWAP1 DUP4 PUSH20 0xFFFFFFFFFFFFFFFFFFFFFFFFFFFFFFFFFFFFFFFF AND MUL OR SWAP1 SSTORE POP DUP1 PUSH20 0xFFFFFFFFFFFFFFFFFFFFFFFFFFFFFFFFFFFFFFFF AND PUSH1 0x6 PUSH1 0x0 SWAP1 SLOAD SWAP1 PUSH2 0x100 EXP SWAP1 DIV PUSH20 0xFFFFFFFFFFFFFFFFFFFFFFFFFFFFFFFFFFFFFFFF AND PUSH20 0xFFFFFFFFFFFFFFFFFFFFFFFFFFFFFFFFFFFFFFFF AND PUSH32 0xED8889F560326EB138920D842192F0EB3DD22B4F139C87A2C57538E05BAE1278 PUSH1 0x40 MLOAD PUSH1 0x40 MLOAD DUP1 SWAP2 SUB SWAP1 LOG3 POP JUMP JUMPDEST DUP1 PUSH1 0x2 PUSH1 0x0 PUSH2 0x100 EXP DUP2 SLOAD DUP2 PUSH20 0xFFFFFFFFFFFFFFFFFFFFFFFFFFFFFFFFFFFFFFFF MUL NOT AND SWAP1 DUP4 PUSH20 0xFFFFFFFFFFFFFFFFFFFFFFFFFFFFFFFFFFFFFFFF AND MUL OR SWAP1 SSTORE POP POP JUMP JUMPDEST DUP1 PUSH1 0x3 PUSH1 0x0 PUSH2 0x100 EXP DUP2 SLOAD DUP2 PUSH20 0xFFFFFFFFFFFFFFFFFFFFFFFFFFFFFFFFFFFFFFFF MUL NOT AND SWAP1 DUP4 PUSH20 0xFFFFFFFFFFFFFFFFFFFFFFFFFFFFFFFFFFFFFFFF AND MUL OR SWAP1 SSTORE POP POP JUMP JUMPDEST PUSH1 0x0 DUP3 DUP3 MSTORE PUSH1 0x20 DUP3 ADD SWAP1 POP SWAP3 SWAP2 POP POP JUMP JUMPDEST PUSH32 0x43616E6E6F7420736574206F776E657220746F207A65726F0000000000000000 PUSH1 0x0 DUP3 ADD MSTORE POP JUMP JUMPDEST PUSH1 0x0 PUSH3 0x3BB PUSH1 0x18 DUP4 PUSH3 0x372 JUMP JUMPDEST SWAP2 POP PUSH3 0x3C8 DUP3 PUSH3 0x383 JUMP JUMPDEST PUSH1 0x20 DUP3 ADD SWAP1 POP SWAP2 SWAP1 POP JUMP JUMPDEST PUSH1 0x0 PUSH1 0x20 DUP3 ADD SWAP1 POP DUP2 DUP2 SUB PUSH1 0x0 DUP4 ADD MSTORE PUSH3 0x3EE DUP2 PUSH3 0x3AC JUMP JUMPDEST SWAP1 POP SWAP2 SWAP1 POP JUMP JUMPDEST PUSH1 0x0 DUP2 SWAP1 POP SWAP2 SWAP1 POP JUMP JUMPDEST PUSH32 0x4E487B7100000000000000000000000000000000000000000000000000000000 PUSH1 0x0 MSTORE PUSH1 0x11 PUSH1 0x4 MSTORE PUSH1 0x24 PUSH1 0x0 REVERT JUMPDEST PUSH1 0x0 PUSH3 0x43B DUP3 PUSH3 0x3F5 JUMP JUMPDEST SWAP2 POP PUSH3 0x448 DUP4 PUSH3 0x3F5 JUMP JUMPDEST SWAP3 POP DUP3 DUP3 MUL PUSH3 0x458 DUP2 PUSH3 0x3F5 JUMP JUMPDEST SWAP2 POP DUP3 DUP3 DIV DUP5 EQ DUP4 ISZERO OR PUSH3 0x472 JUMPI PUSH3 0x471 PUSH3 0x3FF JUMP JUMPDEST JUMPDEST POP SWAP3 SWAP2 POP POP JUMP JUMPDEST PUSH32 0x4E487B7100000000000000000000000000000000000000000000000000000000 PUSH1 0x0 MSTORE PUSH1 0x12 PUSH1 0x4 MSTORE PUSH1 0x24 PUSH1 0x0 REVERT JUMPDEST PUSH1 0x0 PUSH3 0x4B5 DUP3 PUSH3 0x3F5 JUMP JUMPDEST SWAP2 POP PUSH3 0x4C2 DUP4 PUSH3 0x3F5 JUMP JUMPDEST SWAP3 POP DUP3 PUSH3 0x4D5 JUMPI PUSH3 0x4D4 PUSH3 0x479 JUMP JUMPDEST JUMPDEST DUP3 DUP3 DIV SWAP1 POP SWAP3 SWAP2 POP POP JUMP JUMPDEST PUSH32 0x43616E6E6F74207472616E7366657220746F2073656C66000000000000000000 PUSH1 0x0 DUP3 ADD MSTORE POP JUMP JUMPDEST PUSH1 0x0 PUSH3 0x518 PUSH1 0x17 DUP4 PUSH3 0x372 JUMP JUMPDEST SWAP2 POP PUSH3 0x525 DUP3 PUSH3 0x4E0 JUMP JUMPDEST PUSH1 0x20 DUP3 ADD SWAP1 POP SWAP2 SWAP1 POP JUMP JUMPDEST PUSH1 0x0 PUSH1 0x20 DUP3 ADD SWAP1 POP DUP2 DUP2 SUB PUSH1 0x0 DUP4 ADD MSTORE PUSH3 0x54B DUP2 PUSH3 0x509 JUMP JUMPDEST SWAP1 POP SWAP2 SWAP1 POP JUMP JUMPDEST PUSH2 0x1F39 DUP1 PUSH3 0x562 PUSH1 0x0 CODECOPY PUSH1 0x0 RETURN INVALID PUSH1 0x80 PUSH1 0x40 MSTORE CALLVALUE DUP1 ISZERO PUSH2 0x10 JUMPI PUSH1 0x0 DUP1 REVERT JUMPDEST POP PUSH1 0x4 CALLDATASIZE LT PUSH2 0x93 JUMPI PUSH1 0x0 CALLDATALOAD PUSH1 0xE0 SHR DUP1 PUSH4 0x8DC654A2 GT PUSH2 0x66 JUMPI DUP1 PUSH4 0x8DC654A2 EQ PUSH2 0xE8 JUMPI DUP1 PUSH4 0xA28D57D8 EQ PUSH2 0xF2 JUMPI DUP1 PUSH4 0xD63A6CCD EQ PUSH2 0x110 JUMPI DUP1 PUSH4 0xF2FDE38B EQ PUSH2 0x12E JUMPI DUP1 PUSH4 0xFDA4417B EQ PUSH2 0x14A JUMPI PUSH2 0x93 JUMP JUMPDEST DUP1 PUSH4 0x4A3AFB47 EQ PUSH2 0x98 JUMPI DUP1 PUSH4 0x7439AE59 EQ PUSH2 0xA2 JUMPI DUP1 PUSH4 0x79BA5097 EQ PUSH2 0xC0 JUMPI DUP1 PUSH4 0x8DA5CB5B EQ PUSH2 0xCA JUMPI JUMPDEST PUSH1 0x0 DUP1 REVERT JUMPDEST PUSH2 0xA0 PUSH2 0x166 JUMP JUMPDEST STOP JUMPDEST PUSH2 0xAA PUSH2 0x431 JUMP JUMPDEST PUSH1 0x40 MLOAD PUSH2 0xB7 SWAP2 SWAP1 PUSH2 0x1383 JUMP JUMPDEST PUSH1 0x40 MLOAD DUP1 SWAP2 SUB SWAP1 RETURN JUMPDEST PUSH2 0xC8 PUSH2 0x437 JUMP JUMPDEST STOP JUMPDEST PUSH2 0xD2 PUSH2 0x5CE JUMP JUMPDEST PUSH1 0x40 MLOAD PUSH2 0xDF SWAP2 SWAP1 PUSH2 0x13DF JUMP JUMPDEST PUSH1 0x40 MLOAD DUP1 SWAP2 SUB SWAP1 RETURN JUMPDEST PUSH2 0xF0 PUSH2 0x5F8 JUMP JUMPDEST STOP JUMPDEST PUSH2 0xFA PUSH2 0x745 JUMP JUMPDEST PUSH1 0x40 MLOAD PUSH2 0x107 SWAP2 SWAP1 PUSH2 0x1383 JUMP JUMPDEST PUSH1 0x40 MLOAD DUP1 SWAP2 SUB SWAP1 RETURN JUMPDEST PUSH2 0x118 PUSH2 0x74B JUMP JUMPDEST PUSH1 0x40 MLOAD PUSH2 0x125 SWAP2 SWAP1 PUSH2 0x1383 JUMP JUMPDEST PUSH1 0x40 MLOAD DUP1 SWAP2 SUB SWAP1 RETURN JUMPDEST PUSH2 0x148 PUSH1 0x4 DUP1 CALLDATASIZE SUB DUP2 ADD SWAP1 PUSH2 0x143 SWAP2 SWAP1 PUSH2 0x142B JUMP JUMPDEST PUSH2 0x751 JUMP JUMPDEST STOP JUMPDEST PUSH2 0x164 PUSH1 0x4 DUP1 CALLDATASIZE SUB DUP2 ADD SWAP1 PUSH2 0x15F SWAP2 SWAP1 PUSH2 0x14BA JUMP JUMPDEST PUSH2 0x765 JUMP JUMPDEST STOP JUMPDEST PUSH1 0x0 PUSH2 0x17C PUSH1 0x8 SLOAD ADDRESS PUSH4 0xFDA4417B PUSH1 0xE0 SHL PUSH2 0x8C2 JUMP JUMPDEST SWAP1 POP PUSH2 0x1E0 PUSH1 0x40 MLOAD DUP1 PUSH1 0x40 ADD PUSH1 0x40 MSTORE DUP1 PUSH1 0x6 DUP2 MSTORE PUSH1 0x20 ADD PUSH32 0x75726C4254430000000000000000000000000000000000000000000000000000 DUP2 MSTORE POP PUSH1 0x40 MLOAD DUP1 PUSH1 0x60 ADD PUSH1 0x40 MSTORE DUP1 PUSH1 0x3F DUP2 MSTORE PUSH1 0x20 ADD PUSH2 0x1E86 PUSH1 0x3F SWAP2 CODECOPY DUP4 PUSH2 0x8F3 SWAP1 SWAP3 SWAP2 SWAP1 PUSH4 0xFFFFFFFF AND JUMP JUMPDEST PUSH2 0x25F PUSH1 0x40 MLOAD DUP1 PUSH1 0x40 ADD PUSH1 0x40 MSTORE DUP1 PUSH1 0x7 DUP2 MSTORE PUSH1 0x20 ADD PUSH32 0x7061746842544300000000000000000000000000000000000000000000000000 DUP2 MSTORE POP PUSH1 0x40 MLOAD DUP1 PUSH1 0x40 ADD PUSH1 0x40 MSTORE DUP1 PUSH1 0x3 DUP2 MSTORE PUSH1 0x20 ADD PUSH32 0x4254430000000000000000000000000000000000000000000000000000000000 DUP2 MSTORE POP DUP4 PUSH2 0x8F3 SWAP1 SWAP3 SWAP2 SWAP1 PUSH4 0xFFFFFFFF AND JUMP JUMPDEST PUSH2 0x2C1 PUSH1 0x40 MLOAD DUP1 PUSH1 0x40 ADD PUSH1 0x40 MSTORE DUP1 PUSH1 0x6 DUP2 MSTORE PUSH1 0x20 ADD PUSH32 0x75726C5553440000000000000000000000000000000000000000000000000000 DUP2 MSTORE POP PUSH1 0x40 MLOAD DUP1 PUSH1 0x60 ADD PUSH1 0x40 MSTORE DUP1 PUSH1 0x3F DUP2 MSTORE PUSH1 0x20 ADD PUSH2 0x1E47 PUSH1 0x3F SWAP2 CODECOPY DUP4 PUSH2 0x8F3 SWAP1 SWAP3 SWAP2 SWAP1 PUSH4 0xFFFFFFFF AND JUMP JUMPDEST PUSH2 0x340 PUSH1 0x40 MLOAD DUP1 PUSH1 0x40 ADD PUSH1 0x40 MSTORE DUP1 PUSH1 0x7 DUP2 MSTORE PUSH1 0x20 ADD PUSH32 0x7061746855534400000000000000000000000000000000000000000000000000 DUP2 MSTORE POP PUSH1 0x40 MLOAD DUP1 PUSH1 0x40 ADD PUSH1 0x40 MSTORE DUP1 PUSH1 0x3 DUP2 MSTORE PUSH1 0x20 ADD PUSH32 0x5553440000000000000000000000000000000000000000000000000000000000 DUP2 MSTORE POP DUP4 PUSH2 0x8F3 SWAP1 SWAP3 SWAP2 SWAP1 PUSH4 0xFFFFFFFF AND JUMP JUMPDEST PUSH2 0x3A2 PUSH1 0x40 MLOAD DUP1 PUSH1 0x40 ADD PUSH1 0x40 MSTORE DUP1 PUSH1 0x6 DUP2 MSTORE PUSH1 0x20 ADD PUSH32 0x75726C4555520000000000000000000000000000000000000000000000000000 DUP2 MSTORE POP PUSH1 0x40 MLOAD DUP1 PUSH1 0x60 ADD PUSH1 0x40 MSTORE DUP1 PUSH1 0x3F DUP2 MSTORE PUSH1 0x20 ADD PUSH2 0x1EC5 PUSH1 0x3F SWAP2 CODECOPY DUP4 PUSH2 0x8F3 SWAP1 SWAP3 SWAP2 SWAP1 PUSH4 0xFFFFFFFF AND JUMP JUMPDEST PUSH2 0x421 PUSH1 0x40 MLOAD DUP1 PUSH1 0x40 ADD PUSH1 0x40 MSTORE DUP1 PUSH1 0x7 DUP2 MSTORE PUSH1 0x20 ADD PUSH32 0x7061746845555200000000000000000000000000000000000000000000000000 DUP2 MSTORE POP PUSH1 0x40 MLOAD DUP1 PUSH1 0x40 ADD PUSH1 0x40 MSTORE DUP1 PUSH1 0x3 DUP2 MSTORE PUSH1 0x20 ADD PUSH32 0x4555520000000000000000000000000000000000000000000000000000000000 DUP2 MSTORE POP DUP4 PUSH2 0x8F3 SWAP1 SWAP3 SWAP2 SWAP1 PUSH4 0xFFFFFFFF AND JUMP JUMPDEST PUSH2 0x42D DUP2 PUSH1 0x9 SLOAD PUSH2 0x926 JUMP JUMPDEST POP POP JUMP JUMPDEST PUSH1 0xC SLOAD DUP2 JUMP JUMPDEST PUSH1 0x7 PUSH1 0x0 SWAP1 SLOAD SWAP1 PUSH2 0x100 EXP SWAP1 DIV PUSH20 0xFFFFFFFFFFFFFFFFFFFFFFFFFFFFFFFFFFFFFFFF AND PUSH20 0xFFFFFFFFFFFFFFFFFFFFFFFFFFFFFFFFFFFFFFFF AND CALLER PUSH20 0xFFFFFFFFFFFFFFFFFFFFFFFFFFFFFFFFFFFFFFFF AND EQ PUSH2 0x4C7 JUMPI PUSH1 0x40 MLOAD PUSH32 0x8C379A000000000000000000000000000000000000000000000000000000000 DUP2 MSTORE PUSH1 0x4 ADD PUSH2 0x4BE SWAP1 PUSH2 0x157E JUMP JUMPDEST PUSH1 0x40 MLOAD DUP1 SWAP2 SUB SWAP1 REVERT JUMPDEST PUSH1 0x0 PUSH1 0x6 PUSH1 0x0 SWAP1 SLOAD SWAP1 PUSH2 0x100 EXP SWAP1 DIV PUSH20 0xFFFFFFFFFFFFFFFFFFFFFFFFFFFFFFFFFFFFFFFF AND SWAP1 POP CALLER PUSH1 0x6 PUSH1 0x0 PUSH2 0x100 EXP DUP2 SLOAD DUP2 PUSH20 0xFFFFFFFFFFFFFFFFFFFFFFFFFFFFFFFFFFFFFFFF MUL NOT AND SWAP1 DUP4 PUSH20 0xFFFFFFFFFFFFFFFFFFFFFFFFFFFFFFFFFFFFFFFF AND MUL OR SWAP1 SSTORE POP PUSH1 0x0 PUSH1 0x7 PUSH1 0x0 PUSH2 0x100 EXP DUP2 SLOAD DUP2 PUSH20 0xFFFFFFFFFFFFFFFFFFFFFFFFFFFFFFFFFFFFFFFF MUL NOT AND SWAP1 DUP4 PUSH20 0xFFFFFFFFFFFFFFFFFFFFFFFFFFFFFFFFFFFFFFFF AND MUL OR SWAP1 SSTORE POP CALLER PUSH20 0xFFFFFFFFFFFFFFFFFFFFFFFFFFFFFFFFFFFFFFFF AND DUP2 PUSH20 0xFFFFFFFFFFFFFFFFFFFFFFFFFFFFFFFFFFFFFFFF AND PUSH32 0x8BE0079C531659141344CD1FD0A4F28419497F9722A3DAAFE3B4186F6B6457E0 PUSH1 0x40 MLOAD PUSH1 0x40 MLOAD DUP1 SWAP2 SUB SWAP1 LOG3 POP JUMP JUMPDEST PUSH1 0x0 PUSH1 0x6 PUSH1 0x0 SWAP1 SLOAD SWAP1 PUSH2 0x100 EXP SWAP1 DIV PUSH20 0xFFFFFFFFFFFFFFFFFFFFFFFFFFFFFFFFFFFFFFFF AND SWAP1 POP SWAP1 JUMP JUMPDEST PUSH2 0x600 PUSH2 0x95D JUMP JUMPDEST PUSH1 0x0 PUSH2 0x60A PUSH2 0x9EF JUMP JUMPDEST SWAP1 POP DUP1 PUSH20 0xFFFFFFFFFFFFFFFFFFFFFFFFFFFFFFFFFFFFFFFF AND PUSH4 0xA9059CBB CALLER DUP4 PUSH20 0xFFFFFFFFFFFFFFFFFFFFFFFFFFFFFFFFFFFFFFFF AND PUSH4 0x70A08231 ADDRESS PUSH1 0x40 MLOAD DUP3 PUSH4 0xFFFFFFFF AND PUSH1 0xE0 SHL DUP2 MSTORE PUSH1 0x4 ADD PUSH2 0x662 SWAP2 SWAP1 PUSH2 0x13DF JUMP JUMPDEST PUSH1 0x20 PUSH1 0x40 MLOAD DUP1 DUP4 SUB DUP2 DUP7 GAS STATICCALL ISZERO DUP1 ISZERO PUSH2 0x67F JUMPI RETURNDATASIZE PUSH1 0x0 DUP1 RETURNDATACOPY RETURNDATASIZE PUSH1 0x0 REVERT JUMPDEST POP POP POP POP PUSH1 0x40 MLOAD RETURNDATASIZE PUSH1 0x1F NOT PUSH1 0x1F DUP3 ADD AND DUP3 ADD DUP1 PUSH1 0x40 MSTORE POP DUP2 ADD SWAP1 PUSH2 0x6A3 SWAP2 SWAP1 PUSH2 0x15B3 JUMP JUMPDEST PUSH1 0x40 MLOAD DUP4 PUSH4 0xFFFFFFFF AND PUSH1 0xE0 SHL DUP2 MSTORE PUSH1 0x4 ADD PUSH2 0x6C0 SWAP3 SWAP2 SWAP1 PUSH2 0x15E0 JUMP JUMPDEST PUSH1 0x20 PUSH1 0x40 MLOAD DUP1 DUP4 SUB DUP2 PUSH1 0x0 DUP8 GAS CALL ISZERO DUP1 ISZERO PUSH2 0x6DF JUMPI RETURNDATASIZE PUSH1 0x0 DUP1 RETURNDATACOPY RETURNDATASIZE PUSH1 0x0 REVERT JUMPDEST POP POP POP POP PUSH1 0x40 MLOAD RETURNDATASIZE PUSH1 0x1F NOT PUSH1 0x1F DUP3 ADD AND DUP3 ADD DUP1 PUSH1 0x40 MSTORE POP DUP2 ADD SWAP1 PUSH2 0x703 SWAP2 SWAP1 PUSH2 0x1641 JUMP JUMPDEST PUSH2 0x742 JUMPI PUSH1 0x40 MLOAD PUSH32 0x8C379A000000000000000000000000000000000000000000000000000000000 DUP2 MSTORE PUSH1 0x4 ADD PUSH2 0x739 SWAP1 PUSH2 0x16BA JUMP JUMPDEST PUSH1 0x40 MLOAD DUP1 SWAP2 SUB SWAP1 REVERT JUMPDEST POP JUMP JUMPDEST PUSH1 0xA SLOAD DUP2 JUMP JUMPDEST PUSH1 0xB SLOAD DUP2 JUMP JUMPDEST PUSH2 0x759 PUSH2 0x95D JUMP JUMPDEST PUSH2 0x762 DUP2 PUSH2 0xA19 JUMP JUMPDEST POP JUMP JUMPDEST DUP4 PUSH1 0x5 PUSH1 0x0 DUP3 DUP2 MSTORE PUSH1 0x20 ADD SWAP1 DUP2 MSTORE PUSH1 0x20 ADD PUSH1 0x0 KECCAK256 PUSH1 0x0 SWAP1 SLOAD SWAP1 PUSH2 0x100 EXP SWAP1 DIV PUSH20 0xFFFFFFFFFFFFFFFFFFFFFFFFFFFFFFFFFFFFFFFF AND PUSH20 0xFFFFFFFFFFFFFFFFFFFFFFFFFFFFFFFFFFFFFFFF AND CALLER PUSH20 0xFFFFFFFFFFFFFFFFFFFFFFFFFFFFFFFFFFFFFFFF AND EQ PUSH2 0x807 JUMPI PUSH1 0x40 MLOAD PUSH32 0x8C379A000000000000000000000000000000000000000000000000000000000 DUP2 MSTORE PUSH1 0x4 ADD PUSH2 0x7FE SWAP1 PUSH2 0x174C JUMP JUMPDEST PUSH1 0x40 MLOAD DUP1 SWAP2 SUB SWAP1 REVERT JUMPDEST PUSH1 0x5 PUSH1 0x0 DUP3 DUP2 MSTORE PUSH1 0x20 ADD SWAP1 DUP2 MSTORE PUSH1 0x20 ADD PUSH1 0x0 KECCAK256 PUSH1 0x0 PUSH2 0x100 EXP DUP2 SLOAD SWAP1 PUSH20 0xFFFFFFFFFFFFFFFFFFFFFFFFFFFFFFFFFFFFFFFF MUL NOT AND SWAP1 SSTORE DUP1 PUSH32 0x7CC135E0CEBB02C3480AE5D74D377283180A2601F8F644EDF7987B009316C63A PUSH1 0x40 MLOAD PUSH1 0x40 MLOAD DUP1 SWAP2 SUB SWAP1 LOG2 DUP5 PUSH32 0xD8422588C680817FE4971EF8A5FE6A6B5DF0D7CD4537EABEF7FB17750E4187A7 DUP6 DUP6 DUP6 PUSH1 0x40 MLOAD PUSH2 0x89E SWAP4 SWAP3 SWAP2 SWAP1 PUSH2 0x176C JUMP JUMPDEST PUSH1 0x40 MLOAD DUP1 SWAP2 SUB SWAP1 LOG2 DUP4 PUSH1 0xA DUP2 SWAP1 SSTORE POP DUP3 PUSH1 0xB DUP2 SWAP1 SSTORE POP DUP2 PUSH1 0xC DUP2 SWAP1 SSTORE POP POP POP POP POP POP JUMP JUMPDEST PUSH2 0x8CA PUSH2 0x12E3 JUMP JUMPDEST PUSH2 0x8D2 PUSH2 0x12E3 JUMP JUMPDEST PUSH2 0x8E9 DUP6 DUP6 DUP6 DUP5 PUSH2 0xB47 SWAP1 SWAP4 SWAP3 SWAP2 SWAP1 PUSH4 0xFFFFFFFF AND JUMP JUMPDEST SWAP2 POP POP SWAP4 SWAP3 POP POP POP JUMP JUMPDEST PUSH2 0x90A DUP3 DUP5 PUSH1 0x80 ADD MLOAD PUSH2 0xBF7 SWAP1 SWAP2 SWAP1 PUSH4 0xFFFFFFFF AND JUMP JUMPDEST PUSH2 0x921 DUP2 DUP5 PUSH1 0x80 ADD MLOAD PUSH2 0xBF7 SWAP1 SWAP2 SWAP1 PUSH4 0xFFFFFFFF AND JUMP JUMPDEST POP POP POP JUMP JUMPDEST PUSH1 0x0 PUSH2 0x955 PUSH1 0x3 PUSH1 0x0 SWAP1 SLOAD SWAP1 PUSH2 0x100 EXP SWAP1 DIV PUSH20 0xFFFFFFFFFFFFFFFFFFFFFFFFFFFFFFFFFFFFFFFF AND DUP5 DUP5 PUSH2 0xC1C JUMP JUMPDEST SWAP1 POP SWAP3 SWAP2 POP POP JUMP JUMPDEST PUSH1 0x6 PUSH1 0x0 SWAP1 SLOAD SWAP1 PUSH2 0x100 EXP SWAP1 DIV PUSH20 0xFFFFFFFFFFFFFFFFFFFFFFFFFFFFFFFFFFFFFFFF AND PUSH20 0xFFFFFFFFFFFFFFFFFFFFFFFFFFFFFFFFFFFFFFFF AND CALLER PUSH20 0xFFFFFFFFFFFFFFFFFFFFFFFFFFFFFFFFFFFFFFFF AND EQ PUSH2 0x9ED JUMPI PUSH1 0x40 MLOAD PUSH32 0x8C379A000000000000000000000000000000000000000000000000000000000 DUP2 MSTORE PUSH1 0x4 ADD PUSH2 0x9E4 SWAP1 PUSH2 0x17EF JUMP JUMPDEST PUSH1 0x40 MLOAD DUP1 SWAP2 SUB SWAP1 REVERT JUMPDEST JUMP JUMPDEST PUSH1 0x0 PUSH1 0x2 PUSH1 0x0 SWAP1 SLOAD SWAP1 PUSH2 0x100 EXP SWAP1 DIV PUSH20 0xFFFFFFFFFFFFFFFFFFFFFFFFFFFFFFFFFFFFFFFF AND SWAP1 POP SWAP1 JUMP JUMPDEST CALLER PUSH20 0xFFFFFFFFFFFFFFFFFFFFFFFFFFFFFFFFFFFFFFFF AND DUP2 PUSH20 0xFFFFFFFFFFFFFFFFFFFFFFFFFFFFFFFFFFFFFFFF AND SUB PUSH2 0xA87 JUMPI PUSH1 0x40 MLOAD PUSH32 0x8C379A000000000000000000000000000000000000000000000000000000000 DUP2 MSTORE PUSH1 0x4 ADD PUSH2 0xA7E SWAP1 PUSH2 0x185B JUMP JUMPDEST PUSH1 0x40 MLOAD DUP1 SWAP2 SUB SWAP1 REVERT JUMPDEST DUP1 PUSH1 0x7 PUSH1 0x0 PUSH2 0x100 EXP DUP2 SLOAD DUP2 PUSH20 0xFFFFFFFFFFFFFFFFFFFFFFFFFFFFFFFFFFFFFFFF MUL NOT AND SWAP1 DUP4 PUSH20 0xFFFFFFFFFFFFFFFFFFFFFFFFFFFFFFFFFFFFFFFF AND MUL OR SWAP1 SSTORE POP DUP1 PUSH20 0xFFFFFFFFFFFFFFFFFFFFFFFFFFFFFFFFFFFFFFFF AND PUSH1 0x6 PUSH1 0x0 SWAP1 SLOAD SWAP1 PUSH2 0x100 EXP SWAP1 DIV PUSH20 0xFFFFFFFFFFFFFFFFFFFFFFFFFFFFFFFFFFFFFFFF AND PUSH20 0xFFFFFFFFFFFFFFFFFFFFFFFFFFFFFFFFFFFFFFFF AND PUSH32 0xED8889F560326EB138920D842192F0EB3DD22B4F139C87A2C57538E05BAE1278 PUSH1 0x40 MLOAD PUSH1 0x40 MLOAD DUP1 SWAP2 SUB SWAP1 LOG3 POP JUMP JUMPDEST PUSH2 0xB4F PUSH2 0x12E3 JUMP JUMPDEST PUSH2 0xB5F DUP6 PUSH1 0x80 ADD MLOAD PUSH2 0x100 PUSH2 0xCE8 JUMP JUMPDEST POP DUP4 DUP6 PUSH1 0x0 ADD DUP2 DUP2 MSTORE POP POP DUP3 DUP6 PUSH1 0x20 ADD SWAP1 PUSH20 0xFFFFFFFFFFFFFFFFFFFFFFFFFFFFFFFFFFFFFFFF AND SWAP1 DUP2 PUSH20 0xFFFFFFFFFFFFFFFFFFFFFFFFFFFFFFFFFFFFFFFF AND DUP2 MSTORE POP POP DUP2 DUP6 PUSH1 0x40 ADD SWAP1 PUSH28 0xFFFFFFFFFFFFFFFFFFFFFFFFFFFFFFFFFFFFFFFFFFFFFFFFFFFFFFFF NOT AND SWAP1 DUP2 PUSH28 0xFFFFFFFFFFFFFFFFFFFFFFFFFFFFFFFFFFFFFFFFFFFFFFFFFFFFFFFF NOT AND DUP2 MSTORE POP POP DUP5 SWAP1 POP SWAP5 SWAP4 POP POP POP POP JUMP JUMPDEST PUSH2 0xC04 DUP3 PUSH1 0x3 DUP4 MLOAD PUSH2 0xD52 JUMP JUMPDEST PUSH2 0xC17 DUP2 DUP4 PUSH2 0xED7 SWAP1 SWAP2 SWAP1 PUSH4 0xFFFFFFFF AND JUMP JUMPDEST POP POP POP JUMP JUMPDEST PUSH1 0x0 DUP1 PUSH1 0x4 SLOAD SWAP1 POP PUSH1 0x1 DUP2 PUSH2 0xC31 SWAP2 SWAP1 PUSH2 0x18AA JUMP JUMPDEST PUSH1 0x4 DUP2 SWAP1 SSTORE POP PUSH1 0x0 PUSH4 0x40429946 PUSH1 0xE0 SHL PUSH1 0x0 DUP1 DUP8 PUSH1 0x0 ADD MLOAD ADDRESS DUP10 PUSH1 0x40 ADD MLOAD DUP8 PUSH1 0x1 DUP13 PUSH1 0x80 ADD MLOAD PUSH1 0x0 ADD MLOAD PUSH1 0x40 MLOAD PUSH1 0x24 ADD PUSH2 0xC72 SWAP9 SWAP8 SWAP7 SWAP6 SWAP5 SWAP4 SWAP3 SWAP2 SWAP1 PUSH2 0x19B8 JUMP JUMPDEST PUSH1 0x40 MLOAD PUSH1 0x20 DUP2 DUP4 SUB SUB DUP2 MSTORE SWAP1 PUSH1 0x40 MSTORE SWAP1 PUSH28 0xFFFFFFFFFFFFFFFFFFFFFFFFFFFFFFFFFFFFFFFFFFFFFFFFFFFFFFFF NOT AND PUSH1 0x20 DUP3 ADD DUP1 MLOAD PUSH28 0xFFFFFFFFFFFFFFFFFFFFFFFFFFFFFFFFFFFFFFFFFFFFFFFFFFFFFFFF DUP4 DUP2 DUP4 AND OR DUP4 MSTORE POP POP POP POP SWAP1 POP PUSH2 0xCDD DUP7 DUP4 DUP7 DUP5 PUSH2 0xEF9 JUMP JUMPDEST SWAP3 POP POP POP SWAP4 SWAP3 POP POP POP JUMP JUMPDEST PUSH2 0xCF0 PUSH2 0x1350 JUMP JUMPDEST PUSH1 0x0 PUSH1 0x20 DUP4 PUSH2 0xCFF SWAP2 SWAP1 PUSH2 0x1A6C JUMP JUMPDEST EQ PUSH2 0xD2B JUMPI PUSH1 0x20 DUP3 PUSH2 0xD11 SWAP2 SWAP1 PUSH2 0x1A6C JUMP JUMPDEST PUSH1 0x20 PUSH2 0xD1D SWAP2 SWAP1 PUSH2 0x1A9D JUMP JUMPDEST DUP3 PUSH2 0xD28 SWAP2 SWAP1 PUSH2 0x18AA JUMP JUMPDEST SWAP2 POP JUMPDEST DUP2 DUP4 PUSH1 0x20 ADD DUP2 DUP2 MSTORE POP POP PUSH1 0x40 MLOAD DUP1 DUP5 MSTORE PUSH1 0x0 DUP2 MSTORE DUP3 DUP2 ADD PUSH1 0x20 ADD PUSH1 0x40 MSTORE POP DUP3 SWAP1 POP SWAP3 SWAP2 POP POP JUMP JUMPDEST PUSH1 0x17 DUP2 PUSH8 0xFFFFFFFFFFFFFFFF AND GT PUSH2 0xD89 JUMPI PUSH2 0xD83 DUP2 PUSH1 0x5 DUP5 PUSH1 0xFF AND SWAP1 SHL PUSH1 0xFF AND OR DUP5 PUSH2 0x108E SWAP1 SWAP2 SWAP1 PUSH4 0xFFFFFFFF AND JUMP JUMPDEST POP PUSH2 0xED2 JUMP JUMPDEST PUSH1 0xFF DUP2 PUSH8 0xFFFFFFFFFFFFFFFF AND GT PUSH2 0xDDF JUMPI PUSH2 0xDB8 PUSH1 0x18 PUSH1 0x5 DUP5 PUSH1 0xFF AND SWAP1 SHL OR DUP5 PUSH2 0x108E SWAP1 SWAP2 SWAP1 PUSH4 0xFFFFFFFF AND JUMP JUMPDEST POP PUSH2 0xDD9 DUP2 PUSH8 0xFFFFFFFFFFFFFFFF AND PUSH1 0x1 DUP6 PUSH2 0x10AE SWAP1 SWAP3 SWAP2 SWAP1 PUSH4 0xFFFFFFFF AND JUMP JUMPDEST POP PUSH2 0xED1 JUMP JUMPDEST PUSH2 0xFFFF DUP2 PUSH8 0xFFFFFFFFFFFFFFFF AND GT PUSH2 0xE36 JUMPI PUSH2 0xE0F PUSH1 0x19 PUSH1 0x5 DUP5 PUSH1 0xFF AND SWAP1 SHL OR DUP5 PUSH2 0x108E SWAP1 SWAP2 SWAP1 PUSH4 0xFFFFFFFF AND JUMP JUMPDEST POP PUSH2 0xE30 DUP2 PUSH8 0xFFFFFFFFFFFFFFFF AND PUSH1 0x2 DUP6 PUSH2 0x10AE SWAP1 SWAP3 SWAP2 SWAP1 PUSH4 0xFFFFFFFF AND JUMP JUMPDEST POP PUSH2 0xED0 JUMP JUMPDEST PUSH4 0xFFFFFFFF DUP2 PUSH8 0xFFFFFFFFFFFFFFFF AND GT PUSH2 0xE8F JUMPI PUSH2 0xE68 PUSH1 0x1A PUSH1 0x5 DUP5 PUSH1 0xFF AND SWAP1 SHL OR DUP5 PUSH2 0x108E SWAP1 SWAP2 SWAP1 PUSH4 0xFFFFFFFF AND JUMP JUMPDEST POP PUSH2 0xE89 DUP2 PUSH8 0xFFFFFFFFFFFFFFFF AND PUSH1 0x4 DUP6 PUSH2 0x10AE SWAP1 SWAP3 SWAP2 SWAP1 PUSH4 0xFFFFFFFF AND JUMP JUMPDEST POP PUSH2 0xECF JUMP JUMPDEST PUSH2 0xEAC PUSH1 0x1B PUSH1 0x5 DUP5 PUSH1 0xFF AND SWAP1 SHL OR DUP5 PUSH2 0x108E SWAP1 SWAP2 SWAP1 PUSH4 0xFFFFFFFF AND JUMP JUMPDEST POP PUSH2 0xECD DUP2 PUSH8 0xFFFFFFFFFFFFFFFF AND PUSH1 0x8 DUP6 PUSH2 0x10AE SWAP1 SWAP3 SWAP2 SWAP1 PUSH4 0xFFFFFFFF AND JUMP JUMPDEST POP JUMPDEST JUMPDEST JUMPDEST JUMPDEST POP POP POP JUMP JUMPDEST PUSH2 0xEDF PUSH2 0x1350 JUMP JUMPDEST PUSH2 0xEF1 DUP4 DUP5 PUSH1 0x0 ADD MLOAD MLOAD DUP5 DUP6 MLOAD PUSH2 0x10D0 JUMP JUMPDEST SWAP1 POP SWAP3 SWAP2 POP POP JUMP JUMPDEST PUSH1 0x0 ADDRESS DUP5 PUSH1 0x40 MLOAD PUSH1 0x20 ADD PUSH2 0xF0E SWAP3 SWAP2 SWAP1 PUSH2 0x1B8A JUMP JUMPDEST PUSH1 0x40 MLOAD PUSH1 0x20 DUP2 DUP4 SUB SUB DUP2 MSTORE SWAP1 PUSH1 0x40 MSTORE DUP1 MLOAD SWAP1 PUSH1 0x20 ADD KECCAK256 SWAP1 POP DUP5 PUSH1 0x5 PUSH1 0x0 DUP4 DUP2 MSTORE PUSH1 0x20 ADD SWAP1 DUP2 MSTORE PUSH1 0x20 ADD PUSH1 0x0 KECCAK256 PUSH1 0x0 PUSH2 0x100 EXP DUP2 SLOAD DUP2 PUSH20 0xFFFFFFFFFFFFFFFFFFFFFFFFFFFFFFFFFFFFFFFF MUL NOT AND SWAP1 DUP4 PUSH20 0xFFFFFFFFFFFFFFFFFFFFFFFFFFFFFFFFFFFFFFFF AND MUL OR SWAP1 SSTORE POP DUP1 PUSH32 0xB5E6E01E79F91267DC17B4E6314D5D4D03593D2CEEE0FBB452B750BD70EA5AF9 PUSH1 0x40 MLOAD PUSH1 0x40 MLOAD DUP1 SWAP2 SUB SWAP1 LOG2 PUSH1 0x2 PUSH1 0x0 SWAP1 SLOAD SWAP1 PUSH2 0x100 EXP SWAP1 DIV PUSH20 0xFFFFFFFFFFFFFFFFFFFFFFFFFFFFFFFFFFFFFFFF AND PUSH20 0xFFFFFFFFFFFFFFFFFFFFFFFFFFFFFFFFFFFFFFFF AND PUSH4 0x4000AEA0 DUP7 DUP6 DUP6 PUSH1 0x40 MLOAD DUP5 PUSH4 0xFFFFFFFF AND PUSH1 0xE0 SHL DUP2 MSTORE PUSH1 0x4 ADD PUSH2 0x1004 SWAP4 SWAP3 SWAP2 SWAP1 PUSH2 0x1BB6 JUMP JUMPDEST PUSH1 0x20 PUSH1 0x40 MLOAD DUP1 DUP4 SUB DUP2 PUSH1 0x0 DUP8 GAS CALL ISZERO DUP1 ISZERO PUSH2 0x1023 JUMPI RETURNDATASIZE PUSH1 0x0 DUP1 RETURNDATACOPY RETURNDATASIZE PUSH1 0x0 REVERT JUMPDEST POP POP POP POP PUSH1 0x40 MLOAD RETURNDATASIZE PUSH1 0x1F NOT PUSH1 0x1F DUP3 ADD AND DUP3 ADD DUP1 PUSH1 0x40 MSTORE POP DUP2 ADD SWAP1 PUSH2 0x1047 SWAP2 SWAP1 PUSH2 0x1641 JUMP JUMPDEST PUSH2 0x1086 JUMPI PUSH1 0x40 MLOAD PUSH32 0x8C379A000000000000000000000000000000000000000000000000000000000 DUP2 MSTORE PUSH1 0x4 ADD PUSH2 0x107D SWAP1 PUSH2 0x1C66 JUMP JUMPDEST PUSH1 0x40 MLOAD DUP1 SWAP2 SUB SWAP1 REVERT JUMPDEST SWAP5 SWAP4 POP POP POP POP JUMP JUMPDEST PUSH2 0x1096 PUSH2 0x1350 JUMP JUMPDEST PUSH2 0x10A6 DUP4 DUP5 PUSH1 0x0 ADD MLOAD MLOAD DUP5 PUSH2 0x11BF JUMP JUMPDEST SWAP1 POP SWAP3 SWAP2 POP POP JUMP JUMPDEST PUSH2 0x10B6 PUSH2 0x1350 JUMP JUMPDEST PUSH2 0x10C7 DUP5 DUP6 PUSH1 0x0 ADD MLOAD MLOAD DUP6 DUP6 PUSH2 0x1215 JUMP JUMPDEST SWAP1 POP SWAP4 SWAP3 POP POP POP JUMP JUMPDEST PUSH2 0x10D8 PUSH2 0x1350 JUMP JUMPDEST DUP3 MLOAD DUP3 GT ISZERO PUSH2 0x10E6 JUMPI PUSH1 0x0 DUP1 REVERT JUMPDEST DUP5 PUSH1 0x20 ADD MLOAD DUP3 DUP6 PUSH2 0x10F7 SWAP2 SWAP1 PUSH2 0x18AA JUMP JUMPDEST GT ISZERO PUSH2 0x112C JUMPI PUSH2 0x112B DUP6 PUSH1 0x2 PUSH2 0x111C DUP9 PUSH1 0x20 ADD MLOAD DUP9 DUP8 PUSH2 0x1117 SWAP2 SWAP1 PUSH2 0x18AA JUMP JUMPDEST PUSH2 0x12A3 JUMP JUMPDEST PUSH2 0x1126 SWAP2 SWAP1 PUSH2 0x1C86 JUMP JUMPDEST PUSH2 0x12BF JUMP JUMPDEST JUMPDEST PUSH1 0x0 DUP1 DUP7 MLOAD DUP1 MLOAD DUP8 PUSH1 0x20 DUP4 ADD ADD SWAP4 POP DUP1 DUP9 DUP8 ADD GT ISZERO PUSH2 0x114B JUMPI DUP8 DUP7 ADD DUP3 MSTORE JUMPDEST PUSH1 0x20 DUP8 ADD SWAP3 POP POP POP JUMPDEST PUSH1 0x20 DUP5 LT PUSH2 0x1192 JUMPI DUP1 MLOAD DUP3 MSTORE PUSH1 0x20 DUP3 PUSH2 0x116D SWAP2 SWAP1 PUSH2 0x18AA JUMP JUMPDEST SWAP2 POP PUSH1 0x20 DUP2 PUSH2 0x117C SWAP2 SWAP1 PUSH2 0x18AA JUMP JUMPDEST SWAP1 POP PUSH1 0x20 DUP5 PUSH2 0x118B SWAP2 SWAP1 PUSH2 0x1A9D JUMP JUMPDEST SWAP4 POP PUSH2 0x1154 JUMP JUMPDEST PUSH1 0x0 PUSH1 0x1 DUP6 PUSH1 0x20 SUB PUSH2 0x100 EXP SUB SWAP1 POP DUP1 NOT DUP3 MLOAD AND DUP2 DUP5 MLOAD AND DUP2 DUP2 OR DUP6 MSTORE POP POP POP DUP7 SWAP3 POP POP POP SWAP5 SWAP4 POP POP POP POP JUMP JUMPDEST PUSH2 0x11C7 PUSH2 0x1350 JUMP JUMPDEST DUP4 PUSH1 0x20 ADD MLOAD DUP4 LT PUSH2 0x11ED JUMPI PUSH2 0x11EC DUP5 PUSH1 0x2 DUP7 PUSH1 0x20 ADD MLOAD PUSH2 0x11E7 SWAP2 SWAP1 PUSH2 0x1C86 JUMP JUMPDEST PUSH2 0x12BF JUMP JUMPDEST JUMPDEST DUP4 MLOAD DUP1 MLOAD PUSH1 0x20 DUP6 DUP4 ADD ADD DUP5 DUP2 MSTORE8 DUP2 DUP7 SUB PUSH2 0x1208 JUMPI PUSH1 0x1 DUP3 ADD DUP4 MSTORE JUMPDEST POP POP POP DUP4 SWAP1 POP SWAP4 SWAP3 POP POP POP JUMP JUMPDEST PUSH2 0x121D PUSH2 0x1350 JUMP JUMPDEST DUP5 PUSH1 0x20 ADD MLOAD DUP5 DUP4 PUSH2 0x122E SWAP2 SWAP1 PUSH2 0x18AA JUMP JUMPDEST GT ISZERO PUSH2 0x1256 JUMPI PUSH2 0x1255 DUP6 PUSH1 0x2 DUP7 DUP6 PUSH2 0x1246 SWAP2 SWAP1 PUSH2 0x18AA JUMP JUMPDEST PUSH2 0x1250 SWAP2 SWAP1 PUSH2 0x1C86 JUMP JUMPDEST PUSH2 0x12BF JUMP JUMPDEST JUMPDEST PUSH1 0x0 PUSH1 0x1 DUP4 PUSH2 0x100 PUSH2 0x1268 SWAP2 SWAP1 PUSH2 0x1DFB JUMP JUMPDEST PUSH2 0x1272 SWAP2 SWAP1 PUSH2 0x1A9D JUMP JUMPDEST SWAP1 POP DUP6 MLOAD DUP4 DUP7 DUP3 ADD ADD DUP6 DUP4 NOT DUP3 MLOAD AND OR DUP2 MSTORE DUP2 MLOAD DUP6 DUP9 ADD GT ISZERO PUSH2 0x1295 JUMPI DUP5 DUP8 ADD DUP3 MSTORE JUMPDEST POP POP DUP6 SWAP2 POP POP SWAP5 SWAP4 POP POP POP POP JUMP JUMPDEST PUSH1 0x0 DUP2 DUP4 GT ISZERO PUSH2 0x12B5 JUMPI DUP3 SWAP1 POP PUSH2 0x12B9 JUMP JUMPDEST DUP2 SWAP1 POP JUMPDEST SWAP3 SWAP2 POP POP JUMP JUMPDEST PUSH1 0x0 DUP3 PUSH1 0x0 ADD MLOAD SWAP1 POP PUSH2 0x12D2 DUP4 DUP4 PUSH2 0xCE8 JUMP JUMPDEST POP PUSH2 0x12DD DUP4 DUP3 PUSH2 0xED7 JUMP JUMPDEST POP POP POP POP JUMP JUMPDEST PUSH1 0x40 MLOAD DUP1 PUSH1 0xA0 ADD PUSH1 0x40 MSTORE DUP1 PUSH1 0x0 DUP1 NOT AND DUP2 MSTORE PUSH1 0x20 ADD PUSH1 0x0 PUSH20 0xFFFFFFFFFFFFFFFFFFFFFFFFFFFFFFFFFFFFFFFF AND DUP2 MSTORE PUSH1 0x20 ADD PUSH1 0x0 PUSH28 0xFFFFFFFFFFFFFFFFFFFFFFFFFFFFFFFFFFFFFFFFFFFFFFFFFFFFFFFF NOT AND DUP2 MSTORE PUSH1 0x20 ADD PUSH1 0x0 DUP2 MSTORE PUSH1 0x20 ADD PUSH2 0x134A PUSH2 0x1350 JUMP JUMPDEST DUP2 MSTORE POP SWAP1 JUMP JUMPDEST PUSH1 0x40 MLOAD DUP1 PUSH1 0x40 ADD PUSH1 0x40 MSTORE DUP1 PUSH1 0x60 DUP2 MSTORE PUSH1 0x20 ADD PUSH1 0x0 DUP2 MSTORE POP SWAP1 JUMP JUMPDEST PUSH1 0x0 DUP2 SWAP1 POP SWAP2 SWAP1 POP JUMP JUMPDEST PUSH2 0x137D DUP2 PUSH2 0x136A JUMP JUMPDEST DUP3 MSTORE POP POP JUMP JUMPDEST PUSH1 0x0 PUSH1 0x20 DUP3 ADD SWAP1 POP PUSH2 0x1398 PUSH1 0x0 DUP4 ADD DUP5 PUSH2 0x1374 JUMP JUMPDEST SWAP3 SWAP2 POP POP JUMP JUMPDEST PUSH1 0x0 PUSH20 0xFFFFFFFFFFFFFFFFFFFFFFFFFFFFFFFFFFFFFFFF DUP3 AND SWAP1 POP SWAP2 SWAP1 POP JUMP JUMPDEST PUSH1 0x0 PUSH2 0x13C9 DUP3 PUSH2 0x139E JUMP JUMPDEST SWAP1 POP SWAP2 SWAP1 POP JUMP JUMPDEST PUSH2 0x13D9 DUP2 PUSH2 0x13BE JUMP JUMPDEST DUP3 MSTORE POP POP JUMP JUMPDEST PUSH1 0x0 PUSH1 0x20 DUP3 ADD SWAP1 POP PUSH2 0x13F4 PUSH1 0x0 DUP4 ADD DUP5 PUSH2 0x13D0 JUMP JUMPDEST SWAP3 SWAP2 POP POP JUMP JUMPDEST PUSH1 0x0 DUP1 REVERT JUMPDEST PUSH2 0x1408 DUP2 PUSH2 0x13BE JUMP JUMPDEST DUP2 EQ PUSH2 0x1413 JUMPI PUSH1 0x0 DUP1 REVERT JUMPDEST POP JUMP JUMPDEST PUSH1 0x0 DUP2 CALLDATALOAD SWAP1 POP PUSH2 0x1425 DUP2 PUSH2 0x13FF JUMP JUMPDEST SWAP3 SWAP2 POP POP JUMP JUMPDEST PUSH1 0x0 PUSH1 0x20 DUP3 DUP5 SUB SLT ISZERO PUSH2 0x1441 JUMPI PUSH2 0x1440 PUSH2 0x13FA JUMP JUMPDEST JUMPDEST PUSH1 0x0 PUSH2 0x144F DUP5 DUP3 DUP6 ADD PUSH2 0x1416 JUMP JUMPDEST SWAP2 POP POP SWAP3 SWAP2 POP POP JUMP JUMPDEST PUSH1 0x0 DUP2 SWAP1 POP SWAP2 SWAP1 POP JUMP JUMPDEST PUSH2 0x146B DUP2 PUSH2 0x1458 JUMP JUMPDEST DUP2 EQ PUSH2 0x1476 JUMPI PUSH1 0x0 DUP1 REVERT JUMPDEST POP JUMP JUMPDEST PUSH1 0x0 DUP2 CALLDATALOAD SWAP1 POP PUSH2 0x1488 DUP2 PUSH2 0x1462 JUMP JUMPDEST SWAP3 SWAP2 POP POP JUMP JUMPDEST PUSH2 0x1497 DUP2 PUSH2 0x136A JUMP JUMPDEST DUP2 EQ PUSH2 0x14A2 JUMPI PUSH1 0x0 DUP1 REVERT JUMPDEST POP JUMP JUMPDEST PUSH1 0x0 DUP2 CALLDATALOAD SWAP1 POP PUSH2 0x14B4 DUP2 PUSH2 0x148E JUMP JUMPDEST SWAP3 SWAP2 POP POP JUMP JUMPDEST PUSH1 0x0 DUP1 PUSH1 0x0 DUP1 PUSH1 0x80 DUP6 DUP8 SUB SLT ISZERO PUSH2 0x14D4 JUMPI PUSH2 0x14D3 PUSH2 0x13FA JUMP JUMPDEST JUMPDEST PUSH1 0x0 PUSH2 0x14E2 DUP8 DUP3 DUP9 ADD PUSH2 0x1479 JUMP JUMPDEST SWAP5 POP POP PUSH1 0x20 PUSH2 0x14F3 DUP8 DUP3 DUP9 ADD PUSH2 0x14A5 JUMP JUMPDEST SWAP4 POP POP PUSH1 0x40 PUSH2 0x1504 DUP8 DUP3 DUP9 ADD PUSH2 0x14A5 JUMP JUMPDEST SWAP3 POP POP PUSH1 0x60 PUSH2 0x1515 DUP8 DUP3 DUP9 ADD PUSH2 0x14A5 JUMP JUMPDEST SWAP2 POP POP SWAP3 SWAP6 SWAP2 SWAP5 POP SWAP3 POP JUMP JUMPDEST PUSH1 0x0 DUP3 DUP3 MSTORE PUSH1 0x20 DUP3 ADD SWAP1 POP SWAP3 SWAP2 POP POP JUMP JUMPDEST PUSH32 0x4D7573742062652070726F706F736564206F776E657200000000000000000000 PUSH1 0x0 DUP3 ADD MSTORE POP JUMP JUMPDEST PUSH1 0x0 PUSH2 0x1568 PUSH1 0x16 DUP4 PUSH2 0x1521 JUMP JUMPDEST SWAP2 POP PUSH2 0x1573 DUP3 PUSH2 0x1532 JUMP JUMPDEST PUSH1 0x20 DUP3 ADD SWAP1 POP SWAP2 SWAP1 POP JUMP JUMPDEST PUSH1 0x0 PUSH1 0x20 DUP3 ADD SWAP1 POP DUP2 DUP2 SUB PUSH1 0x0 DUP4 ADD MSTORE PUSH2 0x1597 DUP2 PUSH2 0x155B JUMP JUMPDEST SWAP1 POP SWAP2 SWAP1 POP JUMP JUMPDEST PUSH1 0x0 DUP2 MLOAD SWAP1 POP PUSH2 0x15AD DUP2 PUSH2 0x148E JUMP JUMPDEST SWAP3 SWAP2 POP POP JUMP JUMPDEST PUSH1 0x0 PUSH1 0x20 DUP3 DUP5 SUB SLT ISZERO PUSH2 0x15C9 JUMPI PUSH2 0x15C8 PUSH2 0x13FA JUMP JUMPDEST JUMPDEST PUSH1 0x0 PUSH2 0x15D7 DUP5 DUP3 DUP6 ADD PUSH2 0x159E JUMP JUMPDEST SWAP2 POP POP SWAP3 SWAP2 POP POP JUMP JUMPDEST PUSH1 0x0 PUSH1 0x40 DUP3 ADD SWAP1 POP PUSH2 0x15F5 PUSH1 0x0 DUP4 ADD DUP6 PUSH2 0x13D0 JUMP JUMPDEST PUSH2 0x1602 PUSH1 0x20 DUP4 ADD DUP5 PUSH2 0x1374 JUMP JUMPDEST SWAP4 SWAP3 POP POP POP JUMP JUMPDEST PUSH1 0x0 DUP2 ISZERO ISZERO SWAP1 POP SWAP2 SWAP1 POP JUMP JUMPDEST PUSH2 0x161E DUP2 PUSH2 0x1609 JUMP JUMPDEST DUP2 EQ PUSH2 0x1629 JUMPI PUSH1 0x0 DUP1 REVERT JUMPDEST POP JUMP JUMPDEST PUSH1 0x0 DUP2 MLOAD SWAP1 POP PUSH2 0x163B DUP2 PUSH2 0x1615 JUMP JUMPDEST SWAP3 SWAP2 POP POP JUMP JUMPDEST PUSH1 0x0 PUSH1 0x20 DUP3 DUP5 SUB SLT ISZERO PUSH2 0x1657 JUMPI PUSH2 0x1656 PUSH2 0x13FA JUMP JUMPDEST JUMPDEST PUSH1 0x0 PUSH2 0x1665 DUP5 DUP3 DUP6 ADD PUSH2 0x162C JUMP JUMPDEST SWAP2 POP POP SWAP3 SWAP2 POP POP JUMP JUMPDEST PUSH32 0x556E61626C6520746F207472616E736665720000000000000000000000000000 PUSH1 0x0 DUP3 ADD MSTORE POP JUMP JUMPDEST PUSH1 0x0 PUSH2 0x16A4 PUSH1 0x12 DUP4 PUSH2 0x1521 JUMP JUMPDEST SWAP2 POP PUSH2 0x16AF DUP3 PUSH2 0x166E JUMP JUMPDEST PUSH1 0x20 DUP3 ADD SWAP1 POP SWAP2 SWAP1 POP JUMP JUMPDEST PUSH1 0x0 PUSH1 0x20 DUP3 ADD SWAP1 POP DUP2 DUP2 SUB PUSH1 0x0 DUP4 ADD MSTORE PUSH2 0x16D3 DUP2 PUSH2 0x1697 JUMP JUMPDEST SWAP1 POP SWAP2 SWAP1 POP JUMP JUMPDEST PUSH32 0x536F75726365206D75737420626520746865206F7261636C65206F6620746865 PUSH1 0x0 DUP3 ADD MSTORE PUSH32 0x2072657175657374000000000000000000000000000000000000000000000000 PUSH1 0x20 DUP3 ADD MSTORE POP JUMP JUMPDEST PUSH1 0x0 PUSH2 0x1736 PUSH1 0x28 DUP4 PUSH2 0x1521 JUMP JUMPDEST SWAP2 POP PUSH2 0x1741 DUP3 PUSH2 0x16DA JUMP JUMPDEST PUSH1 0x40 DUP3 ADD SWAP1 POP SWAP2 SWAP1 POP JUMP JUMPDEST PUSH1 0x0 PUSH1 0x20 DUP3 ADD SWAP1 POP DUP2 DUP2 SUB PUSH1 0x0 DUP4 ADD MSTORE PUSH2 0x1765 DUP2 PUSH2 0x1729 JUMP JUMPDEST SWAP1 POP SWAP2 SWAP1 POP JUMP JUMPDEST PUSH1 0x0 PUSH1 0x60 DUP3 ADD SWAP1 POP PUSH2 0x1781 PUSH1 0x0 DUP4 ADD DUP7 PUSH2 0x1374 JUMP JUMPDEST PUSH2 0x178E PUSH1 0x20 DUP4 ADD DUP6 PUSH2 0x1374 JUMP JUMPDEST PUSH2 0x179B PUSH1 0x40 DUP4 ADD DUP5 PUSH2 0x1374 JUMP JUMPDEST SWAP5 SWAP4 POP POP POP POP JUMP JUMPDEST PUSH32 0x4F6E6C792063616C6C61626C65206279206F776E657200000000000000000000 PUSH1 0x0 DUP3 ADD MSTORE POP JUMP JUMPDEST PUSH1 0x0 PUSH2 0x17D9 PUSH1 0x16 DUP4 PUSH2 0x1521 JUMP JUMPDEST SWAP2 POP PUSH2 0x17E4 DUP3 PUSH2 0x17A3 JUMP JUMPDEST PUSH1 0x20 DUP3 ADD SWAP1 POP SWAP2 SWAP1 POP JUMP JUMPDEST PUSH1 0x0 PUSH1 0x20 DUP3 ADD SWAP1 POP DUP2 DUP2 SUB PUSH1 0x0 DUP4 ADD MSTORE PUSH2 0x1808 DUP2 PUSH2 0x17CC JUMP JUMPDEST SWAP1 POP SWAP2 SWAP1 POP JUMP JUMPDEST PUSH32 0x43616E6E6F74207472616E7366657220746F2073656C66000000000000000000 PUSH1 0x0 DUP3 ADD MSTORE POP JUMP JUMPDEST PUSH1 0x0 PUSH2 0x1845 PUSH1 0x17 DUP4 PUSH2 0x1521 JUMP JUMPDEST SWAP2 POP PUSH2 0x1850 DUP3 PUSH2 0x180F JUMP JUMPDEST PUSH1 0x20 DUP3 ADD SWAP1 POP SWAP2 SWAP1 POP JUMP JUMPDEST PUSH1 0x0 PUSH1 0x20 DUP3 ADD SWAP1 POP DUP2 DUP2 SUB PUSH1 0x0 DUP4 ADD MSTORE PUSH2 0x1874 DUP2 PUSH2 0x1838 JUMP JUMPDEST SWAP1 POP SWAP2 SWAP1 POP JUMP JUMPDEST PUSH32 0x4E487B7100000000000000000000000000000000000000000000000000000000 PUSH1 0x0 MSTORE PUSH1 0x11 PUSH1 0x4 MSTORE PUSH1 0x24 PUSH1 0x0 REVERT JUMPDEST PUSH1 0x0 PUSH2 0x18B5 DUP3 PUSH2 0x136A JUMP JUMPDEST SWAP2 POP PUSH2 0x18C0 DUP4 PUSH2 0x136A JUMP JUMPDEST SWAP3 POP DUP3 DUP3 ADD SWAP1 POP DUP1 DUP3 GT ISZERO PUSH2 0x18D8 JUMPI PUSH2 0x18D7 PUSH2 0x187B JUMP JUMPDEST JUMPDEST SWAP3 SWAP2 POP POP JUMP JUMPDEST PUSH2 0x18E7 DUP2 PUSH2 0x1458 JUMP JUMPDEST DUP3 MSTORE POP POP JUMP JUMPDEST PUSH1 0x0 PUSH32 0xFFFFFFFF00000000000000000000000000000000000000000000000000000000 DUP3 AND SWAP1 POP SWAP2 SWAP1 POP JUMP JUMPDEST PUSH2 0x1922 DUP2 PUSH2 0x18ED JUMP JUMPDEST DUP3 MSTORE POP POP JUMP JUMPDEST PUSH1 0x0 DUP2 MLOAD SWAP1 POP SWAP2 SWAP1 POP JUMP JUMPDEST PUSH1 0x0 DUP3 DUP3 MSTORE PUSH1 0x20 DUP3 ADD SWAP1 POP SWAP3 SWAP2 POP POP JUMP JUMPDEST PUSH1 0x0 JUMPDEST DUP4 DUP2 LT ISZERO PUSH2 0x1962 JUMPI DUP1 DUP3 ADD MLOAD DUP2 DUP5 ADD MSTORE PUSH1 0x20 DUP2 ADD SWAP1 POP PUSH2 0x1947 JUMP JUMPDEST PUSH1 0x0 DUP5 DUP5 ADD MSTORE POP POP POP POP JUMP JUMPDEST PUSH1 0x0 PUSH1 0x1F NOT PUSH1 0x1F DUP4 ADD AND SWAP1 POP SWAP2 SWAP1 POP JUMP JUMPDEST PUSH1 0x0 PUSH2 0x198A DUP3 PUSH2 0x1928 JUMP JUMPDEST PUSH2 0x1994 DUP2 DUP6 PUSH2 0x1933 JUMP JUMPDEST SWAP4 POP PUSH2 0x19A4 DUP2 DUP6 PUSH1 0x20 DUP7 ADD PUSH2 0x1944 JUMP JUMPDEST PUSH2 0x19AD DUP2 PUSH2 0x196E JUMP JUMPDEST DUP5 ADD SWAP2 POP POP SWAP3 SWAP2 POP POP JUMP JUMPDEST PUSH1 0x0 PUSH2 0x100 DUP3 ADD SWAP1 POP PUSH2 0x19CE PUSH1 0x0 DUP4 ADD DUP12 PUSH2 0x13D0 JUMP JUMPDEST PUSH2 0x19DB PUSH1 0x20 DUP4 ADD DUP11 PUSH2 0x1374 JUMP JUMPDEST PUSH2 0x19E8 PUSH1 0x40 DUP4 ADD DUP10 PUSH2 0x18DE JUMP JUMPDEST PUSH2 0x19F5 PUSH1 0x60 DUP4 ADD DUP9 PUSH2 0x13D0 JUMP JUMPDEST PUSH2 0x1A02 PUSH1 0x80 DUP4 ADD DUP8 PUSH2 0x1919 JUMP JUMPDEST PUSH2 0x1A0F PUSH1 0xA0 DUP4 ADD DUP7 PUSH2 0x1374 JUMP JUMPDEST PUSH2 0x1A1C PUSH1 0xC0 DUP4 ADD DUP6 PUSH2 0x1374 JUMP JUMPDEST DUP2 DUP2 SUB PUSH1 0xE0 DUP4 ADD MSTORE PUSH2 0x1A2E DUP2 DUP5 PUSH2 0x197F JUMP JUMPDEST SWAP1 POP SWAP10 SWAP9 POP POP POP POP POP POP POP POP POP JUMP JUMPDEST PUSH32 0x4E487B7100000000000000000000000000000000000000000000000000000000 PUSH1 0x0 MSTORE PUSH1 0x12 PUSH1 0x4 MSTORE PUSH1 0x24 PUSH1 0x0 REVERT JUMPDEST PUSH1 0x0 PUSH2 0x1A77 DUP3 PUSH2 0x136A JUMP JUMPDEST SWAP2 POP PUSH2 0x1A82 DUP4 PUSH2 0x136A JUMP JUMPDEST SWAP3 POP DUP3 PUSH2 0x1A92 JUMPI PUSH2 0x1A91 PUSH2 0x1A3D JUMP JUMPDEST JUMPDEST DUP3 DUP3 MOD SWAP1 POP SWAP3 SWAP2 POP POP JUMP JUMPDEST PUSH1 0x0 PUSH2 0x1AA8 DUP3 PUSH2 0x136A JUMP JUMPDEST SWAP2 POP PUSH2 0x1AB3 DUP4 PUSH2 0x136A JUMP JUMPDEST SWAP3 POP DUP3 DUP3 SUB SWAP1 POP DUP2 DUP2 GT ISZERO PUSH2 0x1ACB JUMPI PUSH2 0x1ACA PUSH2 0x187B JUMP JUMPDEST JUMPDEST SWAP3 SWAP2 POP POP JUMP JUMPDEST PUSH1 0x0 DUP2 SWAP1 POP SWAP2 SWAP1 POP JUMP JUMPDEST PUSH1 0x0 PUSH2 0x1AF6 PUSH2 0x1AF1 PUSH2 0x1AEC DUP5 PUSH2 0x139E JUMP JUMPDEST PUSH2 0x1AD1 JUMP JUMPDEST PUSH2 0x139E JUMP JUMPDEST SWAP1 POP SWAP2 SWAP1 POP JUMP JUMPDEST PUSH1 0x0 PUSH2 0x1B08 DUP3 PUSH2 0x1ADB JUMP JUMPDEST SWAP1 POP SWAP2 SWAP1 POP JUMP JUMPDEST PUSH1 0x0 PUSH2 0x1B1A DUP3 PUSH2 0x1AFD JUMP JUMPDEST SWAP1 POP SWAP2 SWAP1 POP JUMP JUMPDEST PUSH1 0x0 DUP2 PUSH1 0x60 SHL SWAP1 POP SWAP2 SWAP1 POP JUMP JUMPDEST PUSH1 0x0 PUSH2 0x1B39 DUP3 PUSH2 0x1B21 JUMP JUMPDEST SWAP1 POP SWAP2 SWAP1 POP JUMP JUMPDEST PUSH1 0x0 PUSH2 0x1B4B DUP3 PUSH2 0x1B2E JUMP JUMPDEST SWAP1 POP SWAP2 SWAP1 POP JUMP JUMPDEST PUSH2 0x1B63 PUSH2 0x1B5E DUP3 PUSH2 0x1B0F JUMP JUMPDEST PUSH2 0x1B40 JUMP JUMPDEST DUP3 MSTORE POP POP JUMP JUMPDEST PUSH1 0x0 DUP2 SWAP1 POP SWAP2 SWAP1 POP JUMP JUMPDEST PUSH2 0x1B84 PUSH2 0x1B7F DUP3 PUSH2 0x136A JUMP JUMPDEST PUSH2 0x1B69 JUMP JUMPDEST DUP3 MSTORE POP POP JUMP JUMPDEST PUSH1 0x0 PUSH2 0x1B96 DUP3 DUP6 PUSH2 0x1B52 JUMP JUMPDEST PUSH1 0x14 DUP3 ADD SWAP2 POP PUSH2 0x1BA6 DUP3 DUP5 PUSH2 0x1B73 JUMP JUMPDEST PUSH1 0x20 DUP3 ADD SWAP2 POP DUP2 SWAP1 POP SWAP4 SWAP3 POP POP POP JUMP JUMPDEST PUSH1 0x0 PUSH1 0x60 DUP3 ADD SWAP1 POP PUSH2 0x1BCB PUSH1 0x0 DUP4 ADD DUP7 PUSH2 0x13D0 JUMP JUMPDEST PUSH2 0x1BD8 PUSH1 0x20 DUP4 ADD DUP6 PUSH2 0x1374 JUMP JUMPDEST DUP2 DUP2 SUB PUSH1 0x40 DUP4 ADD MSTORE PUSH2 0x1BEA DUP2 DUP5 PUSH2 0x197F JUMP JUMPDEST SWAP1 POP SWAP5 SWAP4 POP POP POP POP JUMP JUMPDEST PUSH32 0x756E61626C6520746F207472616E73666572416E6443616C6C20746F206F7261 PUSH1 0x0 DUP3 ADD MSTORE PUSH32 0x636C650000000000000000000000000000000000000000000000000000000000 PUSH1 0x20 DUP3 ADD MSTORE POP JUMP JUMPDEST PUSH1 0x0 PUSH2 0x1C50 PUSH1 0x23 DUP4 PUSH2 0x1521 JUMP JUMPDEST SWAP2 POP PUSH2 0x1C5B DUP3 PUSH2 0x1BF4 JUMP JUMPDEST PUSH1 0x40 DUP3 ADD SWAP1 POP SWAP2 SWAP1 POP JUMP JUMPDEST PUSH1 0x0 PUSH1 0x20 DUP3 ADD SWAP1 POP DUP2 DUP2 SUB PUSH1 0x0 DUP4 ADD MSTORE PUSH2 0x1C7F DUP2 PUSH2 0x1C43 JUMP JUMPDEST SWAP1 POP SWAP2 SWAP1 POP JUMP JUMPDEST PUSH1 0x0 PUSH2 0x1C91 DUP3 PUSH2 0x136A JUMP JUMPDEST SWAP2 POP PUSH2 0x1C9C DUP4 PUSH2 0x136A JUMP JUMPDEST SWAP3 POP DUP3 DUP3 MUL PUSH2 0x1CAA DUP2 PUSH2 0x136A JUMP JUMPDEST SWAP2 POP DUP3 DUP3 DIV DUP5 EQ DUP4 ISZERO OR PUSH2 0x1CC1 JUMPI PUSH2 0x1CC0 PUSH2 0x187B JUMP JUMPDEST JUMPDEST POP SWAP3 SWAP2 POP POP JUMP JUMPDEST PUSH1 0x0 DUP2 PUSH1 0x1 SHR SWAP1 POP SWAP2 SWAP1 POP JUMP JUMPDEST PUSH1 0x0 DUP1 DUP3 SWAP2 POP DUP4 SWAP1 POP JUMPDEST PUSH1 0x1 DUP6 GT ISZERO PUSH2 0x1D1F JUMPI DUP1 DUP7 DIV DUP2 GT ISZERO PUSH2 0x1CFB JUMPI PUSH2 0x1CFA PUSH2 0x187B JUMP JUMPDEST JUMPDEST PUSH1 0x1 DUP6 AND ISZERO PUSH2 0x1D0A JUMPI DUP1 DUP3 MUL SWAP2 POP JUMPDEST DUP1 DUP2 MUL SWAP1 POP PUSH2 0x1D18 DUP6 PUSH2 0x1CC8 JUMP JUMPDEST SWAP5 POP PUSH2 0x1CDF JUMP JUMPDEST SWAP5 POP SWAP5 SWAP3 POP POP POP JUMP JUMPDEST PUSH1 0x0 DUP3 PUSH2 0x1D38 JUMPI PUSH1 0x1 SWAP1 POP PUSH2 0x1DF4 JUMP JUMPDEST DUP2 PUSH2 0x1D46 JUMPI PUSH1 0x0 SWAP1 POP PUSH2 0x1DF4 JUMP JUMPDEST DUP2 PUSH1 0x1 DUP2 EQ PUSH2 0x1D5C JUMPI PUSH1 0x2 DUP2 EQ PUSH2 0x1D66 JUMPI PUSH2 0x1D95 JUMP JUMPDEST PUSH1 0x1 SWAP2 POP POP PUSH2 0x1DF4 JUMP JUMPDEST PUSH1 0xFF DUP5 GT ISZERO PUSH2 0x1D78 JUMPI PUSH2 0x1D77 PUSH2 0x187B JUMP JUMPDEST JUMPDEST DUP4 PUSH1 0x2 EXP SWAP2 POP DUP5 DUP3 GT ISZERO PUSH2 0x1D8F JUMPI PUSH2 0x1D8E PUSH2 0x187B JUMP JUMPDEST JUMPDEST POP PUSH2 0x1DF4 JUMP JUMPDEST POP PUSH1 0x20 DUP4 LT PUSH2 0x133 DUP4 LT AND PUSH1 0x4E DUP5 LT PUSH1 0xB DUP5 LT AND OR ISZERO PUSH2 0x1DCA JUMPI DUP3 DUP3 EXP SWAP1 POP DUP4 DUP2 GT ISZERO PUSH2 0x1DC5 JUMPI PUSH2 0x1DC4 PUSH2 0x187B JUMP JUMPDEST JUMPDEST PUSH2 0x1DF4 JUMP JUMPDEST PUSH2 0x1DD7 DUP5 DUP5 DUP5 PUSH1 0x1 PUSH2 0x1CD5 JUMP JUMPDEST SWAP3 POP SWAP1 POP DUP2 DUP5 DIV DUP2 GT ISZERO PUSH2 0x1DEE JUMPI PUSH2 0x1DED PUSH2 0x187B JUMP JUMPDEST JUMPDEST DUP2 DUP2 MUL SWAP1 POP JUMPDEST SWAP4 SWAP3 POP POP POP JUMP JUMPDEST PUSH1 0x0 PUSH2 0x1E06 DUP3 PUSH2 0x136A JUMP JUMPDEST SWAP2 POP PUSH2 0x1E11 DUP4 PUSH2 0x136A JUMP JUMPDEST SWAP3 POP PUSH2 0x1E3E PUSH32 0xFFFFFFFFFFFFFFFFFFFFFFFFFFFFFFFFFFFFFFFFFFFFFFFFFFFFFFFFFFFFFFFF DUP5 DUP5 PUSH2 0x1D28 JUMP JUMPDEST SWAP1 POP SWAP3 SWAP2 POP POP JUMP INVALID PUSH9 0x747470733A2F2F6D69 PUSH15 0x2D6170692E63727970746F636F6D70 PUSH2 0x7265 0x2E PUSH4 0x6F6D2F64 PUSH2 0x7461 0x2F PUSH17 0x726963653F6673796D3D45544826747379 PUSH14 0x733D55534468747470733A2F2F6D PUSH10 0x6E2D6170692E63727970 PUSH21 0x6F636F6D706172652E636F6D2F646174612F707269 PUSH4 0x653F6673 PUSH26 0x6D3D455448267473796D733D42544368747470733A2F2F6D696E 0x2D PUSH2 0x7069 0x2E PUSH4 0x72797074 PUSH16 0x636F6D706172652E636F6D2F64617461 0x2F PUSH17 0x726963653F6673796D3D45544826747379 PUSH14 0x733D455552A26469706673582212 KECCAK256 RETURNDATASIZE PREVRANDAO PUSH30 0x9090E8042E7A60BC62E10326D773A4FBD9518F1FA9103AAD886370EE1164 PUSH20 0x6F6C634300081200330000000000000000000000 "
		},
		"gasEstimates": {
			"creation": {
				"codeDepositCost": "1598600",
				"executionCost": "infinite",
				"totalCost": "infinite"
			},
			"external": {
				"acceptOwnership()": "54585",
				"btc()": "2451",
				"eur()": "2452",
				"fulfillMultipleParameters(bytes32,uint256,uint256,uint256)": "infinite",
				"owner()": "2589",
				"requestMultipleParameters()": "infinite",
				"transferOwnership(address)": "30726",
				"usd()": "2473",
				"withdrawLink()": "infinite"
			}
		},
		"methodIdentifiers": {
			"acceptOwnership()": "79ba5097",
			"btc()": "a28d57d8",
			"eur()": "7439ae59",
			"fulfillMultipleParameters(bytes32,uint256,uint256,uint256)": "fda4417b",
			"owner()": "8da5cb5b",
			"requestMultipleParameters()": "4a3afb47",
			"transferOwnership(address)": "f2fde38b",
			"usd()": "d63a6ccd",
			"withdrawLink()": "8dc654a2"
		}
	},
	"abi": [
		{
			"inputs": [],
			"stateMutability": "nonpayable",
			"type": "constructor"
		},
		{
			"anonymous": false,
			"inputs": [
				{
					"indexed": true,
					"internalType": "bytes32",
					"name": "id",
					"type": "bytes32"
				}
			],
			"name": "ChainlinkCancelled",
			"type": "event"
		},
		{
			"anonymous": false,
			"inputs": [
				{
					"indexed": true,
					"internalType": "bytes32",
					"name": "id",
					"type": "bytes32"
				}
			],
			"name": "ChainlinkFulfilled",
			"type": "event"
		},
		{
			"anonymous": false,
			"inputs": [
				{
					"indexed": true,
					"internalType": "bytes32",
					"name": "id",
					"type": "bytes32"
				}
			],
			"name": "ChainlinkRequested",
			"type": "event"
		},
		{
			"anonymous": false,
			"inputs": [
				{
					"indexed": true,
					"internalType": "address",
					"name": "from",
					"type": "address"
				},
				{
					"indexed": true,
					"internalType": "address",
					"name": "to",
					"type": "address"
				}
			],
			"name": "OwnershipTransferRequested",
			"type": "event"
		},
		{
			"anonymous": false,
			"inputs": [
				{
					"indexed": true,
					"internalType": "address",
					"name": "from",
					"type": "address"
				},
				{
					"indexed": true,
					"internalType": "address",
					"name": "to",
					"type": "address"
				}
			],
			"name": "OwnershipTransferred",
			"type": "event"
		},
		{
			"anonymous": false,
			"inputs": [
				{
					"indexed": true,
					"internalType": "bytes32",
					"name": "requestId",
					"type": "bytes32"
				},
				{
					"indexed": false,
					"internalType": "uint256",
					"name": "btc",
					"type": "uint256"
				},
				{
					"indexed": false,
					"internalType": "uint256",
					"name": "usd",
					"type": "uint256"
				},
				{
					"indexed": false,
					"internalType": "uint256",
					"name": "eur",
					"type": "uint256"
				}
			],
			"name": "RequestMultipleFulfilled",
			"type": "event"
		},
		{
			"inputs": [],
			"name": "acceptOwnership",
			"outputs": [],
			"stateMutability": "nonpayable",
			"type": "function"
		},
		{
			"inputs": [],
			"name": "btc",
			"outputs": [
				{
					"internalType": "uint256",
					"name": "",
					"type": "uint256"
				}
			],
			"stateMutability": "view",
			"type": "function"
		},
		{
			"inputs": [],
			"name": "eur",
			"outputs": [
				{
					"internalType": "uint256",
					"name": "",
					"type": "uint256"
				}
			],
			"stateMutability": "view",
			"type": "function"
		},
		{
			"inputs": [
				{
					"internalType": "bytes32",
					"name": "requestId",
					"type": "bytes32"
				},
				{
					"internalType": "uint256",
					"name": "btcResponse",
					"type": "uint256"
				},
				{
					"internalType": "uint256",
					"name": "usdResponse",
					"type": "uint256"
				},
				{
					"internalType": "uint256",
					"name": "eurResponse",
					"type": "uint256"
				}
			],
			"name": "fulfillMultipleParameters",
			"outputs": [],
			"stateMutability": "nonpayable",
			"type": "function"
		},
		{
			"inputs": [],
			"name": "owner",
			"outputs": [
				{
					"internalType": "address",
					"name": "",
					"type": "address"
				}
			],
			"stateMutability": "view",
			"type": "function"
		},
		{
			"inputs": [],
			"name": "requestMultipleParameters",
			"outputs": [],
			"stateMutability": "nonpayable",
			"type": "function"
		},
		{
			"inputs": [
				{
					"internalType": "address",
					"name": "to",
					"type": "address"
				}
			],
			"name": "transferOwnership",
			"outputs": [],
			"stateMutability": "nonpayable",
			"type": "function"
		},
		{
			"inputs": [],
			"name": "usd",
			"outputs": [
				{
					"internalType": "uint256",
					"name": "",
					"type": "uint256"
				}
			],
			"stateMutability": "view",
			"type": "function"
		},
		{
			"inputs": [],
			"name": "withdrawLink",
			"outputs": [],
			"stateMutability": "nonpayable",
			"type": "function"
		}
	]
}