{
	"data": {
		"bytecode": {
			"linkReferences": {},
			"object": "6080604052600160045560026008553480156200001b57600080fd5b5033600a60006101000a81548173ffffffffffffffffffffffffffffffffffffffff021916908373ffffffffffffffffffffffffffffffffffffffff1602179055506200008273779877a7b0d9e8603169ddbd7836e478b4624789620000ff60201b60201c565b620000a7736090149792daaee9d1d568c9f9a6f6b46aa29efd6200014360201b60201c565b7f6361393833363663633733313439353762386330313263373266303561656562600c81905550600a670de0b6b3a76400006001620000e79190620001c0565b620000f391906200023a565b600d8190555062000272565b80600260006101000a81548173ffffffffffffffffffffffffffffffffffffffff021916908373ffffffffffffffffffffffffffffffffffffffff16021790555050565b80600360006101000a81548173ffffffffffffffffffffffffffffffffffffffff021916908373ffffffffffffffffffffffffffffffffffffffff16021790555050565b6000819050919050565b7f4e487b7100000000000000000000000000000000000000000000000000000000600052601160045260246000fd5b6000620001cd8262000187565b9150620001da8362000187565b9250828202620001ea8162000187565b9150828204841483151762000204576200020362000191565b5b5092915050565b7f4e487b7100000000000000000000000000000000000000000000000000000000600052601260045260246000fd5b6000620002478262000187565b9150620002548362000187565b9250826200026757620002666200020b565b5b828204905092915050565b6121bc80620002826000396000f3fe6080604052600436106100dd5760003560e01c8063820e8cf11161007f578063913e77ad11610059578063913e77ad14610243578063afe1b9371461026e578063d6614abc14610299578063fad778b4146102c4576100dd565b8063820e8cf1146101ea578063887d95fe146102015780638dc654a21461022c576100dd565b806342f6487a116100bb57806342f6487a146101635780634357855e1461016d578063574c72e71461019657806380f1fdd8146101bf576100dd565b806312065fe0146100e257806316eab96b1461010d57806327bf280314610138575b600080fd5b3480156100ee57600080fd5b506100f76102ef565b604051610104919061170e565b60405180910390f35b34801561011957600080fd5b5061012261030e565b60405161012f919061170e565b60405180910390f35b34801561014457600080fd5b5061014d610314565b60405161015a919061176a565b60405180910390f35b61016b61033a565b005b34801561017957600080fd5b50610194600480360381019061018f91906117ec565b61045e565b005b3480156101a257600080fd5b506101bd60048036038101906101b891906117ec565b6105a7565b005b3480156101cb57600080fd5b506101d46106f0565b6040516101e1919061170e565b60405180910390f35b3480156101f657600080fd5b506101ff6106f6565b005b34801561020d57600080fd5b5061021661074b565b604051610223919061170e565b60405180910390f35b34801561023857600080fd5b50610241610751565b005b34801561024f57600080fd5b5061025861095f565b604051610265919061176a565b60405180910390f35b34801561027a57600080fd5b50610283610985565b604051610290919061170e565b60405180910390f35b3480156102a557600080fd5b506102ae61098b565b6040516102bb919061183b565b60405180910390f35b3480156102d057600080fd5b506102d9610ae8565b6040516102e6919061183b565b60405180910390f35b60003373ffffffffffffffffffffffffffffffffffffffff1631905090565b60095481565b600b60009054906101000a900473ffffffffffffffffffffffffffffffffffffffff1681565b61028560065410158015610352575061029b60065411155b610391576040517f08c379a0000000000000000000000000000000000000000000000000000000008152600401610388906118b3565b60405180910390fd5b6101d1600754101580156103a9575061020e60075411155b6103e8576040517f08c379a00000000000000000000000000000000000000000000000000000000081526004016103df906118b3565b60405180910390fd5b600854600981905550600b60009054906101000a900473ffffffffffffffffffffffffffffffffffffffff1673ffffffffffffffffffffffffffffffffffffffff166108fc6009549081150290604051600060405180830381858888f1935050505015801561045b573d6000803e3d6000fd5b50565b816005600082815260200190815260200160002060009054906101000a900473ffffffffffffffffffffffffffffffffffffffff1673ffffffffffffffffffffffffffffffffffffffff163373ffffffffffffffffffffffffffffffffffffffff1614610500576040517f08c379a00000000000000000000000000000000000000000000000000000000081526004016104f790611945565b60405180910390fd5b6005600082815260200190815260200160002060006101000a81549073ffffffffffffffffffffffffffffffffffffffff0219169055807f7cc135e0cebb02c3480ae5d74d377283180a2601f8f644edf7987b009316c63a60405160405180910390a2827f4b09c2e126c9abe20e495999b71bec9b392132c5626a41019fa729c44bf79bc483604051610593919061170e565b60405180910390a281600681905550505050565b816005600082815260200190815260200160002060009054906101000a900473ffffffffffffffffffffffffffffffffffffffff1673ffffffffffffffffffffffffffffffffffffffff163373ffffffffffffffffffffffffffffffffffffffff1614610649576040517f08c379a000000000000000000000000000000000000000000000000000000000815260040161064090611945565b60405180910390fd5b6005600082815260200190815260200160002060006101000a81549073ffffffffffffffffffffffffffffffffffffffff0219169055807f7cc135e0cebb02c3480ae5d74d377283180a2601f8f644edf7987b009316c63a60405160405180910390a2827f01bef700a952b1095949b0f44be20208335cec7513a727d2eb271e734e0f88f9836040516106dc919061170e565b60405180910390a281600781905550505050565b60085481565b6106fe61098b565b50610707610ae8565b5033600b60006101000a81548173ffffffffffffffffffffffffffffffffffffffff021916908373ffffffffffffffffffffffffffffffffffffffff160217905550565b60075481565b600a60009054906101000a900473ffffffffffffffffffffffffffffffffffffffff1673ffffffffffffffffffffffffffffffffffffffff163373ffffffffffffffffffffffffffffffffffffffff161480156107db5750600073ffffffffffffffffffffffffffffffffffffffff163373ffffffffffffffffffffffffffffffffffffffff1614155b61081a576040517f08c379a0000000000000000000000000000000000000000000000000000000008152600401610811906119b1565b60405180910390fd5b6000610824610c45565b90508073ffffffffffffffffffffffffffffffffffffffff1663a9059cbb338373ffffffffffffffffffffffffffffffffffffffff166370a08231306040518263ffffffff1660e01b815260040161087c91906119f2565b602060405180830381865afa158015610899573d6000803e3d6000fd5b505050506040513d601f19601f820116820180604052508101906108bd9190611a22565b6040518363ffffffff1660e01b81526004016108da929190611a4f565b6020604051808303816000875af11580156108f9573d6000803e3d6000fd5b505050506040513d601f19601f8201168201806040525081019061091d9190611ab0565b61095c576040517f08c379a000000000000000000000000000000000000000000000000000000000815260040161095390611b29565b60405180910390fd5b50565b600a60009054906101000a900473ffffffffffffffffffffffffffffffffffffffff1681565b60065481565b6000806109a2600c5430634357855e60e01b610c6f565b9050610a066040518060400160405280600381526020017f67657400000000000000000000000000000000000000000000000000000000008152506040518060600160405280603481526020016121536034913983610ca09092919063ffffffff16565b610a856040518060400160405280600481526020017f70617468000000000000000000000000000000000000000000000000000000008152506040518060400160405280600281526020017f506800000000000000000000000000000000000000000000000000000000000081525083610ca09092919063ffffffff16565b600060649050610ad56040518060400160405280600581526020017f74696d65730000000000000000000000000000000000000000000000000000008152508284610cd39092919063ffffffff16565b610ae182600d54610d06565b9250505090565b600080610aff600c543063574c72e760e01b610c6f565b9050610b636040518060400160405280600381526020017f67657400000000000000000000000000000000000000000000000000000000008152506040518060600160405280603481526020016121536034913983610ca09092919063ffffffff16565b610be26040518060400160405280600481526020017f70617468000000000000000000000000000000000000000000000000000000008152506040518060400160405280600281526020017f456300000000000000000000000000000000000000000000000000000000000081525083610ca09092919063ffffffff16565b600060649050610c326040518060400160405280600581526020017f74696d65730000000000000000000000000000000000000000000000000000008152508284610cd39092919063ffffffff16565b610c3e82600d54610d06565b9250505090565b6000600260009054906101000a900473ffffffffffffffffffffffffffffffffffffffff16905090565b610c7761166e565b610c7f61166e565b610c9685858584610d3d909392919063ffffffff16565b9150509392505050565b610cb7828460800151610ded90919063ffffffff16565b610cce818460800151610ded90919063ffffffff16565b505050565b610cea828460800151610ded90919063ffffffff16565b610d01818460800151610e1290919063ffffffff16565b505050565b6000610d35600360009054906101000a900473ffffffffffffffffffffffffffffffffffffffff168484610ebf565b905092915050565b610d4561166e565b610d558560800151610100610f8b565b508385600001818152505082856020019073ffffffffffffffffffffffffffffffffffffffff16908173ffffffffffffffffffffffffffffffffffffffff16815250508185604001907bffffffffffffffffffffffffffffffffffffffffffffffffffffffff191690817bffffffffffffffffffffffffffffffffffffffffffffffffffffffff191681525050849050949350505050565b610dfa8260038351610ff5565b610e0d818361117a90919063ffffffff16565b505050565b7fffffffffffffffffffffffffffffffffffffffffffffffff0000000000000000811215610e4957610e44828261119c565b610ebb565b67ffffffffffffffff811315610e6857610e638282611213565b610eba565b60008112610e8157610e7c82600083610ff5565b610eb9565b610eb8826001837fffffffffffffffffffffffffffffffffffffffffffffffffffffffffffffffff610eb39190611b82565b610ff5565b5b5b5b5050565b6000806004549050600181610ed49190611bc5565b6004819055506000634042994660e01b60008087600001513089604001518760018c6080015160000151604051602401610f15989796959493929190611cc4565b604051602081830303815290604052907bffffffffffffffffffffffffffffffffffffffffffffffffffffffff19166020820180517bffffffffffffffffffffffffffffffffffffffffffffffffffffffff83818316178352505050509050610f808683868461125f565b925050509392505050565b610f936116db565b6000602083610fa29190611d78565b14610fce57602082610fb49190611d78565b6020610fc09190611da9565b82610fcb9190611bc5565b91505b81836020018181525050604051808452600081528281016020016040525082905092915050565b60178167ffffffffffffffff161161102c576110268160058460ff16901b60ff1617846113f490919063ffffffff16565b50611175565b60ff8167ffffffffffffffff16116110825761105b601860058460ff16901b17846113f490919063ffffffff16565b5061107c8167ffffffffffffffff166001856114149092919063ffffffff16565b50611174565b61ffff8167ffffffffffffffff16116110d9576110b2601960058460ff16901b17846113f490919063ffffffff16565b506110d38167ffffffffffffffff166002856114149092919063ffffffff16565b50611173565b63ffffffff8167ffffffffffffffff16116111325761110b601a60058460ff16901b17846113f490919063ffffffff16565b5061112c8167ffffffffffffffff166004856114149092919063ffffffff16565b50611172565b61114f601b60058460ff16901b17846113f490919063ffffffff16565b506111708167ffffffffffffffff166008856114149092919063ffffffff16565b505b5b5b5b505050565b6111826116db565b61119483846000015151848551611436565b905092915050565b6111ba60036005600660ff16901b17836113f490919063ffffffff16565b5061120f82827fffffffffffffffffffffffffffffffffffffffffffffffffffffffffffffffff6111eb9190611b82565b6040516020016111fb919061170e565b604051602081830303815290604052611525565b5050565b61123160026005600660ff16901b17836113f490919063ffffffff16565b5061125b8282604051602001611247919061170e565b604051602081830303815290604052611525565b5050565b60003084604051602001611274929190611e96565b604051602081830303815290604052805190602001209050846005600083815260200190815260200160002060006101000a81548173ffffffffffffffffffffffffffffffffffffffff021916908373ffffffffffffffffffffffffffffffffffffffff160217905550807fb5e6e01e79f91267dc17b4e6314d5d4d03593d2ceee0fbb452b750bd70ea5af960405160405180910390a2600260009054906101000a900473ffffffffffffffffffffffffffffffffffffffff1673ffffffffffffffffffffffffffffffffffffffff16634000aea08685856040518463ffffffff1660e01b815260040161136a93929190611ec2565b6020604051808303816000875af1158015611389573d6000803e3d6000fd5b505050506040513d601f19601f820116820180604052508101906113ad9190611ab0565b6113ec576040517f08c379a00000000000000000000000000000000000000000000000000000000081526004016113e390611f72565b60405180910390fd5b949350505050565b6113fc6116db565b61140c838460000151518461154a565b905092915050565b61141c6116db565b61142d8485600001515185856115a0565b90509392505050565b61143e6116db565b825182111561144c57600080fd5b8460200151828561145d9190611bc5565b1115611492576114918560026114828860200151888761147d9190611bc5565b61162e565b61148c9190611f92565b61164a565b5b6000808651805187602083010193508088870111156114b15787860182525b60208701925050505b602084106114f857805182526020826114d39190611bc5565b91506020816114e29190611bc5565b90506020846114f19190611da9565b93506114ba565b60006001856020036101000a03905080198251168184511681811785525050508692505050949350505050565b6115328260028351610ff5565b611545818361117a90919063ffffffff16565b505050565b6115526116db565b836020015183106115785761157784600286602001516115729190611f92565b61164a565b5b83518051602085830101848153818603611593576001820183525b5050508390509392505050565b6115a86116db565b846020015184836115b99190611bc5565b11156115e1576115e085600286856115d19190611bc5565b6115db9190611f92565b61164a565b5b60006001836101006115f39190612107565b6115fd9190611da9565b905085518386820101858319825116178152815185880111156116205784870182525b505085915050949350505050565b60008183111561164057829050611644565b8190505b92915050565b60008260000151905061165d8383610f8b565b50611668838261117a565b50505050565b6040518060a0016040528060008019168152602001600073ffffffffffffffffffffffffffffffffffffffff16815260200160007bffffffffffffffffffffffffffffffffffffffffffffffffffffffff19168152602001600081526020016116d56116db565b81525090565b604051806040016040528060608152602001600081525090565b6000819050919050565b611708816116f5565b82525050565b600060208201905061172360008301846116ff565b92915050565b600073ffffffffffffffffffffffffffffffffffffffff82169050919050565b600061175482611729565b9050919050565b61176481611749565b82525050565b600060208201905061177f600083018461175b565b92915050565b600080fd5b6000819050919050565b61179d8161178a565b81146117a857600080fd5b50565b6000813590506117ba81611794565b92915050565b6117c9816116f5565b81146117d457600080fd5b50565b6000813590506117e6816117c0565b92915050565b6000806040838503121561180357611802611785565b5b6000611811858286016117ab565b9250506020611822858286016117d7565b9150509250929050565b6118358161178a565b82525050565b6000602082019050611850600083018461182c565b92915050565b600082825260208201905092915050565b7f6164756c74657261746564206d696c6b2c6e6f207061796d656e740000000000600082015250565b600061189d601b83611856565b91506118a882611867565b602082019050919050565b600060208201905081810360008301526118cc81611890565b9050919050565b7f536f75726365206d75737420626520746865206f7261636c65206f662074686560008201527f2072657175657374000000000000000000000000000000000000000000000000602082015250565b600061192f602883611856565b915061193a826118d3565b604082019050919050565b6000602082019050818103600083015261195e81611922565b9050919050565b7f696e76616c6964206f7220756e617574686f7269736564206164647265737300600082015250565b600061199b601f83611856565b91506119a682611965565b602082019050919050565b600060208201905081810360008301526119ca8161198e565b9050919050565b60006119dc82611729565b9050919050565b6119ec816119d1565b82525050565b6000602082019050611a0760008301846119e3565b92915050565b600081519050611a1c816117c0565b92915050565b600060208284031215611a3857611a37611785565b5b6000611a4684828501611a0d565b91505092915050565b6000604082019050611a6460008301856119e3565b611a7160208301846116ff565b9392505050565b60008115159050919050565b611a8d81611a78565b8114611a9857600080fd5b50565b600081519050611aaa81611a84565b92915050565b600060208284031215611ac657611ac5611785565b5b6000611ad484828501611a9b565b91505092915050565b7f556e61626c6520746f207472616e736665720000000000000000000000000000600082015250565b6000611b13601283611856565b9150611b1e82611add565b602082019050919050565b60006020820190508181036000830152611b4281611b06565b9050919050565b6000819050919050565b7f4e487b7100000000000000000000000000000000000000000000000000000000600052601160045260246000fd5b6000611b8d82611b49565b9150611b9883611b49565b9250828203905081811260008412168282136000851215161715611bbf57611bbe611b53565b5b92915050565b6000611bd0826116f5565b9150611bdb836116f5565b9250828201905080821115611bf357611bf2611b53565b5b92915050565b60007fffffffff0000000000000000000000000000000000000000000000000000000082169050919050565b611c2e81611bf9565b82525050565b600081519050919050565b600082825260208201905092915050565b60005b83811015611c6e578082015181840152602081019050611c53565b60008484015250505050565b6000601f19601f8301169050919050565b6000611c9682611c34565b611ca08185611c3f565b9350611cb0818560208601611c50565b611cb981611c7a565b840191505092915050565b600061010082019050611cda600083018b6119e3565b611ce7602083018a6116ff565b611cf4604083018961182c565b611d0160608301886119e3565b611d0e6080830187611c25565b611d1b60a08301866116ff565b611d2860c08301856116ff565b81810360e0830152611d3a8184611c8b565b90509998505050505050505050565b7f4e487b7100000000000000000000000000000000000000000000000000000000600052601260045260246000fd5b6000611d83826116f5565b9150611d8e836116f5565b925082611d9e57611d9d611d49565b5b828206905092915050565b6000611db4826116f5565b9150611dbf836116f5565b9250828203905081811115611dd757611dd6611b53565b5b92915050565b6000819050919050565b6000611e02611dfd611df884611729565b611ddd565b611729565b9050919050565b6000611e1482611de7565b9050919050565b6000611e2682611e09565b9050919050565b60008160601b9050919050565b6000611e4582611e2d565b9050919050565b6000611e5782611e3a565b9050919050565b611e6f611e6a82611e1b565b611e4c565b82525050565b6000819050919050565b611e90611e8b826116f5565b611e75565b82525050565b6000611ea28285611e5e565b601482019150611eb28284611e7f565b6020820191508190509392505050565b6000606082019050611ed760008301866119e3565b611ee460208301856116ff565b8181036040830152611ef68184611c8b565b9050949350505050565b7f756e61626c6520746f207472616e73666572416e6443616c6c20746f206f726160008201527f636c650000000000000000000000000000000000000000000000000000000000602082015250565b6000611f5c602383611856565b9150611f6782611f00565b604082019050919050565b60006020820190508181036000830152611f8b81611f4f565b9050919050565b6000611f9d826116f5565b9150611fa8836116f5565b9250828202611fb6816116f5565b91508282048414831517611fcd57611fcc611b53565b5b5092915050565b60008160011c9050919050565b6000808291508390505b600185111561202b5780860481111561200757612006611b53565b5b60018516156120165780820291505b808102905061202485611fd4565b9450611feb565b94509492505050565b6000826120445760019050612100565b816120525760009050612100565b81600181146120685760028114612072576120a1565b6001915050612100565b60ff84111561208457612083611b53565b5b8360020a91508482111561209b5761209a611b53565b5b50612100565b5060208310610133831016604e8410600b84101617156120d65782820a9050838111156120d1576120d0611b53565b5b612100565b6120e38484846001611fe1565b925090508184048111156120fa576120f9611b53565b5b81810290505b9392505050565b6000612112826116f5565b915061211d836116f5565b925061214a7fffffffffffffffffffffffffffffffffffffffffffffffffffffffffffffffff8484612034565b90509291505056fe68747470733a2f2f666979742d61363234342d64656661756c742d727464622e6669726562617365696f2e636f6d2f2e6a736f6ea2646970667358221220b77d4414711ec31c5d2c5f3629943a87c021e9f71c12fd4f8c3bae00ce9c2cb664736f6c63430008120033",
			"opcodes": "PUSH1 0x80 PUSH1 0x40 MSTORE PUSH1 0x1 PUSH1 0x4 SSTORE PUSH1 0x2 PUSH1 0x8 SSTORE CALLVALUE DUP1 ISZERO PUSH3 0x1B JUMPI PUSH1 0x0 DUP1 REVERT JUMPDEST POP CALLER PUSH1 0xA PUSH1 0x0 PUSH2 0x100 EXP DUP2 SLOAD DUP2 PUSH20 0xFFFFFFFFFFFFFFFFFFFFFFFFFFFFFFFFFFFFFFFF MUL NOT AND SWAP1 DUP4 PUSH20 0xFFFFFFFFFFFFFFFFFFFFFFFFFFFFFFFFFFFFFFFF AND MUL OR SWAP1 SSTORE POP PUSH3 0x82 PUSH20 0x779877A7B0D9E8603169DDBD7836E478B4624789 PUSH3 0xFF PUSH1 0x20 SHL PUSH1 0x20 SHR JUMP JUMPDEST PUSH3 0xA7 PUSH20 0x6090149792DAAEE9D1D568C9F9A6F6B46AA29EFD PUSH3 0x143 PUSH1 0x20 SHL PUSH1 0x20 SHR JUMP JUMPDEST PUSH32 0x6361393833363663633733313439353762386330313263373266303561656562 PUSH1 0xC DUP2 SWAP1 SSTORE POP PUSH1 0xA PUSH8 0xDE0B6B3A7640000 PUSH1 0x1 PUSH3 0xE7 SWAP2 SWAP1 PUSH3 0x1C0 JUMP JUMPDEST PUSH3 0xF3 SWAP2 SWAP1 PUSH3 0x23A JUMP JUMPDEST PUSH1 0xD DUP2 SWAP1 SSTORE POP PUSH3 0x272 JUMP JUMPDEST DUP1 PUSH1 0x2 PUSH1 0x0 PUSH2 0x100 EXP DUP2 SLOAD DUP2 PUSH20 0xFFFFFFFFFFFFFFFFFFFFFFFFFFFFFFFFFFFFFFFF MUL NOT AND SWAP1 DUP4 PUSH20 0xFFFFFFFFFFFFFFFFFFFFFFFFFFFFFFFFFFFFFFFF AND MUL OR SWAP1 SSTORE POP POP JUMP JUMPDEST DUP1 PUSH1 0x3 PUSH1 0x0 PUSH2 0x100 EXP DUP2 SLOAD DUP2 PUSH20 0xFFFFFFFFFFFFFFFFFFFFFFFFFFFFFFFFFFFFFFFF MUL NOT AND SWAP1 DUP4 PUSH20 0xFFFFFFFFFFFFFFFFFFFFFFFFFFFFFFFFFFFFFFFF AND MUL OR SWAP1 SSTORE POP POP JUMP JUMPDEST PUSH1 0x0 DUP2 SWAP1 POP SWAP2 SWAP1 POP JUMP JUMPDEST PUSH32 0x4E487B7100000000000000000000000000000000000000000000000000000000 PUSH1 0x0 MSTORE PUSH1 0x11 PUSH1 0x4 MSTORE PUSH1 0x24 PUSH1 0x0 REVERT JUMPDEST PUSH1 0x0 PUSH3 0x1CD DUP3 PUSH3 0x187 JUMP JUMPDEST SWAP2 POP PUSH3 0x1DA DUP4 PUSH3 0x187 JUMP JUMPDEST SWAP3 POP DUP3 DUP3 MUL PUSH3 0x1EA DUP2 PUSH3 0x187 JUMP JUMPDEST SWAP2 POP DUP3 DUP3 DIV DUP5 EQ DUP4 ISZERO OR PUSH3 0x204 JUMPI PUSH3 0x203 PUSH3 0x191 JUMP JUMPDEST JUMPDEST POP SWAP3 SWAP2 POP POP JUMP JUMPDEST PUSH32 0x4E487B7100000000000000000000000000000000000000000000000000000000 PUSH1 0x0 MSTORE PUSH1 0x12 PUSH1 0x4 MSTORE PUSH1 0x24 PUSH1 0x0 REVERT JUMPDEST PUSH1 0x0 PUSH3 0x247 DUP3 PUSH3 0x187 JUMP JUMPDEST SWAP2 POP PUSH3 0x254 DUP4 PUSH3 0x187 JUMP JUMPDEST SWAP3 POP DUP3 PUSH3 0x267 JUMPI PUSH3 0x266 PUSH3 0x20B JUMP JUMPDEST JUMPDEST DUP3 DUP3 DIV SWAP1 POP SWAP3 SWAP2 POP POP JUMP JUMPDEST PUSH2 0x21BC DUP1 PUSH3 0x282 PUSH1 0x0 CODECOPY PUSH1 0x0 RETURN INVALID PUSH1 0x80 PUSH1 0x40 MSTORE PUSH1 0x4 CALLDATASIZE LT PUSH2 0xDD JUMPI PUSH1 0x0 CALLDATALOAD PUSH1 0xE0 SHR DUP1 PUSH4 0x820E8CF1 GT PUSH2 0x7F JUMPI DUP1 PUSH4 0x913E77AD GT PUSH2 0x59 JUMPI DUP1 PUSH4 0x913E77AD EQ PUSH2 0x243 JUMPI DUP1 PUSH4 0xAFE1B937 EQ PUSH2 0x26E JUMPI DUP1 PUSH4 0xD6614ABC EQ PUSH2 0x299 JUMPI DUP1 PUSH4 0xFAD778B4 EQ PUSH2 0x2C4 JUMPI PUSH2 0xDD JUMP JUMPDEST DUP1 PUSH4 0x820E8CF1 EQ PUSH2 0x1EA JUMPI DUP1 PUSH4 0x887D95FE EQ PUSH2 0x201 JUMPI DUP1 PUSH4 0x8DC654A2 EQ PUSH2 0x22C JUMPI PUSH2 0xDD JUMP JUMPDEST DUP1 PUSH4 0x42F6487A GT PUSH2 0xBB JUMPI DUP1 PUSH4 0x42F6487A EQ PUSH2 0x163 JUMPI DUP1 PUSH4 0x4357855E EQ PUSH2 0x16D JUMPI DUP1 PUSH4 0x574C72E7 EQ PUSH2 0x196 JUMPI DUP1 PUSH4 0x80F1FDD8 EQ PUSH2 0x1BF JUMPI PUSH2 0xDD JUMP JUMPDEST DUP1 PUSH4 0x12065FE0 EQ PUSH2 0xE2 JUMPI DUP1 PUSH4 0x16EAB96B EQ PUSH2 0x10D JUMPI DUP1 PUSH4 0x27BF2803 EQ PUSH2 0x138 JUMPI JUMPDEST PUSH1 0x0 DUP1 REVERT JUMPDEST CALLVALUE DUP1 ISZERO PUSH2 0xEE JUMPI PUSH1 0x0 DUP1 REVERT JUMPDEST POP PUSH2 0xF7 PUSH2 0x2EF JUMP JUMPDEST PUSH1 0x40 MLOAD PUSH2 0x104 SWAP2 SWAP1 PUSH2 0x170E JUMP JUMPDEST PUSH1 0x40 MLOAD DUP1 SWAP2 SUB SWAP1 RETURN JUMPDEST CALLVALUE DUP1 ISZERO PUSH2 0x119 JUMPI PUSH1 0x0 DUP1 REVERT JUMPDEST POP PUSH2 0x122 PUSH2 0x30E JUMP JUMPDEST PUSH1 0x40 MLOAD PUSH2 0x12F SWAP2 SWAP1 PUSH2 0x170E JUMP JUMPDEST PUSH1 0x40 MLOAD DUP1 SWAP2 SUB SWAP1 RETURN JUMPDEST CALLVALUE DUP1 ISZERO PUSH2 0x144 JUMPI PUSH1 0x0 DUP1 REVERT JUMPDEST POP PUSH2 0x14D PUSH2 0x314 JUMP JUMPDEST PUSH1 0x40 MLOAD PUSH2 0x15A SWAP2 SWAP1 PUSH2 0x176A JUMP JUMPDEST PUSH1 0x40 MLOAD DUP1 SWAP2 SUB SWAP1 RETURN JUMPDEST PUSH2 0x16B PUSH2 0x33A JUMP JUMPDEST STOP JUMPDEST CALLVALUE DUP1 ISZERO PUSH2 0x179 JUMPI PUSH1 0x0 DUP1 REVERT JUMPDEST POP PUSH2 0x194 PUSH1 0x4 DUP1 CALLDATASIZE SUB DUP2 ADD SWAP1 PUSH2 0x18F SWAP2 SWAP1 PUSH2 0x17EC JUMP JUMPDEST PUSH2 0x45E JUMP JUMPDEST STOP JUMPDEST CALLVALUE DUP1 ISZERO PUSH2 0x1A2 JUMPI PUSH1 0x0 DUP1 REVERT JUMPDEST POP PUSH2 0x1BD PUSH1 0x4 DUP1 CALLDATASIZE SUB DUP2 ADD SWAP1 PUSH2 0x1B8 SWAP2 SWAP1 PUSH2 0x17EC JUMP JUMPDEST PUSH2 0x5A7 JUMP JUMPDEST STOP JUMPDEST CALLVALUE DUP1 ISZERO PUSH2 0x1CB JUMPI PUSH1 0x0 DUP1 REVERT JUMPDEST POP PUSH2 0x1D4 PUSH2 0x6F0 JUMP JUMPDEST PUSH1 0x40 MLOAD PUSH2 0x1E1 SWAP2 SWAP1 PUSH2 0x170E JUMP JUMPDEST PUSH1 0x40 MLOAD DUP1 SWAP2 SUB SWAP1 RETURN JUMPDEST CALLVALUE DUP1 ISZERO PUSH2 0x1F6 JUMPI PUSH1 0x0 DUP1 REVERT JUMPDEST POP PUSH2 0x1FF PUSH2 0x6F6 JUMP JUMPDEST STOP JUMPDEST CALLVALUE DUP1 ISZERO PUSH2 0x20D JUMPI PUSH1 0x0 DUP1 REVERT JUMPDEST POP PUSH2 0x216 PUSH2 0x74B JUMP JUMPDEST PUSH1 0x40 MLOAD PUSH2 0x223 SWAP2 SWAP1 PUSH2 0x170E JUMP JUMPDEST PUSH1 0x40 MLOAD DUP1 SWAP2 SUB SWAP1 RETURN JUMPDEST CALLVALUE DUP1 ISZERO PUSH2 0x238 JUMPI PUSH1 0x0 DUP1 REVERT JUMPDEST POP PUSH2 0x241 PUSH2 0x751 JUMP JUMPDEST STOP JUMPDEST CALLVALUE DUP1 ISZERO PUSH2 0x24F JUMPI PUSH1 0x0 DUP1 REVERT JUMPDEST POP PUSH2 0x258 PUSH2 0x95F JUMP JUMPDEST PUSH1 0x40 MLOAD PUSH2 0x265 SWAP2 SWAP1 PUSH2 0x176A JUMP JUMPDEST PUSH1 0x40 MLOAD DUP1 SWAP2 SUB SWAP1 RETURN JUMPDEST CALLVALUE DUP1 ISZERO PUSH2 0x27A JUMPI PUSH1 0x0 DUP1 REVERT JUMPDEST POP PUSH2 0x283 PUSH2 0x985 JUMP JUMPDEST PUSH1 0x40 MLOAD PUSH2 0x290 SWAP2 SWAP1 PUSH2 0x170E JUMP JUMPDEST PUSH1 0x40 MLOAD DUP1 SWAP2 SUB SWAP1 RETURN JUMPDEST CALLVALUE DUP1 ISZERO PUSH2 0x2A5 JUMPI PUSH1 0x0 DUP1 REVERT JUMPDEST POP PUSH2 0x2AE PUSH2 0x98B JUMP JUMPDEST PUSH1 0x40 MLOAD PUSH2 0x2BB SWAP2 SWAP1 PUSH2 0x183B JUMP JUMPDEST PUSH1 0x40 MLOAD DUP1 SWAP2 SUB SWAP1 RETURN JUMPDEST CALLVALUE DUP1 ISZERO PUSH2 0x2D0 JUMPI PUSH1 0x0 DUP1 REVERT JUMPDEST POP PUSH2 0x2D9 PUSH2 0xAE8 JUMP JUMPDEST PUSH1 0x40 MLOAD PUSH2 0x2E6 SWAP2 SWAP1 PUSH2 0x183B JUMP JUMPDEST PUSH1 0x40 MLOAD DUP1 SWAP2 SUB SWAP1 RETURN JUMPDEST PUSH1 0x0 CALLER PUSH20 0xFFFFFFFFFFFFFFFFFFFFFFFFFFFFFFFFFFFFFFFF AND BALANCE SWAP1 POP SWAP1 JUMP JUMPDEST PUSH1 0x9 SLOAD DUP2 JUMP JUMPDEST PUSH1 0xB PUSH1 0x0 SWAP1 SLOAD SWAP1 PUSH2 0x100 EXP SWAP1 DIV PUSH20 0xFFFFFFFFFFFFFFFFFFFFFFFFFFFFFFFFFFFFFFFF AND DUP2 JUMP JUMPDEST PUSH2 0x285 PUSH1 0x6 SLOAD LT ISZERO DUP1 ISZERO PUSH2 0x352 JUMPI POP PUSH2 0x29B PUSH1 0x6 SLOAD GT ISZERO JUMPDEST PUSH2 0x391 JUMPI PUSH1 0x40 MLOAD PUSH32 0x8C379A000000000000000000000000000000000000000000000000000000000 DUP2 MSTORE PUSH1 0x4 ADD PUSH2 0x388 SWAP1 PUSH2 0x18B3 JUMP JUMPDEST PUSH1 0x40 MLOAD DUP1 SWAP2 SUB SWAP1 REVERT JUMPDEST PUSH2 0x1D1 PUSH1 0x7 SLOAD LT ISZERO DUP1 ISZERO PUSH2 0x3A9 JUMPI POP PUSH2 0x20E PUSH1 0x7 SLOAD GT ISZERO JUMPDEST PUSH2 0x3E8 JUMPI PUSH1 0x40 MLOAD PUSH32 0x8C379A000000000000000000000000000000000000000000000000000000000 DUP2 MSTORE PUSH1 0x4 ADD PUSH2 0x3DF SWAP1 PUSH2 0x18B3 JUMP JUMPDEST PUSH1 0x40 MLOAD DUP1 SWAP2 SUB SWAP1 REVERT JUMPDEST PUSH1 0x8 SLOAD PUSH1 0x9 DUP2 SWAP1 SSTORE POP PUSH1 0xB PUSH1 0x0 SWAP1 SLOAD SWAP1 PUSH2 0x100 EXP SWAP1 DIV PUSH20 0xFFFFFFFFFFFFFFFFFFFFFFFFFFFFFFFFFFFFFFFF AND PUSH20 0xFFFFFFFFFFFFFFFFFFFFFFFFFFFFFFFFFFFFFFFF AND PUSH2 0x8FC PUSH1 0x9 SLOAD SWAP1 DUP2 ISZERO MUL SWAP1 PUSH1 0x40 MLOAD PUSH1 0x0 PUSH1 0x40 MLOAD DUP1 DUP4 SUB DUP2 DUP6 DUP9 DUP9 CALL SWAP4 POP POP POP POP ISZERO DUP1 ISZERO PUSH2 0x45B JUMPI RETURNDATASIZE PUSH1 0x0 DUP1 RETURNDATACOPY RETURNDATASIZE PUSH1 0x0 REVERT JUMPDEST POP JUMP JUMPDEST DUP2 PUSH1 0x5 PUSH1 0x0 DUP3 DUP2 MSTORE PUSH1 0x20 ADD SWAP1 DUP2 MSTORE PUSH1 0x20 ADD PUSH1 0x0 KECCAK256 PUSH1 0x0 SWAP1 SLOAD SWAP1 PUSH2 0x100 EXP SWAP1 DIV PUSH20 0xFFFFFFFFFFFFFFFFFFFFFFFFFFFFFFFFFFFFFFFF AND PUSH20 0xFFFFFFFFFFFFFFFFFFFFFFFFFFFFFFFFFFFFFFFF AND CALLER PUSH20 0xFFFFFFFFFFFFFFFFFFFFFFFFFFFFFFFFFFFFFFFF AND EQ PUSH2 0x500 JUMPI PUSH1 0x40 MLOAD PUSH32 0x8C379A000000000000000000000000000000000000000000000000000000000 DUP2 MSTORE PUSH1 0x4 ADD PUSH2 0x4F7 SWAP1 PUSH2 0x1945 JUMP JUMPDEST PUSH1 0x40 MLOAD DUP1 SWAP2 SUB SWAP1 REVERT JUMPDEST PUSH1 0x5 PUSH1 0x0 DUP3 DUP2 MSTORE PUSH1 0x20 ADD SWAP1 DUP2 MSTORE PUSH1 0x20 ADD PUSH1 0x0 KECCAK256 PUSH1 0x0 PUSH2 0x100 EXP DUP2 SLOAD SWAP1 PUSH20 0xFFFFFFFFFFFFFFFFFFFFFFFFFFFFFFFFFFFFFFFF MUL NOT AND SWAP1 SSTORE DUP1 PUSH32 0x7CC135E0CEBB02C3480AE5D74D377283180A2601F8F644EDF7987B009316C63A PUSH1 0x40 MLOAD PUSH1 0x40 MLOAD DUP1 SWAP2 SUB SWAP1 LOG2 DUP3 PUSH32 0x4B09C2E126C9ABE20E495999B71BEC9B392132C5626A41019FA729C44BF79BC4 DUP4 PUSH1 0x40 MLOAD PUSH2 0x593 SWAP2 SWAP1 PUSH2 0x170E JUMP JUMPDEST PUSH1 0x40 MLOAD DUP1 SWAP2 SUB SWAP1 LOG2 DUP2 PUSH1 0x6 DUP2 SWAP1 SSTORE POP POP POP POP JUMP JUMPDEST DUP2 PUSH1 0x5 PUSH1 0x0 DUP3 DUP2 MSTORE PUSH1 0x20 ADD SWAP1 DUP2 MSTORE PUSH1 0x20 ADD PUSH1 0x0 KECCAK256 PUSH1 0x0 SWAP1 SLOAD SWAP1 PUSH2 0x100 EXP SWAP1 DIV PUSH20 0xFFFFFFFFFFFFFFFFFFFFFFFFFFFFFFFFFFFFFFFF AND PUSH20 0xFFFFFFFFFFFFFFFFFFFFFFFFFFFFFFFFFFFFFFFF AND CALLER PUSH20 0xFFFFFFFFFFFFFFFFFFFFFFFFFFFFFFFFFFFFFFFF AND EQ PUSH2 0x649 JUMPI PUSH1 0x40 MLOAD PUSH32 0x8C379A000000000000000000000000000000000000000000000000000000000 DUP2 MSTORE PUSH1 0x4 ADD PUSH2 0x640 SWAP1 PUSH2 0x1945 JUMP JUMPDEST PUSH1 0x40 MLOAD DUP1 SWAP2 SUB SWAP1 REVERT JUMPDEST PUSH1 0x5 PUSH1 0x0 DUP3 DUP2 MSTORE PUSH1 0x20 ADD SWAP1 DUP2 MSTORE PUSH1 0x20 ADD PUSH1 0x0 KECCAK256 PUSH1 0x0 PUSH2 0x100 EXP DUP2 SLOAD SWAP1 PUSH20 0xFFFFFFFFFFFFFFFFFFFFFFFFFFFFFFFFFFFFFFFF MUL NOT AND SWAP1 SSTORE DUP1 PUSH32 0x7CC135E0CEBB02C3480AE5D74D377283180A2601F8F644EDF7987B009316C63A PUSH1 0x40 MLOAD PUSH1 0x40 MLOAD DUP1 SWAP2 SUB SWAP1 LOG2 DUP3 PUSH32 0x1BEF700A952B1095949B0F44BE20208335CEC7513A727D2EB271E734E0F88F9 DUP4 PUSH1 0x40 MLOAD PUSH2 0x6DC SWAP2 SWAP1 PUSH2 0x170E JUMP JUMPDEST PUSH1 0x40 MLOAD DUP1 SWAP2 SUB SWAP1 LOG2 DUP2 PUSH1 0x7 DUP2 SWAP1 SSTORE POP POP POP POP JUMP JUMPDEST PUSH1 0x8 SLOAD DUP2 JUMP JUMPDEST PUSH2 0x6FE PUSH2 0x98B JUMP JUMPDEST POP PUSH2 0x707 PUSH2 0xAE8 JUMP JUMPDEST POP CALLER PUSH1 0xB PUSH1 0x0 PUSH2 0x100 EXP DUP2 SLOAD DUP2 PUSH20 0xFFFFFFFFFFFFFFFFFFFFFFFFFFFFFFFFFFFFFFFF MUL NOT AND SWAP1 DUP4 PUSH20 0xFFFFFFFFFFFFFFFFFFFFFFFFFFFFFFFFFFFFFFFF AND MUL OR SWAP1 SSTORE POP JUMP JUMPDEST PUSH1 0x7 SLOAD DUP2 JUMP JUMPDEST PUSH1 0xA PUSH1 0x0 SWAP1 SLOAD SWAP1 PUSH2 0x100 EXP SWAP1 DIV PUSH20 0xFFFFFFFFFFFFFFFFFFFFFFFFFFFFFFFFFFFFFFFF AND PUSH20 0xFFFFFFFFFFFFFFFFFFFFFFFFFFFFFFFFFFFFFFFF AND CALLER PUSH20 0xFFFFFFFFFFFFFFFFFFFFFFFFFFFFFFFFFFFFFFFF AND EQ DUP1 ISZERO PUSH2 0x7DB JUMPI POP PUSH1 0x0 PUSH20 0xFFFFFFFFFFFFFFFFFFFFFFFFFFFFFFFFFFFFFFFF AND CALLER PUSH20 0xFFFFFFFFFFFFFFFFFFFFFFFFFFFFFFFFFFFFFFFF AND EQ ISZERO JUMPDEST PUSH2 0x81A JUMPI PUSH1 0x40 MLOAD PUSH32 0x8C379A000000000000000000000000000000000000000000000000000000000 DUP2 MSTORE PUSH1 0x4 ADD PUSH2 0x811 SWAP1 PUSH2 0x19B1 JUMP JUMPDEST PUSH1 0x40 MLOAD DUP1 SWAP2 SUB SWAP1 REVERT JUMPDEST PUSH1 0x0 PUSH2 0x824 PUSH2 0xC45 JUMP JUMPDEST SWAP1 POP DUP1 PUSH20 0xFFFFFFFFFFFFFFFFFFFFFFFFFFFFFFFFFFFFFFFF AND PUSH4 0xA9059CBB CALLER DUP4 PUSH20 0xFFFFFFFFFFFFFFFFFFFFFFFFFFFFFFFFFFFFFFFF AND PUSH4 0x70A08231 ADDRESS PUSH1 0x40 MLOAD DUP3 PUSH4 0xFFFFFFFF AND PUSH1 0xE0 SHL DUP2 MSTORE PUSH1 0x4 ADD PUSH2 0x87C SWAP2 SWAP1 PUSH2 0x19F2 JUMP JUMPDEST PUSH1 0x20 PUSH1 0x40 MLOAD DUP1 DUP4 SUB DUP2 DUP7 GAS STATICCALL ISZERO DUP1 ISZERO PUSH2 0x899 JUMPI RETURNDATASIZE PUSH1 0x0 DUP1 RETURNDATACOPY RETURNDATASIZE PUSH1 0x0 REVERT JUMPDEST POP POP POP POP PUSH1 0x40 MLOAD RETURNDATASIZE PUSH1 0x1F NOT PUSH1 0x1F DUP3 ADD AND DUP3 ADD DUP1 PUSH1 0x40 MSTORE POP DUP2 ADD SWAP1 PUSH2 0x8BD SWAP2 SWAP1 PUSH2 0x1A22 JUMP JUMPDEST PUSH1 0x40 MLOAD DUP4 PUSH4 0xFFFFFFFF AND PUSH1 0xE0 SHL DUP2 MSTORE PUSH1 0x4 ADD PUSH2 0x8DA SWAP3 SWAP2 SWAP1 PUSH2 0x1A4F JUMP JUMPDEST PUSH1 0x20 PUSH1 0x40 MLOAD DUP1 DUP4 SUB DUP2 PUSH1 0x0 DUP8 GAS CALL ISZERO DUP1 ISZERO PUSH2 0x8F9 JUMPI RETURNDATASIZE PUSH1 0x0 DUP1 RETURNDATACOPY RETURNDATASIZE PUSH1 0x0 REVERT JUMPDEST POP POP POP POP PUSH1 0x40 MLOAD RETURNDATASIZE PUSH1 0x1F NOT PUSH1 0x1F DUP3 ADD AND DUP3 ADD DUP1 PUSH1 0x40 MSTORE POP DUP2 ADD SWAP1 PUSH2 0x91D SWAP2 SWAP1 PUSH2 0x1AB0 JUMP JUMPDEST PUSH2 0x95C JUMPI PUSH1 0x40 MLOAD PUSH32 0x8C379A000000000000000000000000000000000000000000000000000000000 DUP2 MSTORE PUSH1 0x4 ADD PUSH2 0x953 SWAP1 PUSH2 0x1B29 JUMP JUMPDEST PUSH1 0x40 MLOAD DUP1 SWAP2 SUB SWAP1 REVERT JUMPDEST POP JUMP JUMPDEST PUSH1 0xA PUSH1 0x0 SWAP1 SLOAD SWAP1 PUSH2 0x100 EXP SWAP1 DIV PUSH20 0xFFFFFFFFFFFFFFFFFFFFFFFFFFFFFFFFFFFFFFFF AND DUP2 JUMP JUMPDEST PUSH1 0x6 SLOAD DUP2 JUMP JUMPDEST PUSH1 0x0 DUP1 PUSH2 0x9A2 PUSH1 0xC SLOAD ADDRESS PUSH4 0x4357855E PUSH1 0xE0 SHL PUSH2 0xC6F JUMP JUMPDEST SWAP1 POP PUSH2 0xA06 PUSH1 0x40 MLOAD DUP1 PUSH1 0x40 ADD PUSH1 0x40 MSTORE DUP1 PUSH1 0x3 DUP2 MSTORE PUSH1 0x20 ADD PUSH32 0x6765740000000000000000000000000000000000000000000000000000000000 DUP2 MSTORE POP PUSH1 0x40 MLOAD DUP1 PUSH1 0x60 ADD PUSH1 0x40 MSTORE DUP1 PUSH1 0x34 DUP2 MSTORE PUSH1 0x20 ADD PUSH2 0x2153 PUSH1 0x34 SWAP2 CODECOPY DUP4 PUSH2 0xCA0 SWAP1 SWAP3 SWAP2 SWAP1 PUSH4 0xFFFFFFFF AND JUMP JUMPDEST PUSH2 0xA85 PUSH1 0x40 MLOAD DUP1 PUSH1 0x40 ADD PUSH1 0x40 MSTORE DUP1 PUSH1 0x4 DUP2 MSTORE PUSH1 0x20 ADD PUSH32 0x7061746800000000000000000000000000000000000000000000000000000000 DUP2 MSTORE POP PUSH1 0x40 MLOAD DUP1 PUSH1 0x40 ADD PUSH1 0x40 MSTORE DUP1 PUSH1 0x2 DUP2 MSTORE PUSH1 0x20 ADD PUSH32 0x5068000000000000000000000000000000000000000000000000000000000000 DUP2 MSTORE POP DUP4 PUSH2 0xCA0 SWAP1 SWAP3 SWAP2 SWAP1 PUSH4 0xFFFFFFFF AND JUMP JUMPDEST PUSH1 0x0 PUSH1 0x64 SWAP1 POP PUSH2 0xAD5 PUSH1 0x40 MLOAD DUP1 PUSH1 0x40 ADD PUSH1 0x40 MSTORE DUP1 PUSH1 0x5 DUP2 MSTORE PUSH1 0x20 ADD PUSH32 0x74696D6573000000000000000000000000000000000000000000000000000000 DUP2 MSTORE POP DUP3 DUP5 PUSH2 0xCD3 SWAP1 SWAP3 SWAP2 SWAP1 PUSH4 0xFFFFFFFF AND JUMP JUMPDEST PUSH2 0xAE1 DUP3 PUSH1 0xD SLOAD PUSH2 0xD06 JUMP JUMPDEST SWAP3 POP POP POP SWAP1 JUMP JUMPDEST PUSH1 0x0 DUP1 PUSH2 0xAFF PUSH1 0xC SLOAD ADDRESS PUSH4 0x574C72E7 PUSH1 0xE0 SHL PUSH2 0xC6F JUMP JUMPDEST SWAP1 POP PUSH2 0xB63 PUSH1 0x40 MLOAD DUP1 PUSH1 0x40 ADD PUSH1 0x40 MSTORE DUP1 PUSH1 0x3 DUP2 MSTORE PUSH1 0x20 ADD PUSH32 0x6765740000000000000000000000000000000000000000000000000000000000 DUP2 MSTORE POP PUSH1 0x40 MLOAD DUP1 PUSH1 0x60 ADD PUSH1 0x40 MSTORE DUP1 PUSH1 0x34 DUP2 MSTORE PUSH1 0x20 ADD PUSH2 0x2153 PUSH1 0x34 SWAP2 CODECOPY DUP4 PUSH2 0xCA0 SWAP1 SWAP3 SWAP2 SWAP1 PUSH4 0xFFFFFFFF AND JUMP JUMPDEST PUSH2 0xBE2 PUSH1 0x40 MLOAD DUP1 PUSH1 0x40 ADD PUSH1 0x40 MSTORE DUP1 PUSH1 0x4 DUP2 MSTORE PUSH1 0x20 ADD PUSH32 0x7061746800000000000000000000000000000000000000000000000000000000 DUP2 MSTORE POP PUSH1 0x40 MLOAD DUP1 PUSH1 0x40 ADD PUSH1 0x40 MSTORE DUP1 PUSH1 0x2 DUP2 MSTORE PUSH1 0x20 ADD PUSH32 0x4563000000000000000000000000000000000000000000000000000000000000 DUP2 MSTORE POP DUP4 PUSH2 0xCA0 SWAP1 SWAP3 SWAP2 SWAP1 PUSH4 0xFFFFFFFF AND JUMP JUMPDEST PUSH1 0x0 PUSH1 0x64 SWAP1 POP PUSH2 0xC32 PUSH1 0x40 MLOAD DUP1 PUSH1 0x40 ADD PUSH1 0x40 MSTORE DUP1 PUSH1 0x5 DUP2 MSTORE PUSH1 0x20 ADD PUSH32 0x74696D6573000000000000000000000000000000000000000000000000000000 DUP2 MSTORE POP DUP3 DUP5 PUSH2 0xCD3 SWAP1 SWAP3 SWAP2 SWAP1 PUSH4 0xFFFFFFFF AND JUMP JUMPDEST PUSH2 0xC3E DUP3 PUSH1 0xD SLOAD PUSH2 0xD06 JUMP JUMPDEST SWAP3 POP POP POP SWAP1 JUMP JUMPDEST PUSH1 0x0 PUSH1 0x2 PUSH1 0x0 SWAP1 SLOAD SWAP1 PUSH2 0x100 EXP SWAP1 DIV PUSH20 0xFFFFFFFFFFFFFFFFFFFFFFFFFFFFFFFFFFFFFFFF AND SWAP1 POP SWAP1 JUMP JUMPDEST PUSH2 0xC77 PUSH2 0x166E JUMP JUMPDEST PUSH2 0xC7F PUSH2 0x166E JUMP JUMPDEST PUSH2 0xC96 DUP6 DUP6 DUP6 DUP5 PUSH2 0xD3D SWAP1 SWAP4 SWAP3 SWAP2 SWAP1 PUSH4 0xFFFFFFFF AND JUMP JUMPDEST SWAP2 POP POP SWAP4 SWAP3 POP POP POP JUMP JUMPDEST PUSH2 0xCB7 DUP3 DUP5 PUSH1 0x80 ADD MLOAD PUSH2 0xDED SWAP1 SWAP2 SWAP1 PUSH4 0xFFFFFFFF AND JUMP JUMPDEST PUSH2 0xCCE DUP2 DUP5 PUSH1 0x80 ADD MLOAD PUSH2 0xDED SWAP1 SWAP2 SWAP1 PUSH4 0xFFFFFFFF AND JUMP JUMPDEST POP POP POP JUMP JUMPDEST PUSH2 0xCEA DUP3 DUP5 PUSH1 0x80 ADD MLOAD PUSH2 0xDED SWAP1 SWAP2 SWAP1 PUSH4 0xFFFFFFFF AND JUMP JUMPDEST PUSH2 0xD01 DUP2 DUP5 PUSH1 0x80 ADD MLOAD PUSH2 0xE12 SWAP1 SWAP2 SWAP1 PUSH4 0xFFFFFFFF AND JUMP JUMPDEST POP POP POP JUMP JUMPDEST PUSH1 0x0 PUSH2 0xD35 PUSH1 0x3 PUSH1 0x0 SWAP1 SLOAD SWAP1 PUSH2 0x100 EXP SWAP1 DIV PUSH20 0xFFFFFFFFFFFFFFFFFFFFFFFFFFFFFFFFFFFFFFFF AND DUP5 DUP5 PUSH2 0xEBF JUMP JUMPDEST SWAP1 POP SWAP3 SWAP2 POP POP JUMP JUMPDEST PUSH2 0xD45 PUSH2 0x166E JUMP JUMPDEST PUSH2 0xD55 DUP6 PUSH1 0x80 ADD MLOAD PUSH2 0x100 PUSH2 0xF8B JUMP JUMPDEST POP DUP4 DUP6 PUSH1 0x0 ADD DUP2 DUP2 MSTORE POP POP DUP3 DUP6 PUSH1 0x20 ADD SWAP1 PUSH20 0xFFFFFFFFFFFFFFFFFFFFFFFFFFFFFFFFFFFFFFFF AND SWAP1 DUP2 PUSH20 0xFFFFFFFFFFFFFFFFFFFFFFFFFFFFFFFFFFFFFFFF AND DUP2 MSTORE POP POP DUP2 DUP6 PUSH1 0x40 ADD SWAP1 PUSH28 0xFFFFFFFFFFFFFFFFFFFFFFFFFFFFFFFFFFFFFFFFFFFFFFFFFFFFFFFF NOT AND SWAP1 DUP2 PUSH28 0xFFFFFFFFFFFFFFFFFFFFFFFFFFFFFFFFFFFFFFFFFFFFFFFFFFFFFFFF NOT AND DUP2 MSTORE POP POP DUP5 SWAP1 POP SWAP5 SWAP4 POP POP POP POP JUMP JUMPDEST PUSH2 0xDFA DUP3 PUSH1 0x3 DUP4 MLOAD PUSH2 0xFF5 JUMP JUMPDEST PUSH2 0xE0D DUP2 DUP4 PUSH2 0x117A SWAP1 SWAP2 SWAP1 PUSH4 0xFFFFFFFF AND JUMP JUMPDEST POP POP POP JUMP JUMPDEST PUSH32 0xFFFFFFFFFFFFFFFFFFFFFFFFFFFFFFFFFFFFFFFFFFFFFFFF0000000000000000 DUP2 SLT ISZERO PUSH2 0xE49 JUMPI PUSH2 0xE44 DUP3 DUP3 PUSH2 0x119C JUMP JUMPDEST PUSH2 0xEBB JUMP JUMPDEST PUSH8 0xFFFFFFFFFFFFFFFF DUP2 SGT ISZERO PUSH2 0xE68 JUMPI PUSH2 0xE63 DUP3 DUP3 PUSH2 0x1213 JUMP JUMPDEST PUSH2 0xEBA JUMP JUMPDEST PUSH1 0x0 DUP2 SLT PUSH2 0xE81 JUMPI PUSH2 0xE7C DUP3 PUSH1 0x0 DUP4 PUSH2 0xFF5 JUMP JUMPDEST PUSH2 0xEB9 JUMP JUMPDEST PUSH2 0xEB8 DUP3 PUSH1 0x1 DUP4 PUSH32 0xFFFFFFFFFFFFFFFFFFFFFFFFFFFFFFFFFFFFFFFFFFFFFFFFFFFFFFFFFFFFFFFF PUSH2 0xEB3 SWAP2 SWAP1 PUSH2 0x1B82 JUMP JUMPDEST PUSH2 0xFF5 JUMP JUMPDEST JUMPDEST JUMPDEST JUMPDEST POP POP JUMP JUMPDEST PUSH1 0x0 DUP1 PUSH1 0x4 SLOAD SWAP1 POP PUSH1 0x1 DUP2 PUSH2 0xED4 SWAP2 SWAP1 PUSH2 0x1BC5 JUMP JUMPDEST PUSH1 0x4 DUP2 SWAP1 SSTORE POP PUSH1 0x0 PUSH4 0x40429946 PUSH1 0xE0 SHL PUSH1 0x0 DUP1 DUP8 PUSH1 0x0 ADD MLOAD ADDRESS DUP10 PUSH1 0x40 ADD MLOAD DUP8 PUSH1 0x1 DUP13 PUSH1 0x80 ADD MLOAD PUSH1 0x0 ADD MLOAD PUSH1 0x40 MLOAD PUSH1 0x24 ADD PUSH2 0xF15 SWAP9 SWAP8 SWAP7 SWAP6 SWAP5 SWAP4 SWAP3 SWAP2 SWAP1 PUSH2 0x1CC4 JUMP JUMPDEST PUSH1 0x40 MLOAD PUSH1 0x20 DUP2 DUP4 SUB SUB DUP2 MSTORE SWAP1 PUSH1 0x40 MSTORE SWAP1 PUSH28 0xFFFFFFFFFFFFFFFFFFFFFFFFFFFFFFFFFFFFFFFFFFFFFFFFFFFFFFFF NOT AND PUSH1 0x20 DUP3 ADD DUP1 MLOAD PUSH28 0xFFFFFFFFFFFFFFFFFFFFFFFFFFFFFFFFFFFFFFFFFFFFFFFFFFFFFFFF DUP4 DUP2 DUP4 AND OR DUP4 MSTORE POP POP POP POP SWAP1 POP PUSH2 0xF80 DUP7 DUP4 DUP7 DUP5 PUSH2 0x125F JUMP JUMPDEST SWAP3 POP POP POP SWAP4 SWAP3 POP POP POP JUMP JUMPDEST PUSH2 0xF93 PUSH2 0x16DB JUMP JUMPDEST PUSH1 0x0 PUSH1 0x20 DUP4 PUSH2 0xFA2 SWAP2 SWAP1 PUSH2 0x1D78 JUMP JUMPDEST EQ PUSH2 0xFCE JUMPI PUSH1 0x20 DUP3 PUSH2 0xFB4 SWAP2 SWAP1 PUSH2 0x1D78 JUMP JUMPDEST PUSH1 0x20 PUSH2 0xFC0 SWAP2 SWAP1 PUSH2 0x1DA9 JUMP JUMPDEST DUP3 PUSH2 0xFCB SWAP2 SWAP1 PUSH2 0x1BC5 JUMP JUMPDEST SWAP2 POP JUMPDEST DUP2 DUP4 PUSH1 0x20 ADD DUP2 DUP2 MSTORE POP POP PUSH1 0x40 MLOAD DUP1 DUP5 MSTORE PUSH1 0x0 DUP2 MSTORE DUP3 DUP2 ADD PUSH1 0x20 ADD PUSH1 0x40 MSTORE POP DUP3 SWAP1 POP SWAP3 SWAP2 POP POP JUMP JUMPDEST PUSH1 0x17 DUP2 PUSH8 0xFFFFFFFFFFFFFFFF AND GT PUSH2 0x102C JUMPI PUSH2 0x1026 DUP2 PUSH1 0x5 DUP5 PUSH1 0xFF AND SWAP1 SHL PUSH1 0xFF AND OR DUP5 PUSH2 0x13F4 SWAP1 SWAP2 SWAP1 PUSH4 0xFFFFFFFF AND JUMP JUMPDEST POP PUSH2 0x1175 JUMP JUMPDEST PUSH1 0xFF DUP2 PUSH8 0xFFFFFFFFFFFFFFFF AND GT PUSH2 0x1082 JUMPI PUSH2 0x105B PUSH1 0x18 PUSH1 0x5 DUP5 PUSH1 0xFF AND SWAP1 SHL OR DUP5 PUSH2 0x13F4 SWAP1 SWAP2 SWAP1 PUSH4 0xFFFFFFFF AND JUMP JUMPDEST POP PUSH2 0x107C DUP2 PUSH8 0xFFFFFFFFFFFFFFFF AND PUSH1 0x1 DUP6 PUSH2 0x1414 SWAP1 SWAP3 SWAP2 SWAP1 PUSH4 0xFFFFFFFF AND JUMP JUMPDEST POP PUSH2 0x1174 JUMP JUMPDEST PUSH2 0xFFFF DUP2 PUSH8 0xFFFFFFFFFFFFFFFF AND GT PUSH2 0x10D9 JUMPI PUSH2 0x10B2 PUSH1 0x19 PUSH1 0x5 DUP5 PUSH1 0xFF AND SWAP1 SHL OR DUP5 PUSH2 0x13F4 SWAP1 SWAP2 SWAP1 PUSH4 0xFFFFFFFF AND JUMP JUMPDEST POP PUSH2 0x10D3 DUP2 PUSH8 0xFFFFFFFFFFFFFFFF AND PUSH1 0x2 DUP6 PUSH2 0x1414 SWAP1 SWAP3 SWAP2 SWAP1 PUSH4 0xFFFFFFFF AND JUMP JUMPDEST POP PUSH2 0x1173 JUMP JUMPDEST PUSH4 0xFFFFFFFF DUP2 PUSH8 0xFFFFFFFFFFFFFFFF AND GT PUSH2 0x1132 JUMPI PUSH2 0x110B PUSH1 0x1A PUSH1 0x5 DUP5 PUSH1 0xFF AND SWAP1 SHL OR DUP5 PUSH2 0x13F4 SWAP1 SWAP2 SWAP1 PUSH4 0xFFFFFFFF AND JUMP JUMPDEST POP PUSH2 0x112C DUP2 PUSH8 0xFFFFFFFFFFFFFFFF AND PUSH1 0x4 DUP6 PUSH2 0x1414 SWAP1 SWAP3 SWAP2 SWAP1 PUSH4 0xFFFFFFFF AND JUMP JUMPDEST POP PUSH2 0x1172 JUMP JUMPDEST PUSH2 0x114F PUSH1 0x1B PUSH1 0x5 DUP5 PUSH1 0xFF AND SWAP1 SHL OR DUP5 PUSH2 0x13F4 SWAP1 SWAP2 SWAP1 PUSH4 0xFFFFFFFF AND JUMP JUMPDEST POP PUSH2 0x1170 DUP2 PUSH8 0xFFFFFFFFFFFFFFFF AND PUSH1 0x8 DUP6 PUSH2 0x1414 SWAP1 SWAP3 SWAP2 SWAP1 PUSH4 0xFFFFFFFF AND JUMP JUMPDEST POP JUMPDEST JUMPDEST JUMPDEST JUMPDEST POP POP POP JUMP JUMPDEST PUSH2 0x1182 PUSH2 0x16DB JUMP JUMPDEST PUSH2 0x1194 DUP4 DUP5 PUSH1 0x0 ADD MLOAD MLOAD DUP5 DUP6 MLOAD PUSH2 0x1436 JUMP JUMPDEST SWAP1 POP SWAP3 SWAP2 POP POP JUMP JUMPDEST PUSH2 0x11BA PUSH1 0x3 PUSH1 0x5 PUSH1 0x6 PUSH1 0xFF AND SWAP1 SHL OR DUP4 PUSH2 0x13F4 SWAP1 SWAP2 SWAP1 PUSH4 0xFFFFFFFF AND JUMP JUMPDEST POP PUSH2 0x120F DUP3 DUP3 PUSH32 0xFFFFFFFFFFFFFFFFFFFFFFFFFFFFFFFFFFFFFFFFFFFFFFFFFFFFFFFFFFFFFFFF PUSH2 0x11EB SWAP2 SWAP1 PUSH2 0x1B82 JUMP JUMPDEST PUSH1 0x40 MLOAD PUSH1 0x20 ADD PUSH2 0x11FB SWAP2 SWAP1 PUSH2 0x170E JUMP JUMPDEST PUSH1 0x40 MLOAD PUSH1 0x20 DUP2 DUP4 SUB SUB DUP2 MSTORE SWAP1 PUSH1 0x40 MSTORE PUSH2 0x1525 JUMP JUMPDEST POP POP JUMP JUMPDEST PUSH2 0x1231 PUSH1 0x2 PUSH1 0x5 PUSH1 0x6 PUSH1 0xFF AND SWAP1 SHL OR DUP4 PUSH2 0x13F4 SWAP1 SWAP2 SWAP1 PUSH4 0xFFFFFFFF AND JUMP JUMPDEST POP PUSH2 0x125B DUP3 DUP3 PUSH1 0x40 MLOAD PUSH1 0x20 ADD PUSH2 0x1247 SWAP2 SWAP1 PUSH2 0x170E JUMP JUMPDEST PUSH1 0x40 MLOAD PUSH1 0x20 DUP2 DUP4 SUB SUB DUP2 MSTORE SWAP1 PUSH1 0x40 MSTORE PUSH2 0x1525 JUMP JUMPDEST POP POP JUMP JUMPDEST PUSH1 0x0 ADDRESS DUP5 PUSH1 0x40 MLOAD PUSH1 0x20 ADD PUSH2 0x1274 SWAP3 SWAP2 SWAP1 PUSH2 0x1E96 JUMP JUMPDEST PUSH1 0x40 MLOAD PUSH1 0x20 DUP2 DUP4 SUB SUB DUP2 MSTORE SWAP1 PUSH1 0x40 MSTORE DUP1 MLOAD SWAP1 PUSH1 0x20 ADD KECCAK256 SWAP1 POP DUP5 PUSH1 0x5 PUSH1 0x0 DUP4 DUP2 MSTORE PUSH1 0x20 ADD SWAP1 DUP2 MSTORE PUSH1 0x20 ADD PUSH1 0x0 KECCAK256 PUSH1 0x0 PUSH2 0x100 EXP DUP2 SLOAD DUP2 PUSH20 0xFFFFFFFFFFFFFFFFFFFFFFFFFFFFFFFFFFFFFFFF MUL NOT AND SWAP1 DUP4 PUSH20 0xFFFFFFFFFFFFFFFFFFFFFFFFFFFFFFFFFFFFFFFF AND MUL OR SWAP1 SSTORE POP DUP1 PUSH32 0xB5E6E01E79F91267DC17B4E6314D5D4D03593D2CEEE0FBB452B750BD70EA5AF9 PUSH1 0x40 MLOAD PUSH1 0x40 MLOAD DUP1 SWAP2 SUB SWAP1 LOG2 PUSH1 0x2 PUSH1 0x0 SWAP1 SLOAD SWAP1 PUSH2 0x100 EXP SWAP1 DIV PUSH20 0xFFFFFFFFFFFFFFFFFFFFFFFFFFFFFFFFFFFFFFFF AND PUSH20 0xFFFFFFFFFFFFFFFFFFFFFFFFFFFFFFFFFFFFFFFF AND PUSH4 0x4000AEA0 DUP7 DUP6 DUP6 PUSH1 0x40 MLOAD DUP5 PUSH4 0xFFFFFFFF AND PUSH1 0xE0 SHL DUP2 MSTORE PUSH1 0x4 ADD PUSH2 0x136A SWAP4 SWAP3 SWAP2 SWAP1 PUSH2 0x1EC2 JUMP JUMPDEST PUSH1 0x20 PUSH1 0x40 MLOAD DUP1 DUP4 SUB DUP2 PUSH1 0x0 DUP8 GAS CALL ISZERO DUP1 ISZERO PUSH2 0x1389 JUMPI RETURNDATASIZE PUSH1 0x0 DUP1 RETURNDATACOPY RETURNDATASIZE PUSH1 0x0 REVERT JUMPDEST POP POP POP POP PUSH1 0x40 MLOAD RETURNDATASIZE PUSH1 0x1F NOT PUSH1 0x1F DUP3 ADD AND DUP3 ADD DUP1 PUSH1 0x40 MSTORE POP DUP2 ADD SWAP1 PUSH2 0x13AD SWAP2 SWAP1 PUSH2 0x1AB0 JUMP JUMPDEST PUSH2 0x13EC JUMPI PUSH1 0x40 MLOAD PUSH32 0x8C379A000000000000000000000000000000000000000000000000000000000 DUP2 MSTORE PUSH1 0x4 ADD PUSH2 0x13E3 SWAP1 PUSH2 0x1F72 JUMP JUMPDEST PUSH1 0x40 MLOAD DUP1 SWAP2 SUB SWAP1 REVERT JUMPDEST SWAP5 SWAP4 POP POP POP POP JUMP JUMPDEST PUSH2 0x13FC PUSH2 0x16DB JUMP JUMPDEST PUSH2 0x140C DUP4 DUP5 PUSH1 0x0 ADD MLOAD MLOAD DUP5 PUSH2 0x154A JUMP JUMPDEST SWAP1 POP SWAP3 SWAP2 POP POP JUMP JUMPDEST PUSH2 0x141C PUSH2 0x16DB JUMP JUMPDEST PUSH2 0x142D DUP5 DUP6 PUSH1 0x0 ADD MLOAD MLOAD DUP6 DUP6 PUSH2 0x15A0 JUMP JUMPDEST SWAP1 POP SWAP4 SWAP3 POP POP POP JUMP JUMPDEST PUSH2 0x143E PUSH2 0x16DB JUMP JUMPDEST DUP3 MLOAD DUP3 GT ISZERO PUSH2 0x144C JUMPI PUSH1 0x0 DUP1 REVERT JUMPDEST DUP5 PUSH1 0x20 ADD MLOAD DUP3 DUP6 PUSH2 0x145D SWAP2 SWAP1 PUSH2 0x1BC5 JUMP JUMPDEST GT ISZERO PUSH2 0x1492 JUMPI PUSH2 0x1491 DUP6 PUSH1 0x2 PUSH2 0x1482 DUP9 PUSH1 0x20 ADD MLOAD DUP9 DUP8 PUSH2 0x147D SWAP2 SWAP1 PUSH2 0x1BC5 JUMP JUMPDEST PUSH2 0x162E JUMP JUMPDEST PUSH2 0x148C SWAP2 SWAP1 PUSH2 0x1F92 JUMP JUMPDEST PUSH2 0x164A JUMP JUMPDEST JUMPDEST PUSH1 0x0 DUP1 DUP7 MLOAD DUP1 MLOAD DUP8 PUSH1 0x20 DUP4 ADD ADD SWAP4 POP DUP1 DUP9 DUP8 ADD GT ISZERO PUSH2 0x14B1 JUMPI DUP8 DUP7 ADD DUP3 MSTORE JUMPDEST PUSH1 0x20 DUP8 ADD SWAP3 POP POP POP JUMPDEST PUSH1 0x20 DUP5 LT PUSH2 0x14F8 JUMPI DUP1 MLOAD DUP3 MSTORE PUSH1 0x20 DUP3 PUSH2 0x14D3 SWAP2 SWAP1 PUSH2 0x1BC5 JUMP JUMPDEST SWAP2 POP PUSH1 0x20 DUP2 PUSH2 0x14E2 SWAP2 SWAP1 PUSH2 0x1BC5 JUMP JUMPDEST SWAP1 POP PUSH1 0x20 DUP5 PUSH2 0x14F1 SWAP2 SWAP1 PUSH2 0x1DA9 JUMP JUMPDEST SWAP4 POP PUSH2 0x14BA JUMP JUMPDEST PUSH1 0x0 PUSH1 0x1 DUP6 PUSH1 0x20 SUB PUSH2 0x100 EXP SUB SWAP1 POP DUP1 NOT DUP3 MLOAD AND DUP2 DUP5 MLOAD AND DUP2 DUP2 OR DUP6 MSTORE POP POP POP DUP7 SWAP3 POP POP POP SWAP5 SWAP4 POP POP POP POP JUMP JUMPDEST PUSH2 0x1532 DUP3 PUSH1 0x2 DUP4 MLOAD PUSH2 0xFF5 JUMP JUMPDEST PUSH2 0x1545 DUP2 DUP4 PUSH2 0x117A SWAP1 SWAP2 SWAP1 PUSH4 0xFFFFFFFF AND JUMP JUMPDEST POP POP POP JUMP JUMPDEST PUSH2 0x1552 PUSH2 0x16DB JUMP JUMPDEST DUP4 PUSH1 0x20 ADD MLOAD DUP4 LT PUSH2 0x1578 JUMPI PUSH2 0x1577 DUP5 PUSH1 0x2 DUP7 PUSH1 0x20 ADD MLOAD PUSH2 0x1572 SWAP2 SWAP1 PUSH2 0x1F92 JUMP JUMPDEST PUSH2 0x164A JUMP JUMPDEST JUMPDEST DUP4 MLOAD DUP1 MLOAD PUSH1 0x20 DUP6 DUP4 ADD ADD DUP5 DUP2 MSTORE8 DUP2 DUP7 SUB PUSH2 0x1593 JUMPI PUSH1 0x1 DUP3 ADD DUP4 MSTORE JUMPDEST POP POP POP DUP4 SWAP1 POP SWAP4 SWAP3 POP POP POP JUMP JUMPDEST PUSH2 0x15A8 PUSH2 0x16DB JUMP JUMPDEST DUP5 PUSH1 0x20 ADD MLOAD DUP5 DUP4 PUSH2 0x15B9 SWAP2 SWAP1 PUSH2 0x1BC5 JUMP JUMPDEST GT ISZERO PUSH2 0x15E1 JUMPI PUSH2 0x15E0 DUP6 PUSH1 0x2 DUP7 DUP6 PUSH2 0x15D1 SWAP2 SWAP1 PUSH2 0x1BC5 JUMP JUMPDEST PUSH2 0x15DB SWAP2 SWAP1 PUSH2 0x1F92 JUMP JUMPDEST PUSH2 0x164A JUMP JUMPDEST JUMPDEST PUSH1 0x0 PUSH1 0x1 DUP4 PUSH2 0x100 PUSH2 0x15F3 SWAP2 SWAP1 PUSH2 0x2107 JUMP JUMPDEST PUSH2 0x15FD SWAP2 SWAP1 PUSH2 0x1DA9 JUMP JUMPDEST SWAP1 POP DUP6 MLOAD DUP4 DUP7 DUP3 ADD ADD DUP6 DUP4 NOT DUP3 MLOAD AND OR DUP2 MSTORE DUP2 MLOAD DUP6 DUP9 ADD GT ISZERO PUSH2 0x1620 JUMPI DUP5 DUP8 ADD DUP3 MSTORE JUMPDEST POP POP DUP6 SWAP2 POP POP SWAP5 SWAP4 POP POP POP POP JUMP JUMPDEST PUSH1 0x0 DUP2 DUP4 GT ISZERO PUSH2 0x1640 JUMPI DUP3 SWAP1 POP PUSH2 0x1644 JUMP JUMPDEST DUP2 SWAP1 POP JUMPDEST SWAP3 SWAP2 POP POP JUMP JUMPDEST PUSH1 0x0 DUP3 PUSH1 0x0 ADD MLOAD SWAP1 POP PUSH2 0x165D DUP4 DUP4 PUSH2 0xF8B JUMP JUMPDEST POP PUSH2 0x1668 DUP4 DUP3 PUSH2 0x117A JUMP JUMPDEST POP POP POP POP JUMP JUMPDEST PUSH1 0x40 MLOAD DUP1 PUSH1 0xA0 ADD PUSH1 0x40 MSTORE DUP1 PUSH1 0x0 DUP1 NOT AND DUP2 MSTORE PUSH1 0x20 ADD PUSH1 0x0 PUSH20 0xFFFFFFFFFFFFFFFFFFFFFFFFFFFFFFFFFFFFFFFF AND DUP2 MSTORE PUSH1 0x20 ADD PUSH1 0x0 PUSH28 0xFFFFFFFFFFFFFFFFFFFFFFFFFFFFFFFFFFFFFFFFFFFFFFFFFFFFFFFF NOT AND DUP2 MSTORE PUSH1 0x20 ADD PUSH1 0x0 DUP2 MSTORE PUSH1 0x20 ADD PUSH2 0x16D5 PUSH2 0x16DB JUMP JUMPDEST DUP2 MSTORE POP SWAP1 JUMP JUMPDEST PUSH1 0x40 MLOAD DUP1 PUSH1 0x40 ADD PUSH1 0x40 MSTORE DUP1 PUSH1 0x60 DUP2 MSTORE PUSH1 0x20 ADD PUSH1 0x0 DUP2 MSTORE POP SWAP1 JUMP JUMPDEST PUSH1 0x0 DUP2 SWAP1 POP SWAP2 SWAP1 POP JUMP JUMPDEST PUSH2 0x1708 DUP2 PUSH2 0x16F5 JUMP JUMPDEST DUP3 MSTORE POP POP JUMP JUMPDEST PUSH1 0x0 PUSH1 0x20 DUP3 ADD SWAP1 POP PUSH2 0x1723 PUSH1 0x0 DUP4 ADD DUP5 PUSH2 0x16FF JUMP JUMPDEST SWAP3 SWAP2 POP POP JUMP JUMPDEST PUSH1 0x0 PUSH20 0xFFFFFFFFFFFFFFFFFFFFFFFFFFFFFFFFFFFFFFFF DUP3 AND SWAP1 POP SWAP2 SWAP1 POP JUMP JUMPDEST PUSH1 0x0 PUSH2 0x1754 DUP3 PUSH2 0x1729 JUMP JUMPDEST SWAP1 POP SWAP2 SWAP1 POP JUMP JUMPDEST PUSH2 0x1764 DUP2 PUSH2 0x1749 JUMP JUMPDEST DUP3 MSTORE POP POP JUMP JUMPDEST PUSH1 0x0 PUSH1 0x20 DUP3 ADD SWAP1 POP PUSH2 0x177F PUSH1 0x0 DUP4 ADD DUP5 PUSH2 0x175B JUMP JUMPDEST SWAP3 SWAP2 POP POP JUMP JUMPDEST PUSH1 0x0 DUP1 REVERT JUMPDEST PUSH1 0x0 DUP2 SWAP1 POP SWAP2 SWAP1 POP JUMP JUMPDEST PUSH2 0x179D DUP2 PUSH2 0x178A JUMP JUMPDEST DUP2 EQ PUSH2 0x17A8 JUMPI PUSH1 0x0 DUP1 REVERT JUMPDEST POP JUMP JUMPDEST PUSH1 0x0 DUP2 CALLDATALOAD SWAP1 POP PUSH2 0x17BA DUP2 PUSH2 0x1794 JUMP JUMPDEST SWAP3 SWAP2 POP POP JUMP JUMPDEST PUSH2 0x17C9 DUP2 PUSH2 0x16F5 JUMP JUMPDEST DUP2 EQ PUSH2 0x17D4 JUMPI PUSH1 0x0 DUP1 REVERT JUMPDEST POP JUMP JUMPDEST PUSH1 0x0 DUP2 CALLDATALOAD SWAP1 POP PUSH2 0x17E6 DUP2 PUSH2 0x17C0 JUMP JUMPDEST SWAP3 SWAP2 POP POP JUMP JUMPDEST PUSH1 0x0 DUP1 PUSH1 0x40 DUP4 DUP6 SUB SLT ISZERO PUSH2 0x1803 JUMPI PUSH2 0x1802 PUSH2 0x1785 JUMP JUMPDEST JUMPDEST PUSH1 0x0 PUSH2 0x1811 DUP6 DUP3 DUP7 ADD PUSH2 0x17AB JUMP JUMPDEST SWAP3 POP POP PUSH1 0x20 PUSH2 0x1822 DUP6 DUP3 DUP7 ADD PUSH2 0x17D7 JUMP JUMPDEST SWAP2 POP POP SWAP3 POP SWAP3 SWAP1 POP JUMP JUMPDEST PUSH2 0x1835 DUP2 PUSH2 0x178A JUMP JUMPDEST DUP3 MSTORE POP POP JUMP JUMPDEST PUSH1 0x0 PUSH1 0x20 DUP3 ADD SWAP1 POP PUSH2 0x1850 PUSH1 0x0 DUP4 ADD DUP5 PUSH2 0x182C JUMP JUMPDEST SWAP3 SWAP2 POP POP JUMP JUMPDEST PUSH1 0x0 DUP3 DUP3 MSTORE PUSH1 0x20 DUP3 ADD SWAP1 POP SWAP3 SWAP2 POP POP JUMP JUMPDEST PUSH32 0x6164756C74657261746564206D696C6B2C6E6F207061796D656E740000000000 PUSH1 0x0 DUP3 ADD MSTORE POP JUMP JUMPDEST PUSH1 0x0 PUSH2 0x189D PUSH1 0x1B DUP4 PUSH2 0x1856 JUMP JUMPDEST SWAP2 POP PUSH2 0x18A8 DUP3 PUSH2 0x1867 JUMP JUMPDEST PUSH1 0x20 DUP3 ADD SWAP1 POP SWAP2 SWAP1 POP JUMP JUMPDEST PUSH1 0x0 PUSH1 0x20 DUP3 ADD SWAP1 POP DUP2 DUP2 SUB PUSH1 0x0 DUP4 ADD MSTORE PUSH2 0x18CC DUP2 PUSH2 0x1890 JUMP JUMPDEST SWAP1 POP SWAP2 SWAP1 POP JUMP JUMPDEST PUSH32 0x536F75726365206D75737420626520746865206F7261636C65206F6620746865 PUSH1 0x0 DUP3 ADD MSTORE PUSH32 0x2072657175657374000000000000000000000000000000000000000000000000 PUSH1 0x20 DUP3 ADD MSTORE POP JUMP JUMPDEST PUSH1 0x0 PUSH2 0x192F PUSH1 0x28 DUP4 PUSH2 0x1856 JUMP JUMPDEST SWAP2 POP PUSH2 0x193A DUP3 PUSH2 0x18D3 JUMP JUMPDEST PUSH1 0x40 DUP3 ADD SWAP1 POP SWAP2 SWAP1 POP JUMP JUMPDEST PUSH1 0x0 PUSH1 0x20 DUP3 ADD SWAP1 POP DUP2 DUP2 SUB PUSH1 0x0 DUP4 ADD MSTORE PUSH2 0x195E DUP2 PUSH2 0x1922 JUMP JUMPDEST SWAP1 POP SWAP2 SWAP1 POP JUMP JUMPDEST PUSH32 0x696E76616C6964206F7220756E617574686F7269736564206164647265737300 PUSH1 0x0 DUP3 ADD MSTORE POP JUMP JUMPDEST PUSH1 0x0 PUSH2 0x199B PUSH1 0x1F DUP4 PUSH2 0x1856 JUMP JUMPDEST SWAP2 POP PUSH2 0x19A6 DUP3 PUSH2 0x1965 JUMP JUMPDEST PUSH1 0x20 DUP3 ADD SWAP1 POP SWAP2 SWAP1 POP JUMP JUMPDEST PUSH1 0x0 PUSH1 0x20 DUP3 ADD SWAP1 POP DUP2 DUP2 SUB PUSH1 0x0 DUP4 ADD MSTORE PUSH2 0x19CA DUP2 PUSH2 0x198E JUMP JUMPDEST SWAP1 POP SWAP2 SWAP1 POP JUMP JUMPDEST PUSH1 0x0 PUSH2 0x19DC DUP3 PUSH2 0x1729 JUMP JUMPDEST SWAP1 POP SWAP2 SWAP1 POP JUMP JUMPDEST PUSH2 0x19EC DUP2 PUSH2 0x19D1 JUMP JUMPDEST DUP3 MSTORE POP POP JUMP JUMPDEST PUSH1 0x0 PUSH1 0x20 DUP3 ADD SWAP1 POP PUSH2 0x1A07 PUSH1 0x0 DUP4 ADD DUP5 PUSH2 0x19E3 JUMP JUMPDEST SWAP3 SWAP2 POP POP JUMP JUMPDEST PUSH1 0x0 DUP2 MLOAD SWAP1 POP PUSH2 0x1A1C DUP2 PUSH2 0x17C0 JUMP JUMPDEST SWAP3 SWAP2 POP POP JUMP JUMPDEST PUSH1 0x0 PUSH1 0x20 DUP3 DUP5 SUB SLT ISZERO PUSH2 0x1A38 JUMPI PUSH2 0x1A37 PUSH2 0x1785 JUMP JUMPDEST JUMPDEST PUSH1 0x0 PUSH2 0x1A46 DUP5 DUP3 DUP6 ADD PUSH2 0x1A0D JUMP JUMPDEST SWAP2 POP POP SWAP3 SWAP2 POP POP JUMP JUMPDEST PUSH1 0x0 PUSH1 0x40 DUP3 ADD SWAP1 POP PUSH2 0x1A64 PUSH1 0x0 DUP4 ADD DUP6 PUSH2 0x19E3 JUMP JUMPDEST PUSH2 0x1A71 PUSH1 0x20 DUP4 ADD DUP5 PUSH2 0x16FF JUMP JUMPDEST SWAP4 SWAP3 POP POP POP JUMP JUMPDEST PUSH1 0x0 DUP2 ISZERO ISZERO SWAP1 POP SWAP2 SWAP1 POP JUMP JUMPDEST PUSH2 0x1A8D DUP2 PUSH2 0x1A78 JUMP JUMPDEST DUP2 EQ PUSH2 0x1A98 JUMPI PUSH1 0x0 DUP1 REVERT JUMPDEST POP JUMP JUMPDEST PUSH1 0x0 DUP2 MLOAD SWAP1 POP PUSH2 0x1AAA DUP2 PUSH2 0x1A84 JUMP JUMPDEST SWAP3 SWAP2 POP POP JUMP JUMPDEST PUSH1 0x0 PUSH1 0x20 DUP3 DUP5 SUB SLT ISZERO PUSH2 0x1AC6 JUMPI PUSH2 0x1AC5 PUSH2 0x1785 JUMP JUMPDEST JUMPDEST PUSH1 0x0 PUSH2 0x1AD4 DUP5 DUP3 DUP6 ADD PUSH2 0x1A9B JUMP JUMPDEST SWAP2 POP POP SWAP3 SWAP2 POP POP JUMP JUMPDEST PUSH32 0x556E61626C6520746F207472616E736665720000000000000000000000000000 PUSH1 0x0 DUP3 ADD MSTORE POP JUMP JUMPDEST PUSH1 0x0 PUSH2 0x1B13 PUSH1 0x12 DUP4 PUSH2 0x1856 JUMP JUMPDEST SWAP2 POP PUSH2 0x1B1E DUP3 PUSH2 0x1ADD JUMP JUMPDEST PUSH1 0x20 DUP3 ADD SWAP1 POP SWAP2 SWAP1 POP JUMP JUMPDEST PUSH1 0x0 PUSH1 0x20 DUP3 ADD SWAP1 POP DUP2 DUP2 SUB PUSH1 0x0 DUP4 ADD MSTORE PUSH2 0x1B42 DUP2 PUSH2 0x1B06 JUMP JUMPDEST SWAP1 POP SWAP2 SWAP1 POP JUMP JUMPDEST PUSH1 0x0 DUP2 SWAP1 POP SWAP2 SWAP1 POP JUMP JUMPDEST PUSH32 0x4E487B7100000000000000000000000000000000000000000000000000000000 PUSH1 0x0 MSTORE PUSH1 0x11 PUSH1 0x4 MSTORE PUSH1 0x24 PUSH1 0x0 REVERT JUMPDEST PUSH1 0x0 PUSH2 0x1B8D DUP3 PUSH2 0x1B49 JUMP JUMPDEST SWAP2 POP PUSH2 0x1B98 DUP4 PUSH2 0x1B49 JUMP JUMPDEST SWAP3 POP DUP3 DUP3 SUB SWAP1 POP DUP2 DUP2 SLT PUSH1 0x0 DUP5 SLT AND DUP3 DUP3 SGT PUSH1 0x0 DUP6 SLT ISZERO AND OR ISZERO PUSH2 0x1BBF JUMPI PUSH2 0x1BBE PUSH2 0x1B53 JUMP JUMPDEST JUMPDEST SWAP3 SWAP2 POP POP JUMP JUMPDEST PUSH1 0x0 PUSH2 0x1BD0 DUP3 PUSH2 0x16F5 JUMP JUMPDEST SWAP2 POP PUSH2 0x1BDB DUP4 PUSH2 0x16F5 JUMP JUMPDEST SWAP3 POP DUP3 DUP3 ADD SWAP1 POP DUP1 DUP3 GT ISZERO PUSH2 0x1BF3 JUMPI PUSH2 0x1BF2 PUSH2 0x1B53 JUMP JUMPDEST JUMPDEST SWAP3 SWAP2 POP POP JUMP JUMPDEST PUSH1 0x0 PUSH32 0xFFFFFFFF00000000000000000000000000000000000000000000000000000000 DUP3 AND SWAP1 POP SWAP2 SWAP1 POP JUMP JUMPDEST PUSH2 0x1C2E DUP2 PUSH2 0x1BF9 JUMP JUMPDEST DUP3 MSTORE POP POP JUMP JUMPDEST PUSH1 0x0 DUP2 MLOAD SWAP1 POP SWAP2 SWAP1 POP JUMP JUMPDEST PUSH1 0x0 DUP3 DUP3 MSTORE PUSH1 0x20 DUP3 ADD SWAP1 POP SWAP3 SWAP2 POP POP JUMP JUMPDEST PUSH1 0x0 JUMPDEST DUP4 DUP2 LT ISZERO PUSH2 0x1C6E JUMPI DUP1 DUP3 ADD MLOAD DUP2 DUP5 ADD MSTORE PUSH1 0x20 DUP2 ADD SWAP1 POP PUSH2 0x1C53 JUMP JUMPDEST PUSH1 0x0 DUP5 DUP5 ADD MSTORE POP POP POP POP JUMP JUMPDEST PUSH1 0x0 PUSH1 0x1F NOT PUSH1 0x1F DUP4 ADD AND SWAP1 POP SWAP2 SWAP1 POP JUMP JUMPDEST PUSH1 0x0 PUSH2 0x1C96 DUP3 PUSH2 0x1C34 JUMP JUMPDEST PUSH2 0x1CA0 DUP2 DUP6 PUSH2 0x1C3F JUMP JUMPDEST SWAP4 POP PUSH2 0x1CB0 DUP2 DUP6 PUSH1 0x20 DUP7 ADD PUSH2 0x1C50 JUMP JUMPDEST PUSH2 0x1CB9 DUP2 PUSH2 0x1C7A JUMP JUMPDEST DUP5 ADD SWAP2 POP POP SWAP3 SWAP2 POP POP JUMP JUMPDEST PUSH1 0x0 PUSH2 0x100 DUP3 ADD SWAP1 POP PUSH2 0x1CDA PUSH1 0x0 DUP4 ADD DUP12 PUSH2 0x19E3 JUMP JUMPDEST PUSH2 0x1CE7 PUSH1 0x20 DUP4 ADD DUP11 PUSH2 0x16FF JUMP JUMPDEST PUSH2 0x1CF4 PUSH1 0x40 DUP4 ADD DUP10 PUSH2 0x182C JUMP JUMPDEST PUSH2 0x1D01 PUSH1 0x60 DUP4 ADD DUP9 PUSH2 0x19E3 JUMP JUMPDEST PUSH2 0x1D0E PUSH1 0x80 DUP4 ADD DUP8 PUSH2 0x1C25 JUMP JUMPDEST PUSH2 0x1D1B PUSH1 0xA0 DUP4 ADD DUP7 PUSH2 0x16FF JUMP JUMPDEST PUSH2 0x1D28 PUSH1 0xC0 DUP4 ADD DUP6 PUSH2 0x16FF JUMP JUMPDEST DUP2 DUP2 SUB PUSH1 0xE0 DUP4 ADD MSTORE PUSH2 0x1D3A DUP2 DUP5 PUSH2 0x1C8B JUMP JUMPDEST SWAP1 POP SWAP10 SWAP9 POP POP POP POP POP POP POP POP POP JUMP JUMPDEST PUSH32 0x4E487B7100000000000000000000000000000000000000000000000000000000 PUSH1 0x0 MSTORE PUSH1 0x12 PUSH1 0x4 MSTORE PUSH1 0x24 PUSH1 0x0 REVERT JUMPDEST PUSH1 0x0 PUSH2 0x1D83 DUP3 PUSH2 0x16F5 JUMP JUMPDEST SWAP2 POP PUSH2 0x1D8E DUP4 PUSH2 0x16F5 JUMP JUMPDEST SWAP3 POP DUP3 PUSH2 0x1D9E JUMPI PUSH2 0x1D9D PUSH2 0x1D49 JUMP JUMPDEST JUMPDEST DUP3 DUP3 MOD SWAP1 POP SWAP3 SWAP2 POP POP JUMP JUMPDEST PUSH1 0x0 PUSH2 0x1DB4 DUP3 PUSH2 0x16F5 JUMP JUMPDEST SWAP2 POP PUSH2 0x1DBF DUP4 PUSH2 0x16F5 JUMP JUMPDEST SWAP3 POP DUP3 DUP3 SUB SWAP1 POP DUP2 DUP2 GT ISZERO PUSH2 0x1DD7 JUMPI PUSH2 0x1DD6 PUSH2 0x1B53 JUMP JUMPDEST JUMPDEST SWAP3 SWAP2 POP POP JUMP JUMPDEST PUSH1 0x0 DUP2 SWAP1 POP SWAP2 SWAP1 POP JUMP JUMPDEST PUSH1 0x0 PUSH2 0x1E02 PUSH2 0x1DFD PUSH2 0x1DF8 DUP5 PUSH2 0x1729 JUMP JUMPDEST PUSH2 0x1DDD JUMP JUMPDEST PUSH2 0x1729 JUMP JUMPDEST SWAP1 POP SWAP2 SWAP1 POP JUMP JUMPDEST PUSH1 0x0 PUSH2 0x1E14 DUP3 PUSH2 0x1DE7 JUMP JUMPDEST SWAP1 POP SWAP2 SWAP1 POP JUMP JUMPDEST PUSH1 0x0 PUSH2 0x1E26 DUP3 PUSH2 0x1E09 JUMP JUMPDEST SWAP1 POP SWAP2 SWAP1 POP JUMP JUMPDEST PUSH1 0x0 DUP2 PUSH1 0x60 SHL SWAP1 POP SWAP2 SWAP1 POP JUMP JUMPDEST PUSH1 0x0 PUSH2 0x1E45 DUP3 PUSH2 0x1E2D JUMP JUMPDEST SWAP1 POP SWAP2 SWAP1 POP JUMP JUMPDEST PUSH1 0x0 PUSH2 0x1E57 DUP3 PUSH2 0x1E3A JUMP JUMPDEST SWAP1 POP SWAP2 SWAP1 POP JUMP JUMPDEST PUSH2 0x1E6F PUSH2 0x1E6A DUP3 PUSH2 0x1E1B JUMP JUMPDEST PUSH2 0x1E4C JUMP JUMPDEST DUP3 MSTORE POP POP JUMP JUMPDEST PUSH1 0x0 DUP2 SWAP1 POP SWAP2 SWAP1 POP JUMP JUMPDEST PUSH2 0x1E90 PUSH2 0x1E8B DUP3 PUSH2 0x16F5 JUMP JUMPDEST PUSH2 0x1E75 JUMP JUMPDEST DUP3 MSTORE POP POP JUMP JUMPDEST PUSH1 0x0 PUSH2 0x1EA2 DUP3 DUP6 PUSH2 0x1E5E JUMP JUMPDEST PUSH1 0x14 DUP3 ADD SWAP2 POP PUSH2 0x1EB2 DUP3 DUP5 PUSH2 0x1E7F JUMP JUMPDEST PUSH1 0x20 DUP3 ADD SWAP2 POP DUP2 SWAP1 POP SWAP4 SWAP3 POP POP POP JUMP JUMPDEST PUSH1 0x0 PUSH1 0x60 DUP3 ADD SWAP1 POP PUSH2 0x1ED7 PUSH1 0x0 DUP4 ADD DUP7 PUSH2 0x19E3 JUMP JUMPDEST PUSH2 0x1EE4 PUSH1 0x20 DUP4 ADD DUP6 PUSH2 0x16FF JUMP JUMPDEST DUP2 DUP2 SUB PUSH1 0x40 DUP4 ADD MSTORE PUSH2 0x1EF6 DUP2 DUP5 PUSH2 0x1C8B JUMP JUMPDEST SWAP1 POP SWAP5 SWAP4 POP POP POP POP JUMP JUMPDEST PUSH32 0x756E61626C6520746F207472616E73666572416E6443616C6C20746F206F7261 PUSH1 0x0 DUP3 ADD MSTORE PUSH32 0x636C650000000000000000000000000000000000000000000000000000000000 PUSH1 0x20 DUP3 ADD MSTORE POP JUMP JUMPDEST PUSH1 0x0 PUSH2 0x1F5C PUSH1 0x23 DUP4 PUSH2 0x1856 JUMP JUMPDEST SWAP2 POP PUSH2 0x1F67 DUP3 PUSH2 0x1F00 JUMP JUMPDEST PUSH1 0x40 DUP3 ADD SWAP1 POP SWAP2 SWAP1 POP JUMP JUMPDEST PUSH1 0x0 PUSH1 0x20 DUP3 ADD SWAP1 POP DUP2 DUP2 SUB PUSH1 0x0 DUP4 ADD MSTORE PUSH2 0x1F8B DUP2 PUSH2 0x1F4F JUMP JUMPDEST SWAP1 POP SWAP2 SWAP1 POP JUMP JUMPDEST PUSH1 0x0 PUSH2 0x1F9D DUP3 PUSH2 0x16F5 JUMP JUMPDEST SWAP2 POP PUSH2 0x1FA8 DUP4 PUSH2 0x16F5 JUMP JUMPDEST SWAP3 POP DUP3 DUP3 MUL PUSH2 0x1FB6 DUP2 PUSH2 0x16F5 JUMP JUMPDEST SWAP2 POP DUP3 DUP3 DIV DUP5 EQ DUP4 ISZERO OR PUSH2 0x1FCD JUMPI PUSH2 0x1FCC PUSH2 0x1B53 JUMP JUMPDEST JUMPDEST POP SWAP3 SWAP2 POP POP JUMP JUMPDEST PUSH1 0x0 DUP2 PUSH1 0x1 SHR SWAP1 POP SWAP2 SWAP1 POP JUMP JUMPDEST PUSH1 0x0 DUP1 DUP3 SWAP2 POP DUP4 SWAP1 POP JUMPDEST PUSH1 0x1 DUP6 GT ISZERO PUSH2 0x202B JUMPI DUP1 DUP7 DIV DUP2 GT ISZERO PUSH2 0x2007 JUMPI PUSH2 0x2006 PUSH2 0x1B53 JUMP JUMPDEST JUMPDEST PUSH1 0x1 DUP6 AND ISZERO PUSH2 0x2016 JUMPI DUP1 DUP3 MUL SWAP2 POP JUMPDEST DUP1 DUP2 MUL SWAP1 POP PUSH2 0x2024 DUP6 PUSH2 0x1FD4 JUMP JUMPDEST SWAP5 POP PUSH2 0x1FEB JUMP JUMPDEST SWAP5 POP SWAP5 SWAP3 POP POP POP JUMP JUMPDEST PUSH1 0x0 DUP3 PUSH2 0x2044 JUMPI PUSH1 0x1 SWAP1 POP PUSH2 0x2100 JUMP JUMPDEST DUP2 PUSH2 0x2052 JUMPI PUSH1 0x0 SWAP1 POP PUSH2 0x2100 JUMP JUMPDEST DUP2 PUSH1 0x1 DUP2 EQ PUSH2 0x2068 JUMPI PUSH1 0x2 DUP2 EQ PUSH2 0x2072 JUMPI PUSH2 0x20A1 JUMP JUMPDEST PUSH1 0x1 SWAP2 POP POP PUSH2 0x2100 JUMP JUMPDEST PUSH1 0xFF DUP5 GT ISZERO PUSH2 0x2084 JUMPI PUSH2 0x2083 PUSH2 0x1B53 JUMP JUMPDEST JUMPDEST DUP4 PUSH1 0x2 EXP SWAP2 POP DUP5 DUP3 GT ISZERO PUSH2 0x209B JUMPI PUSH2 0x209A PUSH2 0x1B53 JUMP JUMPDEST JUMPDEST POP PUSH2 0x2100 JUMP JUMPDEST POP PUSH1 0x20 DUP4 LT PUSH2 0x133 DUP4 LT AND PUSH1 0x4E DUP5 LT PUSH1 0xB DUP5 LT AND OR ISZERO PUSH2 0x20D6 JUMPI DUP3 DUP3 EXP SWAP1 POP DUP4 DUP2 GT ISZERO PUSH2 0x20D1 JUMPI PUSH2 0x20D0 PUSH2 0x1B53 JUMP JUMPDEST JUMPDEST PUSH2 0x2100 JUMP JUMPDEST PUSH2 0x20E3 DUP5 DUP5 DUP5 PUSH1 0x1 PUSH2 0x1FE1 JUMP JUMPDEST SWAP3 POP SWAP1 POP DUP2 DUP5 DIV DUP2 GT ISZERO PUSH2 0x20FA JUMPI PUSH2 0x20F9 PUSH2 0x1B53 JUMP JUMPDEST JUMPDEST DUP2 DUP2 MUL SWAP1 POP JUMPDEST SWAP4 SWAP3 POP POP POP JUMP JUMPDEST PUSH1 0x0 PUSH2 0x2112 DUP3 PUSH2 0x16F5 JUMP JUMPDEST SWAP2 POP PUSH2 0x211D DUP4 PUSH2 0x16F5 JUMP JUMPDEST SWAP3 POP PUSH2 0x214A PUSH32 0xFFFFFFFFFFFFFFFFFFFFFFFFFFFFFFFFFFFFFFFFFFFFFFFFFFFFFFFFFFFFFFFF DUP5 DUP5 PUSH2 0x2034 JUMP JUMPDEST SWAP1 POP SWAP3 SWAP2 POP POP JUMP INVALID PUSH9 0x747470733A2F2F6669 PUSH26 0x742D61363234342D64656661756C742D727464622E6669726562 PUSH2 0x7365 PUSH10 0x6F2E636F6D2F2E6A736F PUSH15 0xA2646970667358221220B77D441471 0x1E 0xC3 SHR 0x5D 0x2C 0x5F CALLDATASIZE 0x29 SWAP5 GASPRICE DUP8 0xC0 0x21 0xE9 0xF7 SHR SLT REVERT 0x4F DUP13 EXTCODESIZE 0xAE STOP 0xCE SWAP13 0x2C 0xB6 PUSH5 0x736F6C6343 STOP ADDMOD SLT STOP CALLER "
		},
		"gasEstimates": {
			"creation": {
				"codeDepositCost": "1727200",
				"executionCost": "infinite",
				"totalCost": "infinite"
			},
			"external": {
				"Ec()": "2474",
				"Farmer()": "2582",
				"amt()": "2475",
				"collector()": "2536",
				"fulfill(bytes32,uint256)": "infinite",
				"fulfill1(bytes32,uint256)": "infinite",
				"getBalance()": "2966",
				"pH()": "2473",
				"payment()": "infinite",
				"price_per_litre()": "2518",
				"requestEcData()": "infinite",
				"requestpHData()": "infinite",
				"sentmilk()": "infinite",
				"withdrawLink()": "infinite"
			}
		},
		"methodIdentifiers": {
			"Ec()": "887d95fe",
			"Farmer()": "27bf2803",
			"amt()": "16eab96b",
			"collector()": "913e77ad",
			"fulfill(bytes32,uint256)": "4357855e",
			"fulfill1(bytes32,uint256)": "574c72e7",
			"getBalance()": "12065fe0",
			"pH()": "afe1b937",
			"payment()": "42f6487a",
			"price_per_litre()": "80f1fdd8",
			"requestEcData()": "fad778b4",
			"requestpHData()": "d6614abc",
			"sentmilk()": "820e8cf1",
			"withdrawLink()": "8dc654a2"
		}
	},
	"abi": [
		{
			"inputs": [],
			"stateMutability": "nonpayable",
			"type": "constructor"
		},
		{
			"anonymous": false,
			"inputs": [
				{
					"indexed": true,
					"internalType": "bytes32",
					"name": "id",
					"type": "bytes32"
				}
			],
			"name": "ChainlinkCancelled",
			"type": "event"
		},
		{
			"anonymous": false,
			"inputs": [
				{
					"indexed": true,
					"internalType": "bytes32",
					"name": "id",
					"type": "bytes32"
				}
			],
			"name": "ChainlinkFulfilled",
			"type": "event"
		},
		{
			"anonymous": false,
			"inputs": [
				{
					"indexed": true,
					"internalType": "bytes32",
					"name": "id",
					"type": "bytes32"
				}
			],
			"name": "ChainlinkRequested",
			"type": "event"
		},
		{
			"anonymous": false,
			"inputs": [
				{
					"indexed": true,
					"internalType": "bytes32",
					"name": "requestId",
					"type": "bytes32"
				},
				{
					"indexed": false,
					"internalType": "uint256",
					"name": "Ec",
					"type": "uint256"
				}
			],
			"name": "RequestEc",
			"type": "event"
		},
		{
			"anonymous": false,
			"inputs": [
				{
					"indexed": true,
					"internalType": "bytes32",
					"name": "requestId",
					"type": "bytes32"
				},
				{
					"indexed": false,
					"internalType": "uint256",
					"name": "pH",
					"type": "uint256"
				}
			],
			"name": "RequestpH",
			"type": "event"
		},
		{
			"inputs": [],
			"name": "Ec",
			"outputs": [
				{
					"internalType": "uint256",
					"name": "",
					"type": "uint256"
				}
			],
			"stateMutability": "view",
			"type": "function"
		},
		{
			"inputs": [],
			"name": "Farmer",
			"outputs": [
				{
					"internalType": "address payable",
					"name": "",
					"type": "address"
				}
			],
			"stateMutability": "view",
			"type": "function"
		},
		{
			"inputs": [],
			"name": "amt",
			"outputs": [
				{
					"internalType": "uint256",
					"name": "",
					"type": "uint256"
				}
			],
			"stateMutability": "view",
			"type": "function"
		},
		{
			"inputs": [],
			"name": "collector",
			"outputs": [
				{
					"internalType": "address payable",
					"name": "",
					"type": "address"
				}
			],
			"stateMutability": "view",
			"type": "function"
		},
		{
			"inputs": [
				{
					"internalType": "bytes32",
					"name": "_requestId",
					"type": "bytes32"
				},
				{
					"internalType": "uint256",
					"name": "_pH",
					"type": "uint256"
				}
			],
			"name": "fulfill",
			"outputs": [],
			"stateMutability": "nonpayable",
			"type": "function"
		},
		{
			"inputs": [
				{
					"internalType": "bytes32",
					"name": "_requestId",
					"type": "bytes32"
				},
				{
					"internalType": "uint256",
					"name": "_Ec",
					"type": "uint256"
				}
			],
			"name": "fulfill1",
			"outputs": [],
			"stateMutability": "nonpayable",
			"type": "function"
		},
		{
			"inputs": [],
			"name": "getBalance",
			"outputs": [
				{
					"internalType": "uint256",
					"name": "",
					"type": "uint256"
				}
			],
			"stateMutability": "view",
			"type": "function"
		},
		{
			"inputs": [],
			"name": "pH",
			"outputs": [
				{
					"internalType": "uint256",
					"name": "",
					"type": "uint256"
				}
			],
			"stateMutability": "view",
			"type": "function"
		},
		{
			"inputs": [],
			"name": "payment",
			"outputs": [],
			"stateMutability": "payable",
			"type": "function"
		},
		{
			"inputs": [],
			"name": "price_per_litre",
			"outputs": [
				{
					"internalType": "uint256",
					"name": "",
					"type": "uint256"
				}
			],
			"stateMutability": "view",
			"type": "function"
		},
		{
			"inputs": [],
			"name": "requestEcData",
			"outputs": [
				{
					"internalType": "bytes32",
					"name": "requestId",
					"type": "bytes32"
				}
			],
			"stateMutability": "nonpayable",
			"type": "function"
		},
		{
			"inputs": [],
			"name": "requestpHData",
			"outputs": [
				{
					"internalType": "bytes32",
					"name": "requestId",
					"type": "bytes32"
				}
			],
			"stateMutability": "nonpayable",
			"type": "function"
		},
		{
			"inputs": [],
			"name": "sentmilk",
			"outputs": [],
			"stateMutability": "nonpayable",
			"type": "function"
		},
		{
			"inputs": [],
			"name": "withdrawLink",
			"outputs": [],
			"stateMutability": "nonpayable",
			"type": "function"
		}
	]
}